{
	"Desktop/solidity/Graph.sol": {
		"Undigraph": {
			"abi": [
				{
					"inputs": [
						{
							"internalType": "uint256",
							"name": "start",
							"type": "uint256"
						}
					],
					"name": "BFS",
					"outputs": [
						{
							"internalType": "uint256[]",
							"name": "",
							"type": "uint256[]"
						}
					],
					"stateMutability": "nonpayable",
					"type": "function"
				},
				{
					"inputs": [
						{
							"internalType": "uint256",
							"name": "start",
							"type": "uint256"
						}
					],
					"name": "DFS",
					"outputs": [
						{
							"internalType": "uint256[]",
							"name": "",
							"type": "uint256[]"
						}
					],
					"stateMutability": "nonpayable",
					"type": "function"
				},
				{
					"inputs": [
						{
							"internalType": "uint256",
							"name": "start",
							"type": "uint256"
						}
					],
					"name": "ShortestPath",
					"outputs": [
						{
							"internalType": "uint256[]",
							"name": "",
							"type": "uint256[]"
						}
					],
					"stateMutability": "nonpayable",
					"type": "function"
				},
				{
					"inputs": [
						{
							"internalType": "uint256",
							"name": "vertext1",
							"type": "uint256"
						},
						{
							"internalType": "uint256",
							"name": "vertext2",
							"type": "uint256"
						}
					],
					"name": "addEdge",
					"outputs": [],
					"stateMutability": "nonpayable",
					"type": "function"
				},
				{
					"inputs": [
						{
							"internalType": "uint256",
							"name": "nodeId",
							"type": "uint256"
						},
						{
							"internalType": "string",
							"name": "nodeName",
							"type": "string"
						}
					],
					"name": "addVertext",
					"outputs": [],
					"stateMutability": "nonpayable",
					"type": "function"
				}
			],
			"devdoc": {
				"kind": "dev",
				"methods": {},
				"version": 1
			},
			"evm": {
				"assembly": "    /* \"Desktop/solidity/Graph.sol\":68:4902  contract Undigraph {... */\n  mstore(0x40, 0x80)\n  callvalue\n  dup1\n  iszero\n  tag_1\n  jumpi\n  0x00\n  dup1\n  revert\ntag_1:\n  pop\n  dataSize(sub_0)\n  dup1\n  dataOffset(sub_0)\n  0x00\n  codecopy\n  0x00\n  return\nstop\n\nsub_0: assembly {\n        /* \"Desktop/solidity/Graph.sol\":68:4902  contract Undigraph {... */\n      mstore(0x40, 0x80)\n      callvalue\n      dup1\n      iszero\n      tag_1\n      jumpi\n      0x00\n      dup1\n      revert\n    tag_1:\n      pop\n      jumpi(tag_2, lt(calldatasize, 0x04))\n      shr(0xe0, calldataload(0x00))\n      dup1\n      0x44a0c76a\n      eq\n      tag_3\n      jumpi\n      dup1\n      0x44c8c954\n      eq\n      tag_4\n      jumpi\n      dup1\n      0xb096ac03\n      eq\n      tag_5\n      jumpi\n      dup1\n      0xb79c72f5\n      eq\n      tag_6\n      jumpi\n      dup1\n      0xf6b5d030\n      eq\n      tag_7\n      jumpi\n    tag_2:\n      0x00\n      dup1\n      revert\n        /* \"Desktop/solidity/Graph.sol\":2972:3922  function ShortestPath(uint256 start) external returns (uint256[] memory) {... */\n    tag_3:\n      tag_8\n      0x04\n      dup1\n      calldatasize\n      sub\n      dup2\n      add\n      swap1\n      tag_9\n      swap2\n      swap1\n      tag_10\n      jump\t// in\n    tag_9:\n      tag_11\n      jump\t// in\n    tag_8:\n      mload(0x40)\n      tag_12\n      swap2\n      swap1\n      tag_13\n      jump\t// in\n    tag_12:\n      mload(0x40)\n      dup1\n      swap2\n      sub\n      swap1\n      return\n        /* \"Desktop/solidity/Graph.sol\":1075:1597  function addEdge(uint256 vertext1, uint256 vertext2) external {... */\n    tag_4:\n      tag_14\n      0x04\n      dup1\n      calldatasize\n      sub\n      dup2\n      add\n      swap1\n      tag_15\n      swap2\n      swap1\n      tag_16\n      jump\t// in\n    tag_15:\n      tag_17\n      jump\t// in\n    tag_14:\n      stop\n        /* \"Desktop/solidity/Graph.sol\":1828:2453  function BFS(uint256 start) external returns (uint256[] memory) {... */\n    tag_5:\n      tag_18\n      0x04\n      dup1\n      calldatasize\n      sub\n      dup2\n      add\n      swap1\n      tag_19\n      swap2\n      swap1\n      tag_10\n      jump\t// in\n    tag_19:\n      tag_20\n      jump\t// in\n    tag_18:\n      mload(0x40)\n      tag_21\n      swap2\n      swap1\n      tag_13\n      jump\t// in\n    tag_21:\n      mload(0x40)\n      dup1\n      swap2\n      sub\n      swap1\n      return\n        /* \"Desktop/solidity/Graph.sol\":685:1067  function addVertext(uint256 nodeId, string memory nodeName) external {... */\n    tag_6:\n      tag_22\n      0x04\n      dup1\n      calldatasize\n      sub\n      dup2\n      add\n      swap1\n      tag_23\n      swap2\n      swap1\n      tag_24\n      jump\t// in\n    tag_23:\n      tag_25\n      jump\t// in\n    tag_22:\n      stop\n        /* \"Desktop/solidity/Graph.sol\":2461:2964  function DFS(uint256 start) external returns (uint256[] memory) {... */\n    tag_7:\n      tag_26\n      0x04\n      dup1\n      calldatasize\n      sub\n      dup2\n      add\n      swap1\n      tag_27\n      swap2\n      swap1\n      tag_10\n      jump\t// in\n    tag_27:\n      tag_28\n      jump\t// in\n    tag_26:\n      mload(0x40)\n      tag_29\n      swap2\n      swap1\n      tag_13\n      jump\t// in\n    tag_29:\n      mload(0x40)\n      dup1\n      swap2\n      sub\n      swap1\n      return\n        /* \"Desktop/solidity/Graph.sol\":2972:3922  function ShortestPath(uint256 start) external returns (uint256[] memory) {... */\n    tag_11:\n        /* \"Desktop/solidity/Graph.sol\":3027:3043  uint256[] memory */\n      0x60\n        /* \"Desktop/solidity/Graph.sol\":3073:3084  setFaulse() */\n      tag_31\n        /* \"Desktop/solidity/Graph.sol\":3073:3082  setFaulse */\n      tag_32\n        /* \"Desktop/solidity/Graph.sol\":3073:3084  setFaulse() */\n      jump\t// in\n    tag_31:\n        /* \"Desktop/solidity/Graph.sol\":3103:3104  0 */\n      0x00\n        /* \"Desktop/solidity/Graph.sol\":3095:3100  route */\n      0x0a\n        /* \"Desktop/solidity/Graph.sol\":3095:3104  route = 0 */\n      dup2\n      swap1\n      sstore\n      pop\n        /* \"Desktop/solidity/Graph.sol\":3122:3128  pathID */\n      0x07\n      0x00\n        /* \"Desktop/solidity/Graph.sol\":3115:3128  delete pathID */\n      tag_33\n      swap2\n      swap1\n      tag_34\n      jump\t// in\n    tag_33:\n        /* \"Desktop/solidity/Graph.sol\":3146:3150  path */\n      0x06\n      0x00\n        /* \"Desktop/solidity/Graph.sol\":3139:3150  delete path */\n      tag_35\n      swap2\n      swap1\n      tag_34\n      jump\t// in\n    tag_35:\n        /* \"Desktop/solidity/Graph.sol\":3168:3178  pathResult */\n      0x09\n      0x00\n        /* \"Desktop/solidity/Graph.sol\":3161:3178  delete pathResult */\n      tag_36\n      swap2\n      swap1\n      tag_34\n      jump\t// in\n    tag_36:\n        /* \"Desktop/solidity/Graph.sol\":3189:3194  queue */\n      0x02\n        /* \"Desktop/solidity/Graph.sol\":3200:3205  start */\n      dup3\n        /* \"Desktop/solidity/Graph.sol\":3189:3206  queue.push(start) */\n      swap1\n      dup1\n      0x01\n      dup2\n      sload\n      add\n      dup1\n      dup3\n      sstore\n      dup1\n      swap2\n      pop\n      pop\n      0x01\n      swap1\n      sub\n      swap1\n      0x00\n      mstore\n      keccak256(0x00, 0x20)\n      add\n      0x00\n      swap1\n      swap2\n      swap1\n      swap2\n      swap1\n      swap2\n      pop\n      sstore\n        /* \"Desktop/solidity/Graph.sol\":3217:3223  pathID */\n      0x07\n        /* \"Desktop/solidity/Graph.sol\":3229:3234  start */\n      dup3\n        /* \"Desktop/solidity/Graph.sol\":3217:3235  pathID.push(start) */\n      swap1\n      dup1\n      0x01\n      dup2\n      sload\n      add\n      dup1\n      dup3\n      sstore\n      dup1\n      swap2\n      pop\n      pop\n      0x01\n      swap1\n      sub\n      swap1\n      0x00\n      mstore\n      keccak256(0x00, 0x20)\n      add\n      0x00\n      swap1\n      swap2\n      swap1\n      swap2\n      swap1\n      swap2\n      pop\n      sstore\n        /* \"Desktop/solidity/Graph.sol\":3263:3267  true */\n      0x01\n        /* \"Desktop/solidity/Graph.sol\":3246:3253  visited */\n      0x00\n        /* \"Desktop/solidity/Graph.sol\":3246:3260  visited[start] */\n      dup1\n        /* \"Desktop/solidity/Graph.sol\":3254:3259  start */\n      dup5\n        /* \"Desktop/solidity/Graph.sol\":3246:3260  visited[start] */\n      dup2\n      mstore\n      0x20\n      add\n      swap1\n      dup2\n      mstore\n      0x20\n      add\n      0x00\n      keccak256\n      0x00\n        /* \"Desktop/solidity/Graph.sol\":3246:3267  visited[start] = true */\n      0x0100\n      exp\n      dup2\n      sload\n      dup2\n      0xff\n      mul\n      not\n      and\n      swap1\n      dup4\n      iszero\n      iszero\n      mul\n      or\n      swap1\n      sstore\n      pop\n        /* \"Desktop/solidity/Graph.sol\":3291:3295  path */\n      0x06\n        /* \"Desktop/solidity/Graph.sol\":3301:3306  route */\n      sload(0x0a)\n        /* \"Desktop/solidity/Graph.sol\":3291:3307  path.push(route) */\n      swap1\n      dup1\n      0x01\n      dup2\n      sload\n      add\n      dup1\n      dup3\n      sstore\n      dup1\n      swap2\n      pop\n      pop\n      0x01\n      swap1\n      sub\n      swap1\n      0x00\n      mstore\n      keccak256(0x00, 0x20)\n      add\n      0x00\n      swap1\n      swap2\n      swap1\n      swap2\n      swap1\n      swap2\n      pop\n      sstore\n        /* \"Desktop/solidity/Graph.sol\":3318:3637  while (queue.length != 0) {... */\n    tag_40:\n        /* \"Desktop/solidity/Graph.sol\":3341:3342  0 */\n      0x00\n        /* \"Desktop/solidity/Graph.sol\":3325:3330  queue */\n      0x02\n        /* \"Desktop/solidity/Graph.sol\":3325:3337  queue.length */\n      dup1\n      sload\n      swap1\n      pop\n        /* \"Desktop/solidity/Graph.sol\":3325:3342  queue.length != 0 */\n      eq\n        /* \"Desktop/solidity/Graph.sol\":3318:3637  while (queue.length != 0) {... */\n      tag_41\n      jumpi\n        /* \"Desktop/solidity/Graph.sol\":3359:3379  uint256 FirstElement */\n      0x00\n        /* \"Desktop/solidity/Graph.sol\":3382:3387  queue */\n      0x02\n        /* \"Desktop/solidity/Graph.sol\":3388:3389  0 */\n      0x00\n        /* \"Desktop/solidity/Graph.sol\":3382:3390  queue[0] */\n      dup2\n      sload\n      dup2\n      lt\n      tag_42\n      jumpi\n      tag_43\n      tag_44\n      jump\t// in\n    tag_43:\n    tag_42:\n      swap1\n      0x00\n      mstore\n      keccak256(0x00, 0x20)\n      add\n      sload\n        /* \"Desktop/solidity/Graph.sol\":3359:3390  uint256 FirstElement = queue[0] */\n      swap1\n      pop\n        /* \"Desktop/solidity/Graph.sol\":3412:3417  queue */\n      0x02\n        /* \"Desktop/solidity/Graph.sol\":3418:3419  0 */\n      0x00\n        /* \"Desktop/solidity/Graph.sol\":3412:3420  queue[0] */\n      dup2\n      sload\n      dup2\n      lt\n      tag_46\n      jumpi\n      tag_47\n      tag_44\n      jump\t// in\n    tag_47:\n    tag_46:\n      swap1\n      0x00\n      mstore\n      keccak256(0x00, 0x20)\n      add\n        /* \"Desktop/solidity/Graph.sol\":3405:3420  delete queue[0] */\n      0x00\n      swap1\n      sstore\n        /* \"Desktop/solidity/Graph.sol\":3440:3449  uint256 i */\n      0x00\n        /* \"Desktop/solidity/Graph.sol\":3435:3540  for (uint256 i = 0; i < queue.length - 1; i++) {... */\n    tag_49:\n        /* \"Desktop/solidity/Graph.sol\":3474:3475  1 */\n      0x01\n        /* \"Desktop/solidity/Graph.sol\":3459:3464  queue */\n      0x02\n        /* \"Desktop/solidity/Graph.sol\":3459:3471  queue.length */\n      dup1\n      sload\n      swap1\n      pop\n        /* \"Desktop/solidity/Graph.sol\":3459:3475  queue.length - 1 */\n      tag_52\n      swap2\n      swap1\n      tag_53\n      jump\t// in\n    tag_52:\n        /* \"Desktop/solidity/Graph.sol\":3455:3456  i */\n      dup2\n        /* \"Desktop/solidity/Graph.sol\":3455:3475  i < queue.length - 1 */\n      lt\n        /* \"Desktop/solidity/Graph.sol\":3435:3540  for (uint256 i = 0; i < queue.length - 1; i++) {... */\n      iszero\n      tag_50\n      jumpi\n        /* \"Desktop/solidity/Graph.sol\":3512:3517  queue */\n      0x02\n        /* \"Desktop/solidity/Graph.sol\":3522:3523  1 */\n      0x01\n        /* \"Desktop/solidity/Graph.sol\":3518:3519  i */\n      dup3\n        /* \"Desktop/solidity/Graph.sol\":3518:3523  i + 1 */\n      tag_54\n      swap2\n      swap1\n      tag_55\n      jump\t// in\n    tag_54:\n        /* \"Desktop/solidity/Graph.sol\":3512:3524  queue[i + 1] */\n      dup2\n      sload\n      dup2\n      lt\n      tag_56\n      jumpi\n      tag_57\n      tag_44\n      jump\t// in\n    tag_57:\n    tag_56:\n      swap1\n      0x00\n      mstore\n      keccak256(0x00, 0x20)\n      add\n      sload\n        /* \"Desktop/solidity/Graph.sol\":3501:3506  queue */\n      0x02\n        /* \"Desktop/solidity/Graph.sol\":3507:3508  i */\n      dup3\n        /* \"Desktop/solidity/Graph.sol\":3501:3509  queue[i] */\n      dup2\n      sload\n      dup2\n      lt\n      tag_59\n      jumpi\n      tag_60\n      tag_44\n      jump\t// in\n    tag_60:\n    tag_59:\n      swap1\n      0x00\n      mstore\n      keccak256(0x00, 0x20)\n      add\n        /* \"Desktop/solidity/Graph.sol\":3501:3524  queue[i] = queue[i + 1] */\n      dup2\n      swap1\n      sstore\n      pop\n        /* \"Desktop/solidity/Graph.sol\":3477:3480  i++ */\n      dup1\n      dup1\n      tag_62\n      swap1\n      tag_63\n      jump\t// in\n    tag_62:\n      swap2\n      pop\n      pop\n        /* \"Desktop/solidity/Graph.sol\":3435:3540  for (uint256 i = 0; i < queue.length - 1; i++) {... */\n      jump(tag_49)\n    tag_50:\n      pop\n        /* \"Desktop/solidity/Graph.sol\":3554:3559  queue */\n      0x02\n        /* \"Desktop/solidity/Graph.sol\":3554:3565  queue.pop() */\n      dup1\n      sload\n      dup1\n      tag_64\n      jumpi\n      tag_65\n      tag_66\n      jump\t// in\n    tag_65:\n    tag_64:\n      0x01\n      swap1\n      sub\n      dup2\n      dup2\n      swap1\n      0x00\n      mstore\n      keccak256(0x00, 0x20)\n      add\n      0x00\n      swap1\n      sstore\n      swap1\n      sstore\n        /* \"Desktop/solidity/Graph.sol\":3587:3588  1 */\n      0x01\n        /* \"Desktop/solidity/Graph.sol\":3580:3585  route */\n      0x0a\n      0x00\n        /* \"Desktop/solidity/Graph.sol\":3580:3588  route+=1 */\n      dup3\n      dup3\n      sload\n      tag_68\n      swap2\n      swap1\n      tag_55\n      jump\t// in\n    tag_68:\n      swap3\n      pop\n      pop\n      dup2\n      swap1\n      sstore\n      pop\n        /* \"Desktop/solidity/Graph.sol\":3603:3625  BFSserch(FirstElement) */\n      tag_69\n        /* \"Desktop/solidity/Graph.sol\":3612:3624  FirstElement */\n      dup2\n        /* \"Desktop/solidity/Graph.sol\":3603:3611  BFSserch */\n      tag_70\n        /* \"Desktop/solidity/Graph.sol\":3603:3625  BFSserch(FirstElement) */\n      jump\t// in\n    tag_69:\n        /* \"Desktop/solidity/Graph.sol\":3344:3637  {... */\n      pop\n        /* \"Desktop/solidity/Graph.sol\":3318:3637  while (queue.length != 0) {... */\n      jump(tag_40)\n    tag_41:\n        /* \"Desktop/solidity/Graph.sol\":3662:3670  uint8 id */\n      0x00\n        /* \"Desktop/solidity/Graph.sol\":3671:3672  1 */\n      0x01\n        /* \"Desktop/solidity/Graph.sol\":3662:3672  uint8 id=1 */\n      swap1\n      pop\n        /* \"Desktop/solidity/Graph.sol\":3657:3877  for (uint8 id=1;id<=pathID.length;id++){... */\n    tag_71:\n        /* \"Desktop/solidity/Graph.sol\":3677:3683  pathID */\n      0x07\n        /* \"Desktop/solidity/Graph.sol\":3677:3690  pathID.length */\n      dup1\n      sload\n      swap1\n      pop\n        /* \"Desktop/solidity/Graph.sol\":3673:3675  id */\n      dup2\n        /* \"Desktop/solidity/Graph.sol\":3673:3690  id<=pathID.length */\n      0xff\n      and\n      gt\n        /* \"Desktop/solidity/Graph.sol\":3657:3877  for (uint8 id=1;id<=pathID.length;id++){... */\n      tag_72\n      jumpi\n        /* \"Desktop/solidity/Graph.sol\":3716:3725  uint256 i */\n      0x00\n        /* \"Desktop/solidity/Graph.sol\":3711:3866  for (uint256 i = 0; i < pathID.length; i++){... */\n    tag_74:\n        /* \"Desktop/solidity/Graph.sol\":3735:3741  pathID */\n      0x07\n        /* \"Desktop/solidity/Graph.sol\":3735:3748  pathID.length */\n      dup1\n      sload\n      swap1\n      pop\n        /* \"Desktop/solidity/Graph.sol\":3731:3732  i */\n      dup2\n        /* \"Desktop/solidity/Graph.sol\":3731:3748  i < pathID.length */\n      lt\n        /* \"Desktop/solidity/Graph.sol\":3711:3866  for (uint256 i = 0; i < pathID.length; i++){... */\n      iszero\n      tag_75\n      jumpi\n        /* \"Desktop/solidity/Graph.sol\":3783:3785  id */\n      dup2\n        /* \"Desktop/solidity/Graph.sol\":3772:3785  pathID[i]==id */\n      0xff\n      and\n        /* \"Desktop/solidity/Graph.sol\":3772:3778  pathID */\n      0x07\n        /* \"Desktop/solidity/Graph.sol\":3779:3780  i */\n      dup3\n        /* \"Desktop/solidity/Graph.sol\":3772:3781  pathID[i] */\n      dup2\n      sload\n      dup2\n      lt\n      tag_77\n      jumpi\n      tag_78\n      tag_44\n      jump\t// in\n    tag_78:\n    tag_77:\n      swap1\n      0x00\n      mstore\n      keccak256(0x00, 0x20)\n      add\n      sload\n        /* \"Desktop/solidity/Graph.sol\":3772:3785  pathID[i]==id */\n      sub\n        /* \"Desktop/solidity/Graph.sol\":3769:3845  if(pathID[i]==id){... */\n      tag_80\n      jumpi\n        /* \"Desktop/solidity/Graph.sol\":3805:3815  pathResult */\n      0x09\n        /* \"Desktop/solidity/Graph.sol\":3821:3825  path */\n      0x06\n        /* \"Desktop/solidity/Graph.sol\":3826:3827  i */\n      dup3\n        /* \"Desktop/solidity/Graph.sol\":3821:3828  path[i] */\n      dup2\n      sload\n      dup2\n      lt\n      tag_81\n      jumpi\n      tag_82\n      tag_44\n      jump\t// in\n    tag_82:\n    tag_81:\n      swap1\n      0x00\n      mstore\n      keccak256(0x00, 0x20)\n      add\n      sload\n        /* \"Desktop/solidity/Graph.sol\":3805:3829  pathResult.push(path[i]) */\n      swap1\n      dup1\n      0x01\n      dup2\n      sload\n      add\n      dup1\n      dup3\n      sstore\n      dup1\n      swap2\n      pop\n      pop\n      0x01\n      swap1\n      sub\n      swap1\n      0x00\n      mstore\n      keccak256(0x00, 0x20)\n      add\n      0x00\n      swap1\n      swap2\n      swap1\n      swap2\n      swap1\n      swap2\n      pop\n      sstore\n        /* \"Desktop/solidity/Graph.sol\":3769:3845  if(pathID[i]==id){... */\n    tag_80:\n        /* \"Desktop/solidity/Graph.sol\":3750:3753  i++ */\n      dup1\n      dup1\n      tag_85\n      swap1\n      tag_63\n      jump\t// in\n    tag_85:\n      swap2\n      pop\n      pop\n        /* \"Desktop/solidity/Graph.sol\":3711:3866  for (uint256 i = 0; i < pathID.length; i++){... */\n      jump(tag_74)\n    tag_75:\n      pop\n        /* \"Desktop/solidity/Graph.sol\":3691:3695  id++ */\n      dup1\n      dup1\n      tag_86\n      swap1\n      tag_87\n      jump\t// in\n    tag_86:\n      swap2\n      pop\n      pop\n        /* \"Desktop/solidity/Graph.sol\":3657:3877  for (uint8 id=1;id<=pathID.length;id++){... */\n      jump(tag_71)\n    tag_72:\n      pop\n        /* \"Desktop/solidity/Graph.sol\":3904:3914  pathResult */\n      0x09\n        /* \"Desktop/solidity/Graph.sol\":3897:3914  return pathResult */\n      dup1\n      sload\n      dup1\n      0x20\n      mul\n      0x20\n      add\n      mload(0x40)\n      swap1\n      dup2\n      add\n      0x40\n      mstore\n      dup1\n      swap3\n      swap2\n      swap1\n      dup2\n      dup2\n      mstore\n      0x20\n      add\n      dup3\n      dup1\n      sload\n      dup1\n      iszero\n      tag_88\n      jumpi\n      0x20\n      mul\n      dup3\n      add\n      swap2\n      swap1\n      0x00\n      mstore\n      keccak256(0x00, 0x20)\n      swap1\n    tag_89:\n      dup2\n      sload\n      dup2\n      mstore\n      0x20\n      add\n      swap1\n      0x01\n      add\n      swap1\n      dup1\n      dup4\n      gt\n      tag_89\n      jumpi\n    tag_88:\n      pop\n      pop\n      pop\n      pop\n      pop\n      swap1\n      pop\n        /* \"Desktop/solidity/Graph.sol\":2972:3922  function ShortestPath(uint256 start) external returns (uint256[] memory) {... */\n      swap2\n      swap1\n      pop\n      jump\t// out\n        /* \"Desktop/solidity/Graph.sol\":1075:1597  function addEdge(uint256 vertext1, uint256 vertext2) external {... */\n    tag_17:\n        /* \"Desktop/solidity/Graph.sol\":1257:1258  0 */\n      0x00\n        /* \"Desktop/solidity/Graph.sol\":1245:1253  vertext1 */\n      dup3\n        /* \"Desktop/solidity/Graph.sol\":1245:1258  vertext1 != 0 */\n      eq\n      iszero\n        /* \"Desktop/solidity/Graph.sol\":1245:1275  vertext1 != 0 && vertext2 != 0 */\n      dup1\n      iszero\n      tag_91\n      jumpi\n      pop\n        /* \"Desktop/solidity/Graph.sol\":1274:1275  0 */\n      0x00\n        /* \"Desktop/solidity/Graph.sol\":1262:1270  vertext2 */\n      dup2\n        /* \"Desktop/solidity/Graph.sol\":1262:1275  vertext2 != 0 */\n      eq\n      iszero\n        /* \"Desktop/solidity/Graph.sol\":1245:1275  vertext1 != 0 && vertext2 != 0 */\n    tag_91:\n        /* \"Desktop/solidity/Graph.sol\":1237:1307  require(vertext1 != 0 && vertext2 != 0, \"vertext should not be zero.\") */\n      tag_92\n      jumpi\n      mload(0x40)\n      0x08c379a000000000000000000000000000000000000000000000000000000000\n      dup2\n      mstore\n      0x04\n      add\n      tag_93\n      swap1\n      tag_94\n      jump\t// in\n    tag_93:\n      mload(0x40)\n      dup1\n      swap2\n      sub\n      swap1\n      revert\n    tag_92:\n        /* \"Desktop/solidity/Graph.sol\":1372:1373  0 */\n      0x00\n        /* \"Desktop/solidity/Graph.sol\":1340:1345  graph */\n      0x0b\n        /* \"Desktop/solidity/Graph.sol\":1340:1351  graph.nodes */\n      0x00\n      add\n        /* \"Desktop/solidity/Graph.sol\":1340:1361  graph.nodes[vertext1] */\n      0x00\n        /* \"Desktop/solidity/Graph.sol\":1352:1360  vertext1 */\n      dup5\n        /* \"Desktop/solidity/Graph.sol\":1340:1361  graph.nodes[vertext1] */\n      dup2\n      mstore\n      0x20\n      add\n      swap1\n      dup2\n      mstore\n      0x20\n      add\n      0x00\n      keccak256\n        /* \"Desktop/solidity/Graph.sol\":1340:1368  graph.nodes[vertext1].nodeId */\n      0x00\n      add\n      sload\n        /* \"Desktop/solidity/Graph.sol\":1340:1373  graph.nodes[vertext1].nodeId != 0 */\n      eq\n      iszero\n        /* \"Desktop/solidity/Graph.sol\":1340:1427  graph.nodes[vertext1].nodeId != 0 &&... */\n      dup1\n      iszero\n      tag_95\n      jumpi\n      pop\n        /* \"Desktop/solidity/Graph.sol\":1426:1427  0 */\n      0x00\n        /* \"Desktop/solidity/Graph.sol\":1394:1399  graph */\n      0x0b\n        /* \"Desktop/solidity/Graph.sol\":1394:1405  graph.nodes */\n      0x00\n      add\n        /* \"Desktop/solidity/Graph.sol\":1394:1415  graph.nodes[vertext2] */\n      0x00\n        /* \"Desktop/solidity/Graph.sol\":1406:1414  vertext2 */\n      dup4\n        /* \"Desktop/solidity/Graph.sol\":1394:1415  graph.nodes[vertext2] */\n      dup2\n      mstore\n      0x20\n      add\n      swap1\n      dup2\n      mstore\n      0x20\n      add\n      0x00\n      keccak256\n        /* \"Desktop/solidity/Graph.sol\":1394:1422  graph.nodes[vertext2].nodeId */\n      0x00\n      add\n      sload\n        /* \"Desktop/solidity/Graph.sol\":1394:1427  graph.nodes[vertext2].nodeId != 0 */\n      eq\n      iszero\n        /* \"Desktop/solidity/Graph.sol\":1340:1427  graph.nodes[vertext1].nodeId != 0 &&... */\n    tag_95:\n        /* \"Desktop/solidity/Graph.sol\":1318:1475  require(... */\n      tag_96\n      jumpi\n      mload(0x40)\n      0x08c379a000000000000000000000000000000000000000000000000000000000\n      dup2\n      mstore\n      0x04\n      add\n      tag_97\n      swap1\n      tag_98\n      jump\t// in\n    tag_97:\n      mload(0x40)\n      dup1\n      swap2\n      sub\n      swap1\n      revert\n    tag_96:\n        /* \"Desktop/solidity/Graph.sol\":1486:1491  graph */\n      0x0b\n        /* \"Desktop/solidity/Graph.sol\":1486:1497  graph.nodes */\n      0x00\n      add\n        /* \"Desktop/solidity/Graph.sol\":1486:1507  graph.nodes[vertext1] */\n      0x00\n        /* \"Desktop/solidity/Graph.sol\":1498:1506  vertext1 */\n      dup4\n        /* \"Desktop/solidity/Graph.sol\":1486:1507  graph.nodes[vertext1] */\n      dup2\n      mstore\n      0x20\n      add\n      swap1\n      dup2\n      mstore\n      0x20\n      add\n      0x00\n      keccak256\n        /* \"Desktop/solidity/Graph.sol\":1486:1517  graph.nodes[vertext1].neighbors */\n      0x02\n      add\n        /* \"Desktop/solidity/Graph.sol\":1523:1531  vertext2 */\n      dup2\n        /* \"Desktop/solidity/Graph.sol\":1486:1532  graph.nodes[vertext1].neighbors.push(vertext2) */\n      swap1\n      dup1\n      0x01\n      dup2\n      sload\n      add\n      dup1\n      dup3\n      sstore\n      dup1\n      swap2\n      pop\n      pop\n      0x01\n      swap1\n      sub\n      swap1\n      0x00\n      mstore\n      keccak256(0x00, 0x20)\n      add\n      0x00\n      swap1\n      swap2\n      swap1\n      swap2\n      swap1\n      swap2\n      pop\n      sstore\n        /* \"Desktop/solidity/Graph.sol\":1543:1548  graph */\n      0x0b\n        /* \"Desktop/solidity/Graph.sol\":1543:1554  graph.nodes */\n      0x00\n      add\n        /* \"Desktop/solidity/Graph.sol\":1543:1564  graph.nodes[vertext2] */\n      0x00\n        /* \"Desktop/solidity/Graph.sol\":1555:1563  vertext2 */\n      dup3\n        /* \"Desktop/solidity/Graph.sol\":1543:1564  graph.nodes[vertext2] */\n      dup2\n      mstore\n      0x20\n      add\n      swap1\n      dup2\n      mstore\n      0x20\n      add\n      0x00\n      keccak256\n        /* \"Desktop/solidity/Graph.sol\":1543:1574  graph.nodes[vertext2].neighbors */\n      0x02\n      add\n        /* \"Desktop/solidity/Graph.sol\":1580:1588  vertext1 */\n      dup3\n        /* \"Desktop/solidity/Graph.sol\":1543:1589  graph.nodes[vertext2].neighbors.push(vertext1) */\n      swap1\n      dup1\n      0x01\n      dup2\n      sload\n      add\n      dup1\n      dup3\n      sstore\n      dup1\n      swap2\n      pop\n      pop\n      0x01\n      swap1\n      sub\n      swap1\n      0x00\n      mstore\n      keccak256(0x00, 0x20)\n      add\n      0x00\n      swap1\n      swap2\n      swap1\n      swap2\n      swap1\n      swap2\n      pop\n      sstore\n        /* \"Desktop/solidity/Graph.sol\":1075:1597  function addEdge(uint256 vertext1, uint256 vertext2) external {... */\n      pop\n      pop\n      jump\t// out\n        /* \"Desktop/solidity/Graph.sol\":1828:2453  function BFS(uint256 start) external returns (uint256[] memory) {... */\n    tag_20:\n        /* \"Desktop/solidity/Graph.sol\":1874:1890  uint256[] memory */\n      0x60\n        /* \"Desktop/solidity/Graph.sol\":1971:1982  setFaulse() */\n      tag_102\n        /* \"Desktop/solidity/Graph.sol\":1971:1980  setFaulse */\n      tag_32\n        /* \"Desktop/solidity/Graph.sol\":1971:1982  setFaulse() */\n      jump\t// in\n    tag_102:\n        /* \"Desktop/solidity/Graph.sol\":2000:2009  BFSResult */\n      0x05\n      0x00\n        /* \"Desktop/solidity/Graph.sol\":1993:2009  delete BFSResult */\n      tag_103\n      swap2\n      swap1\n      tag_34\n      jump\t// in\n    tag_103:\n        /* \"Desktop/solidity/Graph.sol\":2020:2025  queue */\n      0x02\n        /* \"Desktop/solidity/Graph.sol\":2031:2036  start */\n      dup3\n        /* \"Desktop/solidity/Graph.sol\":2020:2037  queue.push(start) */\n      swap1\n      dup1\n      0x01\n      dup2\n      sload\n      add\n      dup1\n      dup3\n      sstore\n      dup1\n      swap2\n      pop\n      pop\n      0x01\n      swap1\n      sub\n      swap1\n      0x00\n      mstore\n      keccak256(0x00, 0x20)\n      add\n      0x00\n      swap1\n      swap2\n      swap1\n      swap2\n      swap1\n      swap2\n      pop\n      sstore\n        /* \"Desktop/solidity/Graph.sol\":2065:2069  true */\n      0x01\n        /* \"Desktop/solidity/Graph.sol\":2048:2055  visited */\n      0x00\n        /* \"Desktop/solidity/Graph.sol\":2048:2062  visited[start] */\n      dup1\n        /* \"Desktop/solidity/Graph.sol\":2056:2061  start */\n      dup5\n        /* \"Desktop/solidity/Graph.sol\":2048:2062  visited[start] */\n      dup2\n      mstore\n      0x20\n      add\n      swap1\n      dup2\n      mstore\n      0x20\n      add\n      0x00\n      keccak256\n      0x00\n        /* \"Desktop/solidity/Graph.sol\":2048:2069  visited[start] = true */\n      0x0100\n      exp\n      dup2\n      sload\n      dup2\n      0xff\n      mul\n      not\n      and\n      swap1\n      dup4\n      iszero\n      iszero\n      mul\n      or\n      swap1\n      sstore\n      pop\n        /* \"Desktop/solidity/Graph.sol\":2080:2419  while (queue.length != 0) {... */\n    tag_105:\n        /* \"Desktop/solidity/Graph.sol\":2103:2104  0 */\n      0x00\n        /* \"Desktop/solidity/Graph.sol\":2087:2092  queue */\n      0x02\n        /* \"Desktop/solidity/Graph.sol\":2087:2099  queue.length */\n      dup1\n      sload\n      swap1\n      pop\n        /* \"Desktop/solidity/Graph.sol\":2087:2104  queue.length != 0 */\n      eq\n        /* \"Desktop/solidity/Graph.sol\":2080:2419  while (queue.length != 0) {... */\n      tag_106\n      jumpi\n        /* \"Desktop/solidity/Graph.sol\":2121:2141  uint256 FirstElement */\n      0x00\n        /* \"Desktop/solidity/Graph.sol\":2144:2149  queue */\n      0x02\n        /* \"Desktop/solidity/Graph.sol\":2150:2151  0 */\n      0x00\n        /* \"Desktop/solidity/Graph.sol\":2144:2152  queue[0] */\n      dup2\n      sload\n      dup2\n      lt\n      tag_107\n      jumpi\n      tag_108\n      tag_44\n      jump\t// in\n    tag_108:\n    tag_107:\n      swap1\n      0x00\n      mstore\n      keccak256(0x00, 0x20)\n      add\n      sload\n        /* \"Desktop/solidity/Graph.sol\":2121:2152  uint256 FirstElement = queue[0] */\n      swap1\n      pop\n        /* \"Desktop/solidity/Graph.sol\":2174:2179  queue */\n      0x02\n        /* \"Desktop/solidity/Graph.sol\":2180:2181  0 */\n      0x00\n        /* \"Desktop/solidity/Graph.sol\":2174:2182  queue[0] */\n      dup2\n      sload\n      dup2\n      lt\n      tag_110\n      jumpi\n      tag_111\n      tag_44\n      jump\t// in\n    tag_111:\n    tag_110:\n      swap1\n      0x00\n      mstore\n      keccak256(0x00, 0x20)\n      add\n        /* \"Desktop/solidity/Graph.sol\":2167:2182  delete queue[0] */\n      0x00\n      swap1\n      sstore\n        /* \"Desktop/solidity/Graph.sol\":2202:2211  uint256 i */\n      0x00\n        /* \"Desktop/solidity/Graph.sol\":2197:2302  for (uint256 i = 0; i < queue.length - 1; i++) {... */\n    tag_113:\n        /* \"Desktop/solidity/Graph.sol\":2236:2237  1 */\n      0x01\n        /* \"Desktop/solidity/Graph.sol\":2221:2226  queue */\n      0x02\n        /* \"Desktop/solidity/Graph.sol\":2221:2233  queue.length */\n      dup1\n      sload\n      swap1\n      pop\n        /* \"Desktop/solidity/Graph.sol\":2221:2237  queue.length - 1 */\n      tag_116\n      swap2\n      swap1\n      tag_53\n      jump\t// in\n    tag_116:\n        /* \"Desktop/solidity/Graph.sol\":2217:2218  i */\n      dup2\n        /* \"Desktop/solidity/Graph.sol\":2217:2237  i < queue.length - 1 */\n      lt\n        /* \"Desktop/solidity/Graph.sol\":2197:2302  for (uint256 i = 0; i < queue.length - 1; i++) {... */\n      iszero\n      tag_114\n      jumpi\n        /* \"Desktop/solidity/Graph.sol\":2274:2279  queue */\n      0x02\n        /* \"Desktop/solidity/Graph.sol\":2284:2285  1 */\n      0x01\n        /* \"Desktop/solidity/Graph.sol\":2280:2281  i */\n      dup3\n        /* \"Desktop/solidity/Graph.sol\":2280:2285  i + 1 */\n      tag_117\n      swap2\n      swap1\n      tag_55\n      jump\t// in\n    tag_117:\n        /* \"Desktop/solidity/Graph.sol\":2274:2286  queue[i + 1] */\n      dup2\n      sload\n      dup2\n      lt\n      tag_118\n      jumpi\n      tag_119\n      tag_44\n      jump\t// in\n    tag_119:\n    tag_118:\n      swap1\n      0x00\n      mstore\n      keccak256(0x00, 0x20)\n      add\n      sload\n        /* \"Desktop/solidity/Graph.sol\":2263:2268  queue */\n      0x02\n        /* \"Desktop/solidity/Graph.sol\":2269:2270  i */\n      dup3\n        /* \"Desktop/solidity/Graph.sol\":2263:2271  queue[i] */\n      dup2\n      sload\n      dup2\n      lt\n      tag_121\n      jumpi\n      tag_122\n      tag_44\n      jump\t// in\n    tag_122:\n    tag_121:\n      swap1\n      0x00\n      mstore\n      keccak256(0x00, 0x20)\n      add\n        /* \"Desktop/solidity/Graph.sol\":2263:2286  queue[i] = queue[i + 1] */\n      dup2\n      swap1\n      sstore\n      pop\n        /* \"Desktop/solidity/Graph.sol\":2239:2242  i++ */\n      dup1\n      dup1\n      tag_124\n      swap1\n      tag_63\n      jump\t// in\n    tag_124:\n      swap2\n      pop\n      pop\n        /* \"Desktop/solidity/Graph.sol\":2197:2302  for (uint256 i = 0; i < queue.length - 1; i++) {... */\n      jump(tag_113)\n    tag_114:\n      pop\n        /* \"Desktop/solidity/Graph.sol\":2316:2321  queue */\n      0x02\n        /* \"Desktop/solidity/Graph.sol\":2316:2327  queue.pop() */\n      dup1\n      sload\n      dup1\n      tag_125\n      jumpi\n      tag_126\n      tag_66\n      jump\t// in\n    tag_126:\n    tag_125:\n      0x01\n      swap1\n      sub\n      dup2\n      dup2\n      swap1\n      0x00\n      mstore\n      keccak256(0x00, 0x20)\n      add\n      0x00\n      swap1\n      sstore\n      swap1\n      sstore\n        /* \"Desktop/solidity/Graph.sol\":2342:2351  BFSResult */\n      0x05\n        /* \"Desktop/solidity/Graph.sol\":2357:2369  FirstElement */\n      dup2\n        /* \"Desktop/solidity/Graph.sol\":2342:2370  BFSResult.push(FirstElement) */\n      swap1\n      dup1\n      0x01\n      dup2\n      sload\n      add\n      dup1\n      dup3\n      sstore\n      dup1\n      swap2\n      pop\n      pop\n      0x01\n      swap1\n      sub\n      swap1\n      0x00\n      mstore\n      keccak256(0x00, 0x20)\n      add\n      0x00\n      swap1\n      swap2\n      swap1\n      swap2\n      swap1\n      swap2\n      pop\n      sstore\n        /* \"Desktop/solidity/Graph.sol\":2385:2407  BFSserch(FirstElement) */\n      tag_129\n        /* \"Desktop/solidity/Graph.sol\":2394:2406  FirstElement */\n      dup2\n        /* \"Desktop/solidity/Graph.sol\":2385:2393  BFSserch */\n      tag_70\n        /* \"Desktop/solidity/Graph.sol\":2385:2407  BFSserch(FirstElement) */\n      jump\t// in\n    tag_129:\n        /* \"Desktop/solidity/Graph.sol\":2106:2419  {... */\n      pop\n        /* \"Desktop/solidity/Graph.sol\":2080:2419  while (queue.length != 0) {... */\n      jump(tag_105)\n    tag_106:\n        /* \"Desktop/solidity/Graph.sol\":2436:2445  BFSResult */\n      0x05\n        /* \"Desktop/solidity/Graph.sol\":2429:2445  return BFSResult */\n      dup1\n      sload\n      dup1\n      0x20\n      mul\n      0x20\n      add\n      mload(0x40)\n      swap1\n      dup2\n      add\n      0x40\n      mstore\n      dup1\n      swap3\n      swap2\n      swap1\n      dup2\n      dup2\n      mstore\n      0x20\n      add\n      dup3\n      dup1\n      sload\n      dup1\n      iszero\n      tag_130\n      jumpi\n      0x20\n      mul\n      dup3\n      add\n      swap2\n      swap1\n      0x00\n      mstore\n      keccak256(0x00, 0x20)\n      swap1\n    tag_131:\n      dup2\n      sload\n      dup2\n      mstore\n      0x20\n      add\n      swap1\n      0x01\n      add\n      swap1\n      dup1\n      dup4\n      gt\n      tag_131\n      jumpi\n    tag_130:\n      pop\n      pop\n      pop\n      pop\n      pop\n      swap1\n      pop\n        /* \"Desktop/solidity/Graph.sol\":1828:2453  function BFS(uint256 start) external returns (uint256[] memory) {... */\n      swap2\n      swap1\n      pop\n      jump\t// out\n        /* \"Desktop/solidity/Graph.sol\":685:1067  function addVertext(uint256 nodeId, string memory nodeName) external {... */\n    tag_25:\n        /* \"Desktop/solidity/Graph.sol\":783:784  0 */\n      0x00\n        /* \"Desktop/solidity/Graph.sol\":773:779  nodeId */\n      dup3\n        /* \"Desktop/solidity/Graph.sol\":773:784  nodeId != 0 */\n      sub\n        /* \"Desktop/solidity/Graph.sol\":765:816  require(nodeId != 0, \"Node ID should not be zero.\") */\n      tag_133\n      jumpi\n      mload(0x40)\n      0x08c379a000000000000000000000000000000000000000000000000000000000\n      dup2\n      mstore\n      0x04\n      add\n      tag_134\n      swap1\n      tag_135\n      jump\t// in\n    tag_134:\n      mload(0x40)\n      dup1\n      swap2\n      sub\n      swap1\n      revert\n    tag_133:\n        /* \"Desktop/solidity/Graph.sol\":865:866  0 */\n      0x00\n        /* \"Desktop/solidity/Graph.sol\":835:840  graph */\n      0x0b\n        /* \"Desktop/solidity/Graph.sol\":835:846  graph.nodes */\n      0x00\n      add\n        /* \"Desktop/solidity/Graph.sol\":835:854  graph.nodes[nodeId] */\n      0x00\n        /* \"Desktop/solidity/Graph.sol\":847:853  nodeId */\n      dup5\n        /* \"Desktop/solidity/Graph.sol\":835:854  graph.nodes[nodeId] */\n      dup2\n      mstore\n      0x20\n      add\n      swap1\n      dup2\n      mstore\n      0x20\n      add\n      0x00\n      keccak256\n        /* \"Desktop/solidity/Graph.sol\":835:861  graph.nodes[nodeId].nodeId */\n      0x00\n      add\n      sload\n        /* \"Desktop/solidity/Graph.sol\":835:866  graph.nodes[nodeId].nodeId == 0 */\n      eq\n        /* \"Desktop/solidity/Graph.sol\":827:891  require(graph.nodes[nodeId].nodeId == 0, \"Node already exists.\") */\n      tag_136\n      jumpi\n      mload(0x40)\n      0x08c379a000000000000000000000000000000000000000000000000000000000\n      dup2\n      mstore\n      0x04\n      add\n      tag_137\n      swap1\n      tag_138\n      jump\t// in\n    tag_137:\n      mload(0x40)\n      dup1\n      swap2\n      sub\n      swap1\n      revert\n    tag_136:\n        /* \"Desktop/solidity/Graph.sol\":924:964  Node(nodeId, nodeName, new uint256[](0)) */\n      mload(0x40)\n      dup1\n      0x60\n      add\n      0x40\n      mstore\n      dup1\n        /* \"Desktop/solidity/Graph.sol\":929:935  nodeId */\n      dup4\n        /* \"Desktop/solidity/Graph.sol\":924:964  Node(nodeId, nodeName, new uint256[](0)) */\n      dup2\n      mstore\n      0x20\n      add\n        /* \"Desktop/solidity/Graph.sol\":937:945  nodeName */\n      dup3\n        /* \"Desktop/solidity/Graph.sol\":924:964  Node(nodeId, nodeName, new uint256[](0)) */\n      dup2\n      mstore\n      0x20\n      add\n        /* \"Desktop/solidity/Graph.sol\":961:962  0 */\n      0x00\n        /* \"Desktop/solidity/Graph.sol\":947:963  new uint256[](0) */\n      0xffffffffffffffff\n      dup2\n      gt\n      iszero\n      tag_139\n      jumpi\n      tag_140\n      tag_141\n      jump\t// in\n    tag_140:\n    tag_139:\n      mload(0x40)\n      swap1\n      dup1\n      dup3\n      mstore\n      dup1\n      0x20\n      mul\n      0x20\n      add\n      dup3\n      add\n      0x40\n      mstore\n      dup1\n      iszero\n      tag_142\n      jumpi\n      dup2\n      0x20\n      add\n      0x20\n      dup3\n      mul\n      dup1\n      calldatasize\n      dup4\n      calldatacopy\n      dup1\n      dup3\n      add\n      swap2\n      pop\n      pop\n      swap1\n      pop\n    tag_142:\n      pop\n        /* \"Desktop/solidity/Graph.sol\":924:964  Node(nodeId, nodeName, new uint256[](0)) */\n      dup2\n      mstore\n      pop\n        /* \"Desktop/solidity/Graph.sol\":902:907  graph */\n      0x0b\n        /* \"Desktop/solidity/Graph.sol\":902:913  graph.nodes */\n      0x00\n      add\n        /* \"Desktop/solidity/Graph.sol\":902:921  graph.nodes[nodeId] */\n      0x00\n        /* \"Desktop/solidity/Graph.sol\":914:920  nodeId */\n      dup5\n        /* \"Desktop/solidity/Graph.sol\":902:921  graph.nodes[nodeId] */\n      dup2\n      mstore\n      0x20\n      add\n      swap1\n      dup2\n      mstore\n      0x20\n      add\n      0x00\n      keccak256\n        /* \"Desktop/solidity/Graph.sol\":902:964  graph.nodes[nodeId] = Node(nodeId, nodeName, new uint256[](0)) */\n      0x00\n      dup3\n      add\n      mload\n      dup2\n      0x00\n      add\n      sstore\n      0x20\n      dup3\n      add\n      mload\n      dup2\n      0x01\n      add\n      swap1\n      dup2\n      tag_143\n      swap2\n      swap1\n      tag_144\n      jump\t// in\n    tag_143:\n      pop\n      0x40\n      dup3\n      add\n      mload\n      dup2\n      0x02\n      add\n      swap1\n      dup1\n      mload\n      swap1\n      0x20\n      add\n      swap1\n      tag_145\n      swap3\n      swap2\n      swap1\n      tag_146\n      jump\t// in\n    tag_145:\n      pop\n      swap1\n      pop\n      pop\n        /* \"Desktop/solidity/Graph.sol\":975:980  graph */\n      0x0b\n        /* \"Desktop/solidity/Graph.sol\":975:990  graph.nodeCount */\n      0x01\n      add\n      0x00\n        /* \"Desktop/solidity/Graph.sol\":975:992  graph.nodeCount++ */\n      dup2\n      sload\n      dup1\n      swap3\n      swap2\n      swap1\n      tag_147\n      swap1\n      tag_63\n      jump\t// in\n    tag_147:\n      swap2\n      swap1\n      pop\n      sstore\n      pop\n        /* \"Desktop/solidity/Graph.sol\":1021:1026  false */\n      0x00\n        /* \"Desktop/solidity/Graph.sol\":1003:1010  visited */\n      dup1\n        /* \"Desktop/solidity/Graph.sol\":1003:1018  visited[nodeId] */\n      0x00\n        /* \"Desktop/solidity/Graph.sol\":1011:1017  nodeId */\n      dup5\n        /* \"Desktop/solidity/Graph.sol\":1003:1018  visited[nodeId] */\n      dup2\n      mstore\n      0x20\n      add\n      swap1\n      dup2\n      mstore\n      0x20\n      add\n      0x00\n      keccak256\n      0x00\n        /* \"Desktop/solidity/Graph.sol\":1003:1026  visited[nodeId] = false */\n      0x0100\n      exp\n      dup2\n      sload\n      dup2\n      0xff\n      mul\n      not\n      and\n      swap1\n      dup4\n      iszero\n      iszero\n      mul\n      or\n      swap1\n      sstore\n      pop\n        /* \"Desktop/solidity/Graph.sol\":1037:1046  allNodeId */\n      0x04\n        /* \"Desktop/solidity/Graph.sol\":1052:1058  nodeId */\n      dup3\n        /* \"Desktop/solidity/Graph.sol\":1037:1059  allNodeId.push(nodeId) */\n      swap1\n      dup1\n      0x01\n      dup2\n      sload\n      add\n      dup1\n      dup3\n      sstore\n      dup1\n      swap2\n      pop\n      pop\n      0x01\n      swap1\n      sub\n      swap1\n      0x00\n      mstore\n      keccak256(0x00, 0x20)\n      add\n      0x00\n      swap1\n      swap2\n      swap1\n      swap2\n      swap1\n      swap2\n      pop\n      sstore\n        /* \"Desktop/solidity/Graph.sol\":685:1067  function addVertext(uint256 nodeId, string memory nodeName) external {... */\n      pop\n      pop\n      jump\t// out\n        /* \"Desktop/solidity/Graph.sol\":2461:2964  function DFS(uint256 start) external returns (uint256[] memory) {... */\n    tag_28:\n        /* \"Desktop/solidity/Graph.sol\":2507:2523  uint256[] memory */\n      0x60\n        /* \"Desktop/solidity/Graph.sol\":2602:2613  setFaulse() */\n      tag_150\n        /* \"Desktop/solidity/Graph.sol\":2602:2611  setFaulse */\n      tag_32\n        /* \"Desktop/solidity/Graph.sol\":2602:2613  setFaulse() */\n      jump\t// in\n    tag_150:\n        /* \"Desktop/solidity/Graph.sol\":2641:2650  DFSresult */\n      0x03\n      0x00\n        /* \"Desktop/solidity/Graph.sol\":2634:2650  delete DFSresult */\n      tag_151\n      swap2\n      swap1\n      tag_34\n      jump\t// in\n    tag_151:\n        /* \"Desktop/solidity/Graph.sol\":2661:2666  stack */\n      0x01\n        /* \"Desktop/solidity/Graph.sol\":2672:2677  start */\n      dup3\n        /* \"Desktop/solidity/Graph.sol\":2661:2678  stack.push(start) */\n      swap1\n      dup1\n      0x01\n      dup2\n      sload\n      add\n      dup1\n      dup3\n      sstore\n      dup1\n      swap2\n      pop\n      pop\n      0x01\n      swap1\n      sub\n      swap1\n      0x00\n      mstore\n      keccak256(0x00, 0x20)\n      add\n      0x00\n      swap1\n      swap2\n      swap1\n      swap2\n      swap1\n      swap2\n      pop\n      sstore\n        /* \"Desktop/solidity/Graph.sol\":2706:2710  true */\n      0x01\n        /* \"Desktop/solidity/Graph.sol\":2689:2696  visited */\n      0x00\n        /* \"Desktop/solidity/Graph.sol\":2689:2703  visited[start] */\n      dup1\n        /* \"Desktop/solidity/Graph.sol\":2697:2702  start */\n      dup5\n        /* \"Desktop/solidity/Graph.sol\":2689:2703  visited[start] */\n      dup2\n      mstore\n      0x20\n      add\n      swap1\n      dup2\n      mstore\n      0x20\n      add\n      0x00\n      keccak256\n      0x00\n        /* \"Desktop/solidity/Graph.sol\":2689:2710  visited[start] = true */\n      0x0100\n      exp\n      dup2\n      sload\n      dup2\n      0xff\n      mul\n      not\n      and\n      swap1\n      dup4\n      iszero\n      iszero\n      mul\n      or\n      swap1\n      sstore\n      pop\n        /* \"Desktop/solidity/Graph.sol\":2721:2920  while (stack.length != 0) {... */\n    tag_153:\n        /* \"Desktop/solidity/Graph.sol\":2744:2745  0 */\n      0x00\n        /* \"Desktop/solidity/Graph.sol\":2728:2733  stack */\n      0x01\n        /* \"Desktop/solidity/Graph.sol\":2728:2740  stack.length */\n      dup1\n      sload\n      swap1\n      pop\n        /* \"Desktop/solidity/Graph.sol\":2728:2745  stack.length != 0 */\n      eq\n        /* \"Desktop/solidity/Graph.sol\":2721:2920  while (stack.length != 0) {... */\n      tag_154\n      jumpi\n        /* \"Desktop/solidity/Graph.sol\":2762:2780  uint256 topElement */\n      0x00\n        /* \"Desktop/solidity/Graph.sol\":2783:2788  stack */\n      0x01\n        /* \"Desktop/solidity/Graph.sol\":2804:2805  1 */\n      dup1\n        /* \"Desktop/solidity/Graph.sol\":2789:2794  stack */\n      dup1\n        /* \"Desktop/solidity/Graph.sol\":2789:2801  stack.length */\n      dup1\n      sload\n      swap1\n      pop\n        /* \"Desktop/solidity/Graph.sol\":2789:2805  stack.length - 1 */\n      tag_155\n      swap2\n      swap1\n      tag_53\n      jump\t// in\n    tag_155:\n        /* \"Desktop/solidity/Graph.sol\":2783:2806  stack[stack.length - 1] */\n      dup2\n      sload\n      dup2\n      lt\n      tag_156\n      jumpi\n      tag_157\n      tag_44\n      jump\t// in\n    tag_157:\n    tag_156:\n      swap1\n      0x00\n      mstore\n      keccak256(0x00, 0x20)\n      add\n      sload\n        /* \"Desktop/solidity/Graph.sol\":2762:2806  uint256 topElement = stack[stack.length - 1] */\n      swap1\n      pop\n        /* \"Desktop/solidity/Graph.sol\":2821:2826  stack */\n      0x01\n        /* \"Desktop/solidity/Graph.sol\":2821:2832  stack.pop() */\n      dup1\n      sload\n      dup1\n      tag_159\n      jumpi\n      tag_160\n      tag_66\n      jump\t// in\n    tag_160:\n    tag_159:\n      0x01\n      swap1\n      sub\n      dup2\n      dup2\n      swap1\n      0x00\n      mstore\n      keccak256(0x00, 0x20)\n      add\n      0x00\n      swap1\n      sstore\n      swap1\n      sstore\n        /* \"Desktop/solidity/Graph.sol\":2847:2856  DFSresult */\n      0x03\n        /* \"Desktop/solidity/Graph.sol\":2862:2872  topElement */\n      dup2\n        /* \"Desktop/solidity/Graph.sol\":2847:2873  DFSresult.push(topElement) */\n      swap1\n      dup1\n      0x01\n      dup2\n      sload\n      add\n      dup1\n      dup3\n      sstore\n      dup1\n      swap2\n      pop\n      pop\n      0x01\n      swap1\n      sub\n      swap1\n      0x00\n      mstore\n      keccak256(0x00, 0x20)\n      add\n      0x00\n      swap1\n      swap2\n      swap1\n      swap2\n      swap1\n      swap2\n      pop\n      sstore\n        /* \"Desktop/solidity/Graph.sol\":2888:2908  DFSSerch(topElement) */\n      tag_163\n        /* \"Desktop/solidity/Graph.sol\":2897:2907  topElement */\n      dup2\n        /* \"Desktop/solidity/Graph.sol\":2888:2896  DFSSerch */\n      tag_164\n        /* \"Desktop/solidity/Graph.sol\":2888:2908  DFSSerch(topElement) */\n      jump\t// in\n    tag_163:\n        /* \"Desktop/solidity/Graph.sol\":2747:2920  {... */\n      pop\n        /* \"Desktop/solidity/Graph.sol\":2721:2920  while (stack.length != 0) {... */\n      jump(tag_153)\n    tag_154:\n        /* \"Desktop/solidity/Graph.sol\":2937:2946  DFSresult */\n      0x03\n        /* \"Desktop/solidity/Graph.sol\":2930:2946  return DFSresult */\n      dup1\n      sload\n      dup1\n      0x20\n      mul\n      0x20\n      add\n      mload(0x40)\n      swap1\n      dup2\n      add\n      0x40\n      mstore\n      dup1\n      swap3\n      swap2\n      swap1\n      dup2\n      dup2\n      mstore\n      0x20\n      add\n      dup3\n      dup1\n      sload\n      dup1\n      iszero\n      tag_165\n      jumpi\n      0x20\n      mul\n      dup3\n      add\n      swap2\n      swap1\n      0x00\n      mstore\n      keccak256(0x00, 0x20)\n      swap1\n    tag_166:\n      dup2\n      sload\n      dup2\n      mstore\n      0x20\n      add\n      swap1\n      0x01\n      add\n      swap1\n      dup1\n      dup4\n      gt\n      tag_166\n      jumpi\n    tag_165:\n      pop\n      pop\n      pop\n      pop\n      pop\n      swap1\n      pop\n        /* \"Desktop/solidity/Graph.sol\":2461:2964  function DFS(uint256 start) external returns (uint256[] memory) {... */\n      swap2\n      swap1\n      pop\n      jump\t// out\n        /* \"Desktop/solidity/Graph.sol\":4672:4899  function setFaulse() private {... */\n    tag_32:\n        /* \"Desktop/solidity/Graph.sol\":4717:4726  uint256 i */\n      0x00\n        /* \"Desktop/solidity/Graph.sol\":4712:4892  for (uint256 i = 0; i < graph.nodeCount; i++) {... */\n    tag_168:\n        /* \"Desktop/solidity/Graph.sol\":4736:4741  graph */\n      0x0b\n        /* \"Desktop/solidity/Graph.sol\":4736:4751  graph.nodeCount */\n      0x01\n      add\n      sload\n        /* \"Desktop/solidity/Graph.sol\":4732:4733  i */\n      dup2\n        /* \"Desktop/solidity/Graph.sol\":4732:4751  i < graph.nodeCount */\n      lt\n        /* \"Desktop/solidity/Graph.sol\":4712:4892  for (uint256 i = 0; i < graph.nodeCount; i++) {... */\n      iszero\n      tag_169\n      jumpi\n        /* \"Desktop/solidity/Graph.sol\":4807:4824  uint256 currentID */\n      0x00\n        /* \"Desktop/solidity/Graph.sol\":4827:4836  allNodeId */\n      0x04\n        /* \"Desktop/solidity/Graph.sol\":4837:4838  i */\n      dup3\n        /* \"Desktop/solidity/Graph.sol\":4827:4839  allNodeId[i] */\n      dup2\n      sload\n      dup2\n      lt\n      tag_171\n      jumpi\n      tag_172\n      tag_44\n      jump\t// in\n    tag_172:\n    tag_171:\n      swap1\n      0x00\n      mstore\n      keccak256(0x00, 0x20)\n      add\n      sload\n        /* \"Desktop/solidity/Graph.sol\":4807:4839  uint256 currentID = allNodeId[i] */\n      swap1\n      pop\n        /* \"Desktop/solidity/Graph.sol\":4875:4880  false */\n      0x00\n        /* \"Desktop/solidity/Graph.sol\":4854:4861  visited */\n      dup1\n        /* \"Desktop/solidity/Graph.sol\":4854:4872  visited[currentID] */\n      0x00\n        /* \"Desktop/solidity/Graph.sol\":4862:4871  currentID */\n      dup4\n        /* \"Desktop/solidity/Graph.sol\":4854:4872  visited[currentID] */\n      dup2\n      mstore\n      0x20\n      add\n      swap1\n      dup2\n      mstore\n      0x20\n      add\n      0x00\n      keccak256\n      0x00\n        /* \"Desktop/solidity/Graph.sol\":4854:4880  visited[currentID] = false */\n      0x0100\n      exp\n      dup2\n      sload\n      dup2\n      0xff\n      mul\n      not\n      and\n      swap1\n      dup4\n      iszero\n      iszero\n      mul\n      or\n      swap1\n      sstore\n      pop\n        /* \"Desktop/solidity/Graph.sol\":4758:4892  {... */\n      pop\n        /* \"Desktop/solidity/Graph.sol\":4753:4756  i++ */\n      dup1\n      dup1\n      tag_174\n      swap1\n      tag_63\n      jump\t// in\n    tag_174:\n      swap2\n      pop\n      pop\n        /* \"Desktop/solidity/Graph.sol\":4712:4892  for (uint256 i = 0; i < graph.nodeCount; i++) {... */\n      jump(tag_168)\n    tag_169:\n      pop\n        /* \"Desktop/solidity/Graph.sol\":4672:4899  function setFaulse() private {... */\n      jump\t// out\n        /* \"Desktop/solidity/Graph.sol\":4249:4664  function BFSserch(uint256 start) private {... */\n    tag_70:\n        /* \"Desktop/solidity/Graph.sol\":4343:4352  uint256 i */\n      0x00\n        /* \"Desktop/solidity/Graph.sol\":4338:4657  for (uint256 i = 0; i < graph.nodes[start].neighbors.length; i++) {... */\n    tag_176:\n        /* \"Desktop/solidity/Graph.sol\":4362:4367  graph */\n      0x0b\n        /* \"Desktop/solidity/Graph.sol\":4362:4373  graph.nodes */\n      0x00\n      add\n        /* \"Desktop/solidity/Graph.sol\":4362:4380  graph.nodes[start] */\n      0x00\n        /* \"Desktop/solidity/Graph.sol\":4374:4379  start */\n      dup4\n        /* \"Desktop/solidity/Graph.sol\":4362:4380  graph.nodes[start] */\n      dup2\n      mstore\n      0x20\n      add\n      swap1\n      dup2\n      mstore\n      0x20\n      add\n      0x00\n      keccak256\n        /* \"Desktop/solidity/Graph.sol\":4362:4390  graph.nodes[start].neighbors */\n      0x02\n      add\n        /* \"Desktop/solidity/Graph.sol\":4362:4397  graph.nodes[start].neighbors.length */\n      dup1\n      sload\n      swap1\n      pop\n        /* \"Desktop/solidity/Graph.sol\":4358:4359  i */\n      dup2\n        /* \"Desktop/solidity/Graph.sol\":4358:4397  i < graph.nodes[start].neighbors.length */\n      lt\n        /* \"Desktop/solidity/Graph.sol\":4338:4657  for (uint256 i = 0; i < graph.nodes[start].neighbors.length; i++) {... */\n      iszero\n      tag_177\n      jumpi\n        /* \"Desktop/solidity/Graph.sol\":4419:4428  uint256 v */\n      0x00\n        /* \"Desktop/solidity/Graph.sol\":4431:4436  graph */\n      0x0b\n        /* \"Desktop/solidity/Graph.sol\":4431:4442  graph.nodes */\n      0x00\n      add\n        /* \"Desktop/solidity/Graph.sol\":4431:4449  graph.nodes[start] */\n      0x00\n        /* \"Desktop/solidity/Graph.sol\":4443:4448  start */\n      dup5\n        /* \"Desktop/solidity/Graph.sol\":4431:4449  graph.nodes[start] */\n      dup2\n      mstore\n      0x20\n      add\n      swap1\n      dup2\n      mstore\n      0x20\n      add\n      0x00\n      keccak256\n        /* \"Desktop/solidity/Graph.sol\":4431:4459  graph.nodes[start].neighbors */\n      0x02\n      add\n        /* \"Desktop/solidity/Graph.sol\":4460:4461  i */\n      dup3\n        /* \"Desktop/solidity/Graph.sol\":4431:4462  graph.nodes[start].neighbors[i] */\n      dup2\n      sload\n      dup2\n      lt\n      tag_179\n      jumpi\n      tag_180\n      tag_44\n      jump\t// in\n    tag_180:\n    tag_179:\n      swap1\n      0x00\n      mstore\n      keccak256(0x00, 0x20)\n      add\n      sload\n        /* \"Desktop/solidity/Graph.sol\":4419:4462  uint256 v = graph.nodes[start].neighbors[i] */\n      swap1\n      pop\n        /* \"Desktop/solidity/Graph.sol\":4482:4489  visited */\n      0x00\n        /* \"Desktop/solidity/Graph.sol\":4482:4492  visited[v] */\n      dup1\n        /* \"Desktop/solidity/Graph.sol\":4490:4491  v */\n      dup3\n        /* \"Desktop/solidity/Graph.sol\":4482:4492  visited[v] */\n      dup2\n      mstore\n      0x20\n      add\n      swap1\n      dup2\n      mstore\n      0x20\n      add\n      0x00\n      keccak256\n      0x00\n      swap1\n      sload\n      swap1\n      0x0100\n      exp\n      swap1\n      div\n      0xff\n      and\n        /* \"Desktop/solidity/Graph.sol\":4477:4646  if (!visited[v]) {... */\n      tag_182\n      jumpi\n        /* \"Desktop/solidity/Graph.sol\":4513:4518  queue */\n      0x02\n        /* \"Desktop/solidity/Graph.sol\":4524:4525  v */\n      dup2\n        /* \"Desktop/solidity/Graph.sol\":4513:4526  queue.push(v) */\n      swap1\n      dup1\n      0x01\n      dup2\n      sload\n      add\n      dup1\n      dup3\n      sstore\n      dup1\n      swap2\n      pop\n      pop\n      0x01\n      swap1\n      sub\n      swap1\n      0x00\n      mstore\n      keccak256(0x00, 0x20)\n      add\n      0x00\n      swap1\n      swap2\n      swap1\n      swap2\n      swap1\n      swap2\n      pop\n      sstore\n        /* \"Desktop/solidity/Graph.sol\":4545:4551  pathID */\n      0x07\n        /* \"Desktop/solidity/Graph.sol\":4557:4558  v */\n      dup2\n        /* \"Desktop/solidity/Graph.sol\":4545:4559  pathID.push(v) */\n      swap1\n      dup1\n      0x01\n      dup2\n      sload\n      add\n      dup1\n      dup3\n      sstore\n      dup1\n      swap2\n      pop\n      pop\n      0x01\n      swap1\n      sub\n      swap1\n      0x00\n      mstore\n      keccak256(0x00, 0x20)\n      add\n      0x00\n      swap1\n      swap2\n      swap1\n      swap2\n      swap1\n      swap2\n      pop\n      sstore\n        /* \"Desktop/solidity/Graph.sol\":4591:4595  true */\n      0x01\n        /* \"Desktop/solidity/Graph.sol\":4578:4585  visited */\n      0x00\n        /* \"Desktop/solidity/Graph.sol\":4578:4588  visited[v] */\n      dup1\n        /* \"Desktop/solidity/Graph.sol\":4586:4587  v */\n      dup4\n        /* \"Desktop/solidity/Graph.sol\":4578:4588  visited[v] */\n      dup2\n      mstore\n      0x20\n      add\n      swap1\n      dup2\n      mstore\n      0x20\n      add\n      0x00\n      keccak256\n      0x00\n        /* \"Desktop/solidity/Graph.sol\":4578:4595  visited[v] = true */\n      0x0100\n      exp\n      dup2\n      sload\n      dup2\n      0xff\n      mul\n      not\n      and\n      swap1\n      dup4\n      iszero\n      iszero\n      mul\n      or\n      swap1\n      sstore\n      pop\n        /* \"Desktop/solidity/Graph.sol\":4614:4618  path */\n      0x06\n        /* \"Desktop/solidity/Graph.sol\":4624:4629  route */\n      sload(0x0a)\n        /* \"Desktop/solidity/Graph.sol\":4614:4630  path.push(route) */\n      swap1\n      dup1\n      0x01\n      dup2\n      sload\n      add\n      dup1\n      dup3\n      sstore\n      dup1\n      swap2\n      pop\n      pop\n      0x01\n      swap1\n      sub\n      swap1\n      0x00\n      mstore\n      keccak256(0x00, 0x20)\n      add\n      0x00\n      swap1\n      swap2\n      swap1\n      swap2\n      swap1\n      swap2\n      pop\n      sstore\n        /* \"Desktop/solidity/Graph.sol\":4477:4646  if (!visited[v]) {... */\n    tag_182:\n        /* \"Desktop/solidity/Graph.sol\":4404:4657  {... */\n      pop\n        /* \"Desktop/solidity/Graph.sol\":4399:4402  i++ */\n      dup1\n      dup1\n      tag_186\n      swap1\n      tag_63\n      jump\t// in\n    tag_186:\n      swap2\n      pop\n      pop\n        /* \"Desktop/solidity/Graph.sol\":4338:4657  for (uint256 i = 0; i < graph.nodes[start].neighbors.length; i++) {... */\n      jump(tag_176)\n    tag_177:\n      pop\n        /* \"Desktop/solidity/Graph.sol\":4249:4664  function BFSserch(uint256 start) private {... */\n      pop\n      jump\t// out\n        /* \"Desktop/solidity/Graph.sol\":3930:4241  function DFSSerch(uint256 start) private { ... */\n    tag_164:\n        /* \"Desktop/solidity/Graph.sol\":3988:3997  uint256 i */\n      0x00\n        /* \"Desktop/solidity/Graph.sol\":3983:4234  for (uint256 i = 0; i < graph.nodes[start].neighbors.length; i++) {... */\n    tag_188:\n        /* \"Desktop/solidity/Graph.sol\":4007:4012  graph */\n      0x0b\n        /* \"Desktop/solidity/Graph.sol\":4007:4018  graph.nodes */\n      0x00\n      add\n        /* \"Desktop/solidity/Graph.sol\":4007:4025  graph.nodes[start] */\n      0x00\n        /* \"Desktop/solidity/Graph.sol\":4019:4024  start */\n      dup4\n        /* \"Desktop/solidity/Graph.sol\":4007:4025  graph.nodes[start] */\n      dup2\n      mstore\n      0x20\n      add\n      swap1\n      dup2\n      mstore\n      0x20\n      add\n      0x00\n      keccak256\n        /* \"Desktop/solidity/Graph.sol\":4007:4035  graph.nodes[start].neighbors */\n      0x02\n      add\n        /* \"Desktop/solidity/Graph.sol\":4007:4042  graph.nodes[start].neighbors.length */\n      dup1\n      sload\n      swap1\n      pop\n        /* \"Desktop/solidity/Graph.sol\":4003:4004  i */\n      dup2\n        /* \"Desktop/solidity/Graph.sol\":4003:4042  i < graph.nodes[start].neighbors.length */\n      lt\n        /* \"Desktop/solidity/Graph.sol\":3983:4234  for (uint256 i = 0; i < graph.nodes[start].neighbors.length; i++) {... */\n      iszero\n      tag_189\n      jumpi\n        /* \"Desktop/solidity/Graph.sol\":4064:4073  uint256 v */\n      0x00\n        /* \"Desktop/solidity/Graph.sol\":4076:4081  graph */\n      0x0b\n        /* \"Desktop/solidity/Graph.sol\":4076:4087  graph.nodes */\n      0x00\n      add\n        /* \"Desktop/solidity/Graph.sol\":4076:4094  graph.nodes[start] */\n      0x00\n        /* \"Desktop/solidity/Graph.sol\":4088:4093  start */\n      dup5\n        /* \"Desktop/solidity/Graph.sol\":4076:4094  graph.nodes[start] */\n      dup2\n      mstore\n      0x20\n      add\n      swap1\n      dup2\n      mstore\n      0x20\n      add\n      0x00\n      keccak256\n        /* \"Desktop/solidity/Graph.sol\":4076:4104  graph.nodes[start].neighbors */\n      0x02\n      add\n        /* \"Desktop/solidity/Graph.sol\":4105:4106  i */\n      dup3\n        /* \"Desktop/solidity/Graph.sol\":4076:4107  graph.nodes[start].neighbors[i] */\n      dup2\n      sload\n      dup2\n      lt\n      tag_191\n      jumpi\n      tag_192\n      tag_44\n      jump\t// in\n    tag_192:\n    tag_191:\n      swap1\n      0x00\n      mstore\n      keccak256(0x00, 0x20)\n      add\n      sload\n        /* \"Desktop/solidity/Graph.sol\":4064:4107  uint256 v = graph.nodes[start].neighbors[i] */\n      swap1\n      pop\n        /* \"Desktop/solidity/Graph.sol\":4127:4134  visited */\n      0x00\n        /* \"Desktop/solidity/Graph.sol\":4127:4137  visited[v] */\n      dup1\n        /* \"Desktop/solidity/Graph.sol\":4135:4136  v */\n      dup3\n        /* \"Desktop/solidity/Graph.sol\":4127:4137  visited[v] */\n      dup2\n      mstore\n      0x20\n      add\n      swap1\n      dup2\n      mstore\n      0x20\n      add\n      0x00\n      keccak256\n      0x00\n      swap1\n      sload\n      swap1\n      0x0100\n      exp\n      swap1\n      div\n      0xff\n      and\n        /* \"Desktop/solidity/Graph.sol\":4122:4223  if (!visited[v]) {... */\n      tag_194\n      jumpi\n        /* \"Desktop/solidity/Graph.sol\":4158:4163  stack */\n      0x01\n        /* \"Desktop/solidity/Graph.sol\":4169:4170  v */\n      dup2\n        /* \"Desktop/solidity/Graph.sol\":4158:4171  stack.push(v) */\n      swap1\n      dup1\n      0x01\n      dup2\n      sload\n      add\n      dup1\n      dup3\n      sstore\n      dup1\n      swap2\n      pop\n      pop\n      0x01\n      swap1\n      sub\n      swap1\n      0x00\n      mstore\n      keccak256(0x00, 0x20)\n      add\n      0x00\n      swap1\n      swap2\n      swap1\n      swap2\n      swap1\n      swap2\n      pop\n      sstore\n        /* \"Desktop/solidity/Graph.sol\":4203:4207  true */\n      0x01\n        /* \"Desktop/solidity/Graph.sol\":4190:4197  visited */\n      0x00\n        /* \"Desktop/solidity/Graph.sol\":4190:4200  visited[v] */\n      dup1\n        /* \"Desktop/solidity/Graph.sol\":4198:4199  v */\n      dup4\n        /* \"Desktop/solidity/Graph.sol\":4190:4200  visited[v] */\n      dup2\n      mstore\n      0x20\n      add\n      swap1\n      dup2\n      mstore\n      0x20\n      add\n      0x00\n      keccak256\n      0x00\n        /* \"Desktop/solidity/Graph.sol\":4190:4207  visited[v] = true */\n      0x0100\n      exp\n      dup2\n      sload\n      dup2\n      0xff\n      mul\n      not\n      and\n      swap1\n      dup4\n      iszero\n      iszero\n      mul\n      or\n      swap1\n      sstore\n      pop\n        /* \"Desktop/solidity/Graph.sol\":4122:4223  if (!visited[v]) {... */\n    tag_194:\n        /* \"Desktop/solidity/Graph.sol\":4049:4234  {... */\n      pop\n        /* \"Desktop/solidity/Graph.sol\":4044:4047  i++ */\n      dup1\n      dup1\n      tag_196\n      swap1\n      tag_63\n      jump\t// in\n    tag_196:\n      swap2\n      pop\n      pop\n        /* \"Desktop/solidity/Graph.sol\":3983:4234  for (uint256 i = 0; i < graph.nodes[start].neighbors.length; i++) {... */\n      jump(tag_188)\n    tag_189:\n      pop\n        /* \"Desktop/solidity/Graph.sol\":3930:4241  function DFSSerch(uint256 start) private { ... */\n      pop\n      jump\t// out\n    tag_34:\n      pop\n      dup1\n      sload\n      0x00\n      dup3\n      sstore\n      swap1\n      0x00\n      mstore\n      keccak256(0x00, 0x20)\n      swap1\n      dup2\n      add\n      swap1\n      tag_198\n      swap2\n      swap1\n      tag_199\n      jump\t// in\n    tag_198:\n      pop\n      jump\t// out\n    tag_146:\n      dup3\n      dup1\n      sload\n      dup3\n      dup3\n      sstore\n      swap1\n      0x00\n      mstore\n      keccak256(0x00, 0x20)\n      swap1\n      dup2\n      add\n      swap3\n      dup3\n      iszero\n      tag_200\n      jumpi\n      swap2\n      0x20\n      mul\n      dup3\n      add\n    tag_201:\n      dup3\n      dup2\n      gt\n      iszero\n      tag_202\n      jumpi\n      dup3\n      mload\n      dup3\n      sstore\n      swap2\n      0x20\n      add\n      swap2\n      swap1\n      0x01\n      add\n      swap1\n      jump(tag_201)\n    tag_202:\n    tag_200:\n      pop\n      swap1\n      pop\n      tag_203\n      swap2\n      swap1\n      tag_199\n      jump\t// in\n    tag_203:\n      pop\n      swap1\n      jump\t// out\n    tag_199:\n    tag_204:\n      dup1\n      dup3\n      gt\n      iszero\n      tag_205\n      jumpi\n      0x00\n      dup2\n      0x00\n      swap1\n      sstore\n      pop\n      0x01\n      add\n      jump(tag_204)\n    tag_205:\n      pop\n      swap1\n      jump\t// out\n        /* \"#utility.yul\":7:82   */\n    tag_206:\n        /* \"#utility.yul\":40:46   */\n      0x00\n        /* \"#utility.yul\":73:75   */\n      0x40\n        /* \"#utility.yul\":67:76   */\n      mload\n        /* \"#utility.yul\":57:76   */\n      swap1\n      pop\n        /* \"#utility.yul\":7:82   */\n      swap1\n      jump\t// out\n        /* \"#utility.yul\":88:205   */\n    tag_207:\n        /* \"#utility.yul\":197:198   */\n      0x00\n        /* \"#utility.yul\":194:195   */\n      dup1\n        /* \"#utility.yul\":187:199   */\n      revert\n        /* \"#utility.yul\":211:328   */\n    tag_208:\n        /* \"#utility.yul\":320:321   */\n      0x00\n        /* \"#utility.yul\":317:318   */\n      dup1\n        /* \"#utility.yul\":310:322   */\n      revert\n        /* \"#utility.yul\":334:411   */\n    tag_209:\n        /* \"#utility.yul\":371:378   */\n      0x00\n        /* \"#utility.yul\":400:405   */\n      dup2\n        /* \"#utility.yul\":389:405   */\n      swap1\n      pop\n        /* \"#utility.yul\":334:411   */\n      swap2\n      swap1\n      pop\n      jump\t// out\n        /* \"#utility.yul\":417:539   */\n    tag_210:\n        /* \"#utility.yul\":490:514   */\n      tag_263\n        /* \"#utility.yul\":508:513   */\n      dup2\n        /* \"#utility.yul\":490:514   */\n      tag_209\n      jump\t// in\n    tag_263:\n        /* \"#utility.yul\":483:488   */\n      dup2\n        /* \"#utility.yul\":480:515   */\n      eq\n        /* \"#utility.yul\":470:533   */\n      tag_264\n      jumpi\n        /* \"#utility.yul\":529:530   */\n      0x00\n        /* \"#utility.yul\":526:527   */\n      dup1\n        /* \"#utility.yul\":519:531   */\n      revert\n        /* \"#utility.yul\":470:533   */\n    tag_264:\n        /* \"#utility.yul\":417:539   */\n      pop\n      jump\t// out\n        /* \"#utility.yul\":545:684   */\n    tag_211:\n        /* \"#utility.yul\":591:596   */\n      0x00\n        /* \"#utility.yul\":629:635   */\n      dup2\n        /* \"#utility.yul\":616:636   */\n      calldataload\n        /* \"#utility.yul\":607:636   */\n      swap1\n      pop\n        /* \"#utility.yul\":645:678   */\n      tag_266\n        /* \"#utility.yul\":672:677   */\n      dup2\n        /* \"#utility.yul\":645:678   */\n      tag_210\n      jump\t// in\n    tag_266:\n        /* \"#utility.yul\":545:684   */\n      swap3\n      swap2\n      pop\n      pop\n      jump\t// out\n        /* \"#utility.yul\":690:1019   */\n    tag_10:\n        /* \"#utility.yul\":749:755   */\n      0x00\n        /* \"#utility.yul\":798:800   */\n      0x20\n        /* \"#utility.yul\":786:795   */\n      dup3\n        /* \"#utility.yul\":777:784   */\n      dup5\n        /* \"#utility.yul\":773:796   */\n      sub\n        /* \"#utility.yul\":769:801   */\n      slt\n        /* \"#utility.yul\":766:885   */\n      iszero\n      tag_268\n      jumpi\n        /* \"#utility.yul\":804:883   */\n      tag_269\n      tag_207\n      jump\t// in\n    tag_269:\n        /* \"#utility.yul\":766:885   */\n    tag_268:\n        /* \"#utility.yul\":924:925   */\n      0x00\n        /* \"#utility.yul\":949:1002   */\n      tag_270\n        /* \"#utility.yul\":994:1001   */\n      dup5\n        /* \"#utility.yul\":985:991   */\n      dup3\n        /* \"#utility.yul\":974:983   */\n      dup6\n        /* \"#utility.yul\":970:992   */\n      add\n        /* \"#utility.yul\":949:1002   */\n      tag_211\n      jump\t// in\n    tag_270:\n        /* \"#utility.yul\":939:1002   */\n      swap2\n      pop\n        /* \"#utility.yul\":895:1012   */\n      pop\n        /* \"#utility.yul\":690:1019   */\n      swap3\n      swap2\n      pop\n      pop\n      jump\t// out\n        /* \"#utility.yul\":1025:1139   */\n    tag_212:\n        /* \"#utility.yul\":1092:1098   */\n      0x00\n        /* \"#utility.yul\":1126:1131   */\n      dup2\n        /* \"#utility.yul\":1120:1132   */\n      mload\n        /* \"#utility.yul\":1110:1132   */\n      swap1\n      pop\n        /* \"#utility.yul\":1025:1139   */\n      swap2\n      swap1\n      pop\n      jump\t// out\n        /* \"#utility.yul\":1145:1329   */\n    tag_213:\n        /* \"#utility.yul\":1244:1255   */\n      0x00\n        /* \"#utility.yul\":1278:1284   */\n      dup3\n        /* \"#utility.yul\":1273:1276   */\n      dup3\n        /* \"#utility.yul\":1266:1285   */\n      mstore\n        /* \"#utility.yul\":1318:1322   */\n      0x20\n        /* \"#utility.yul\":1313:1316   */\n      dup3\n        /* \"#utility.yul\":1309:1323   */\n      add\n        /* \"#utility.yul\":1294:1323   */\n      swap1\n      pop\n        /* \"#utility.yul\":1145:1329   */\n      swap3\n      swap2\n      pop\n      pop\n      jump\t// out\n        /* \"#utility.yul\":1335:1467   */\n    tag_214:\n        /* \"#utility.yul\":1402:1406   */\n      0x00\n        /* \"#utility.yul\":1425:1428   */\n      dup2\n        /* \"#utility.yul\":1417:1428   */\n      swap1\n      pop\n        /* \"#utility.yul\":1455:1459   */\n      0x20\n        /* \"#utility.yul\":1450:1453   */\n      dup3\n        /* \"#utility.yul\":1446:1460   */\n      add\n        /* \"#utility.yul\":1438:1460   */\n      swap1\n      pop\n        /* \"#utility.yul\":1335:1467   */\n      swap2\n      swap1\n      pop\n      jump\t// out\n        /* \"#utility.yul\":1473:1581   */\n    tag_215:\n        /* \"#utility.yul\":1550:1574   */\n      tag_275\n        /* \"#utility.yul\":1568:1573   */\n      dup2\n        /* \"#utility.yul\":1550:1574   */\n      tag_209\n      jump\t// in\n    tag_275:\n        /* \"#utility.yul\":1545:1548   */\n      dup3\n        /* \"#utility.yul\":1538:1575   */\n      mstore\n        /* \"#utility.yul\":1473:1581   */\n      pop\n      pop\n      jump\t// out\n        /* \"#utility.yul\":1587:1766   */\n    tag_216:\n        /* \"#utility.yul\":1656:1666   */\n      0x00\n        /* \"#utility.yul\":1677:1723   */\n      tag_277\n        /* \"#utility.yul\":1719:1722   */\n      dup4\n        /* \"#utility.yul\":1711:1717   */\n      dup4\n        /* \"#utility.yul\":1677:1723   */\n      tag_215\n      jump\t// in\n    tag_277:\n        /* \"#utility.yul\":1755:1759   */\n      0x20\n        /* \"#utility.yul\":1750:1753   */\n      dup4\n        /* \"#utility.yul\":1746:1760   */\n      add\n        /* \"#utility.yul\":1732:1760   */\n      swap1\n      pop\n        /* \"#utility.yul\":1587:1766   */\n      swap3\n      swap2\n      pop\n      pop\n      jump\t// out\n        /* \"#utility.yul\":1772:1885   */\n    tag_217:\n        /* \"#utility.yul\":1842:1846   */\n      0x00\n        /* \"#utility.yul\":1874:1878   */\n      0x20\n        /* \"#utility.yul\":1869:1872   */\n      dup3\n        /* \"#utility.yul\":1865:1879   */\n      add\n        /* \"#utility.yul\":1857:1879   */\n      swap1\n      pop\n        /* \"#utility.yul\":1772:1885   */\n      swap2\n      swap1\n      pop\n      jump\t// out\n        /* \"#utility.yul\":1921:2653   */\n    tag_218:\n        /* \"#utility.yul\":2040:2043   */\n      0x00\n        /* \"#utility.yul\":2069:2123   */\n      tag_280\n        /* \"#utility.yul\":2117:2122   */\n      dup3\n        /* \"#utility.yul\":2069:2123   */\n      tag_212\n      jump\t// in\n    tag_280:\n        /* \"#utility.yul\":2139:2225   */\n      tag_281\n        /* \"#utility.yul\":2218:2224   */\n      dup2\n        /* \"#utility.yul\":2213:2216   */\n      dup6\n        /* \"#utility.yul\":2139:2225   */\n      tag_213\n      jump\t// in\n    tag_281:\n        /* \"#utility.yul\":2132:2225   */\n      swap4\n      pop\n        /* \"#utility.yul\":2249:2305   */\n      tag_282\n        /* \"#utility.yul\":2299:2304   */\n      dup4\n        /* \"#utility.yul\":2249:2305   */\n      tag_214\n      jump\t// in\n    tag_282:\n        /* \"#utility.yul\":2328:2335   */\n      dup1\n        /* \"#utility.yul\":2359:2360   */\n      0x00\n        /* \"#utility.yul\":2344:2628   */\n    tag_283:\n        /* \"#utility.yul\":2369:2375   */\n      dup4\n        /* \"#utility.yul\":2366:2367   */\n      dup2\n        /* \"#utility.yul\":2363:2376   */\n      lt\n        /* \"#utility.yul\":2344:2628   */\n      iszero\n      tag_285\n      jumpi\n        /* \"#utility.yul\":2445:2451   */\n      dup2\n        /* \"#utility.yul\":2439:2452   */\n      mload\n        /* \"#utility.yul\":2472:2535   */\n      tag_286\n        /* \"#utility.yul\":2531:2534   */\n      dup9\n        /* \"#utility.yul\":2516:2529   */\n      dup3\n        /* \"#utility.yul\":2472:2535   */\n      tag_216\n      jump\t// in\n    tag_286:\n        /* \"#utility.yul\":2465:2535   */\n      swap8\n      pop\n        /* \"#utility.yul\":2558:2618   */\n      tag_287\n        /* \"#utility.yul\":2611:2617   */\n      dup4\n        /* \"#utility.yul\":2558:2618   */\n      tag_217\n      jump\t// in\n    tag_287:\n        /* \"#utility.yul\":2548:2618   */\n      swap3\n      pop\n        /* \"#utility.yul\":2404:2628   */\n      pop\n        /* \"#utility.yul\":2391:2392   */\n      0x01\n        /* \"#utility.yul\":2388:2389   */\n      dup2\n        /* \"#utility.yul\":2384:2393   */\n      add\n        /* \"#utility.yul\":2379:2393   */\n      swap1\n      pop\n        /* \"#utility.yul\":2344:2628   */\n      jump(tag_283)\n    tag_285:\n        /* \"#utility.yul\":2348:2362   */\n      pop\n        /* \"#utility.yul\":2644:2647   */\n      dup6\n        /* \"#utility.yul\":2637:2647   */\n      swap4\n      pop\n        /* \"#utility.yul\":2045:2653   */\n      pop\n      pop\n      pop\n        /* \"#utility.yul\":1921:2653   */\n      swap3\n      swap2\n      pop\n      pop\n      jump\t// out\n        /* \"#utility.yul\":2659:3032   */\n    tag_13:\n        /* \"#utility.yul\":2802:2806   */\n      0x00\n        /* \"#utility.yul\":2840:2842   */\n      0x20\n        /* \"#utility.yul\":2829:2838   */\n      dup3\n        /* \"#utility.yul\":2825:2843   */\n      add\n        /* \"#utility.yul\":2817:2843   */\n      swap1\n      pop\n        /* \"#utility.yul\":2889:2898   */\n      dup2\n        /* \"#utility.yul\":2883:2887   */\n      dup2\n        /* \"#utility.yul\":2879:2899   */\n      sub\n        /* \"#utility.yul\":2875:2876   */\n      0x00\n        /* \"#utility.yul\":2864:2873   */\n      dup4\n        /* \"#utility.yul\":2860:2877   */\n      add\n        /* \"#utility.yul\":2853:2900   */\n      mstore\n        /* \"#utility.yul\":2917:3025   */\n      tag_289\n        /* \"#utility.yul\":3020:3024   */\n      dup2\n        /* \"#utility.yul\":3011:3017   */\n      dup5\n        /* \"#utility.yul\":2917:3025   */\n      tag_218\n      jump\t// in\n    tag_289:\n        /* \"#utility.yul\":2909:3025   */\n      swap1\n      pop\n        /* \"#utility.yul\":2659:3032   */\n      swap3\n      swap2\n      pop\n      pop\n      jump\t// out\n        /* \"#utility.yul\":3038:3512   */\n    tag_16:\n        /* \"#utility.yul\":3106:3112   */\n      0x00\n        /* \"#utility.yul\":3114:3120   */\n      dup1\n        /* \"#utility.yul\":3163:3165   */\n      0x40\n        /* \"#utility.yul\":3151:3160   */\n      dup4\n        /* \"#utility.yul\":3142:3149   */\n      dup6\n        /* \"#utility.yul\":3138:3161   */\n      sub\n        /* \"#utility.yul\":3134:3166   */\n      slt\n        /* \"#utility.yul\":3131:3250   */\n      iszero\n      tag_291\n      jumpi\n        /* \"#utility.yul\":3169:3248   */\n      tag_292\n      tag_207\n      jump\t// in\n    tag_292:\n        /* \"#utility.yul\":3131:3250   */\n    tag_291:\n        /* \"#utility.yul\":3289:3290   */\n      0x00\n        /* \"#utility.yul\":3314:3367   */\n      tag_293\n        /* \"#utility.yul\":3359:3366   */\n      dup6\n        /* \"#utility.yul\":3350:3356   */\n      dup3\n        /* \"#utility.yul\":3339:3348   */\n      dup7\n        /* \"#utility.yul\":3335:3357   */\n      add\n        /* \"#utility.yul\":3314:3367   */\n      tag_211\n      jump\t// in\n    tag_293:\n        /* \"#utility.yul\":3304:3367   */\n      swap3\n      pop\n        /* \"#utility.yul\":3260:3377   */\n      pop\n        /* \"#utility.yul\":3416:3418   */\n      0x20\n        /* \"#utility.yul\":3442:3495   */\n      tag_294\n        /* \"#utility.yul\":3487:3494   */\n      dup6\n        /* \"#utility.yul\":3478:3484   */\n      dup3\n        /* \"#utility.yul\":3467:3476   */\n      dup7\n        /* \"#utility.yul\":3463:3485   */\n      add\n        /* \"#utility.yul\":3442:3495   */\n      tag_211\n      jump\t// in\n    tag_294:\n        /* \"#utility.yul\":3432:3495   */\n      swap2\n      pop\n        /* \"#utility.yul\":3387:3505   */\n      pop\n        /* \"#utility.yul\":3038:3512   */\n      swap3\n      pop\n      swap3\n      swap1\n      pop\n      jump\t// out\n        /* \"#utility.yul\":3518:3635   */\n    tag_219:\n        /* \"#utility.yul\":3627:3628   */\n      0x00\n        /* \"#utility.yul\":3624:3625   */\n      dup1\n        /* \"#utility.yul\":3617:3629   */\n      revert\n        /* \"#utility.yul\":3641:3758   */\n    tag_220:\n        /* \"#utility.yul\":3750:3751   */\n      0x00\n        /* \"#utility.yul\":3747:3748   */\n      dup1\n        /* \"#utility.yul\":3740:3752   */\n      revert\n        /* \"#utility.yul\":3764:3866   */\n    tag_221:\n        /* \"#utility.yul\":3805:3811   */\n      0x00\n        /* \"#utility.yul\":3856:3858   */\n      0x1f\n        /* \"#utility.yul\":3852:3859   */\n      not\n        /* \"#utility.yul\":3847:3849   */\n      0x1f\n        /* \"#utility.yul\":3840:3845   */\n      dup4\n        /* \"#utility.yul\":3836:3850   */\n      add\n        /* \"#utility.yul\":3832:3860   */\n      and\n        /* \"#utility.yul\":3822:3860   */\n      swap1\n      pop\n        /* \"#utility.yul\":3764:3866   */\n      swap2\n      swap1\n      pop\n      jump\t// out\n        /* \"#utility.yul\":3872:4052   */\n    tag_141:\n        /* \"#utility.yul\":3920:3997   */\n      0x4e487b7100000000000000000000000000000000000000000000000000000000\n        /* \"#utility.yul\":3917:3918   */\n      0x00\n        /* \"#utility.yul\":3910:3998   */\n      mstore\n        /* \"#utility.yul\":4017:4021   */\n      0x41\n        /* \"#utility.yul\":4014:4015   */\n      0x04\n        /* \"#utility.yul\":4007:4022   */\n      mstore\n        /* \"#utility.yul\":4041:4045   */\n      0x24\n        /* \"#utility.yul\":4038:4039   */\n      0x00\n        /* \"#utility.yul\":4031:4046   */\n      revert\n        /* \"#utility.yul\":4058:4339   */\n    tag_222:\n        /* \"#utility.yul\":4141:4168   */\n      tag_300\n        /* \"#utility.yul\":4163:4167   */\n      dup3\n        /* \"#utility.yul\":4141:4168   */\n      tag_221\n      jump\t// in\n    tag_300:\n        /* \"#utility.yul\":4133:4139   */\n      dup2\n        /* \"#utility.yul\":4129:4169   */\n      add\n        /* \"#utility.yul\":4271:4277   */\n      dup2\n        /* \"#utility.yul\":4259:4269   */\n      dup2\n        /* \"#utility.yul\":4256:4278   */\n      lt\n        /* \"#utility.yul\":4235:4253   */\n      0xffffffffffffffff\n        /* \"#utility.yul\":4223:4233   */\n      dup3\n        /* \"#utility.yul\":4220:4254   */\n      gt\n        /* \"#utility.yul\":4217:4279   */\n      or\n        /* \"#utility.yul\":4214:4302   */\n      iszero\n      tag_301\n      jumpi\n        /* \"#utility.yul\":4282:4300   */\n      tag_302\n      tag_141\n      jump\t// in\n    tag_302:\n        /* \"#utility.yul\":4214:4302   */\n    tag_301:\n        /* \"#utility.yul\":4322:4332   */\n      dup1\n        /* \"#utility.yul\":4318:4320   */\n      0x40\n        /* \"#utility.yul\":4311:4333   */\n      mstore\n        /* \"#utility.yul\":4101:4339   */\n      pop\n        /* \"#utility.yul\":4058:4339   */\n      pop\n      pop\n      jump\t// out\n        /* \"#utility.yul\":4345:4474   */\n    tag_223:\n        /* \"#utility.yul\":4379:4385   */\n      0x00\n        /* \"#utility.yul\":4406:4426   */\n      tag_304\n      tag_206\n      jump\t// in\n    tag_304:\n        /* \"#utility.yul\":4396:4426   */\n      swap1\n      pop\n        /* \"#utility.yul\":4435:4468   */\n      tag_305\n        /* \"#utility.yul\":4463:4467   */\n      dup3\n        /* \"#utility.yul\":4455:4461   */\n      dup3\n        /* \"#utility.yul\":4435:4468   */\n      tag_222\n      jump\t// in\n    tag_305:\n        /* \"#utility.yul\":4345:4474   */\n      swap2\n      swap1\n      pop\n      jump\t// out\n        /* \"#utility.yul\":4480:4788   */\n    tag_224:\n        /* \"#utility.yul\":4542:4546   */\n      0x00\n        /* \"#utility.yul\":4632:4650   */\n      0xffffffffffffffff\n        /* \"#utility.yul\":4624:4630   */\n      dup3\n        /* \"#utility.yul\":4621:4651   */\n      gt\n        /* \"#utility.yul\":4618:4674   */\n      iszero\n      tag_307\n      jumpi\n        /* \"#utility.yul\":4654:4672   */\n      tag_308\n      tag_141\n      jump\t// in\n    tag_308:\n        /* \"#utility.yul\":4618:4674   */\n    tag_307:\n        /* \"#utility.yul\":4692:4721   */\n      tag_309\n        /* \"#utility.yul\":4714:4720   */\n      dup3\n        /* \"#utility.yul\":4692:4721   */\n      tag_221\n      jump\t// in\n    tag_309:\n        /* \"#utility.yul\":4684:4721   */\n      swap1\n      pop\n        /* \"#utility.yul\":4776:4780   */\n      0x20\n        /* \"#utility.yul\":4770:4774   */\n      dup2\n        /* \"#utility.yul\":4766:4781   */\n      add\n        /* \"#utility.yul\":4758:4781   */\n      swap1\n      pop\n        /* \"#utility.yul\":4480:4788   */\n      swap2\n      swap1\n      pop\n      jump\t// out\n        /* \"#utility.yul\":4794:4940   */\n    tag_225:\n        /* \"#utility.yul\":4891:4897   */\n      dup3\n        /* \"#utility.yul\":4886:4889   */\n      dup2\n        /* \"#utility.yul\":4881:4884   */\n      dup4\n        /* \"#utility.yul\":4868:4898   */\n      calldatacopy\n        /* \"#utility.yul\":4932:4933   */\n      0x00\n        /* \"#utility.yul\":4923:4929   */\n      dup4\n        /* \"#utility.yul\":4918:4921   */\n      dup4\n        /* \"#utility.yul\":4914:4930   */\n      add\n        /* \"#utility.yul\":4907:4934   */\n      mstore\n        /* \"#utility.yul\":4794:4940   */\n      pop\n      pop\n      pop\n      jump\t// out\n        /* \"#utility.yul\":4946:5371   */\n    tag_226:\n        /* \"#utility.yul\":5024:5029   */\n      0x00\n        /* \"#utility.yul\":5049:5115   */\n      tag_312\n        /* \"#utility.yul\":5065:5114   */\n      tag_313\n        /* \"#utility.yul\":5107:5113   */\n      dup5\n        /* \"#utility.yul\":5065:5114   */\n      tag_224\n      jump\t// in\n    tag_313:\n        /* \"#utility.yul\":5049:5115   */\n      tag_223\n      jump\t// in\n    tag_312:\n        /* \"#utility.yul\":5040:5115   */\n      swap1\n      pop\n        /* \"#utility.yul\":5138:5144   */\n      dup3\n        /* \"#utility.yul\":5131:5136   */\n      dup2\n        /* \"#utility.yul\":5124:5145   */\n      mstore\n        /* \"#utility.yul\":5176:5180   */\n      0x20\n        /* \"#utility.yul\":5169:5174   */\n      dup2\n        /* \"#utility.yul\":5165:5181   */\n      add\n        /* \"#utility.yul\":5214:5217   */\n      dup5\n        /* \"#utility.yul\":5205:5211   */\n      dup5\n        /* \"#utility.yul\":5200:5203   */\n      dup5\n        /* \"#utility.yul\":5196:5212   */\n      add\n        /* \"#utility.yul\":5193:5218   */\n      gt\n        /* \"#utility.yul\":5190:5302   */\n      iszero\n      tag_314\n      jumpi\n        /* \"#utility.yul\":5221:5300   */\n      tag_315\n      tag_220\n      jump\t// in\n    tag_315:\n        /* \"#utility.yul\":5190:5302   */\n    tag_314:\n        /* \"#utility.yul\":5311:5365   */\n      tag_316\n        /* \"#utility.yul\":5358:5364   */\n      dup5\n        /* \"#utility.yul\":5353:5356   */\n      dup3\n        /* \"#utility.yul\":5348:5351   */\n      dup6\n        /* \"#utility.yul\":5311:5365   */\n      tag_225\n      jump\t// in\n    tag_316:\n        /* \"#utility.yul\":5030:5371   */\n      pop\n        /* \"#utility.yul\":4946:5371   */\n      swap4\n      swap3\n      pop\n      pop\n      pop\n      jump\t// out\n        /* \"#utility.yul\":5391:5731   */\n    tag_227:\n        /* \"#utility.yul\":5447:5452   */\n      0x00\n        /* \"#utility.yul\":5496:5499   */\n      dup3\n        /* \"#utility.yul\":5489:5493   */\n      0x1f\n        /* \"#utility.yul\":5481:5487   */\n      dup4\n        /* \"#utility.yul\":5477:5494   */\n      add\n        /* \"#utility.yul\":5473:5500   */\n      slt\n        /* \"#utility.yul\":5463:5585   */\n      tag_318\n      jumpi\n        /* \"#utility.yul\":5504:5583   */\n      tag_319\n      tag_219\n      jump\t// in\n    tag_319:\n        /* \"#utility.yul\":5463:5585   */\n    tag_318:\n        /* \"#utility.yul\":5621:5627   */\n      dup2\n        /* \"#utility.yul\":5608:5628   */\n      calldataload\n        /* \"#utility.yul\":5646:5725   */\n      tag_320\n        /* \"#utility.yul\":5721:5724   */\n      dup5\n        /* \"#utility.yul\":5713:5719   */\n      dup3\n        /* \"#utility.yul\":5706:5710   */\n      0x20\n        /* \"#utility.yul\":5698:5704   */\n      dup7\n        /* \"#utility.yul\":5694:5711   */\n      add\n        /* \"#utility.yul\":5646:5725   */\n      tag_226\n      jump\t// in\n    tag_320:\n        /* \"#utility.yul\":5637:5725   */\n      swap2\n      pop\n        /* \"#utility.yul\":5453:5731   */\n      pop\n        /* \"#utility.yul\":5391:5731   */\n      swap3\n      swap2\n      pop\n      pop\n      jump\t// out\n        /* \"#utility.yul\":5737:6391   */\n    tag_24:\n        /* \"#utility.yul\":5815:5821   */\n      0x00\n        /* \"#utility.yul\":5823:5829   */\n      dup1\n        /* \"#utility.yul\":5872:5874   */\n      0x40\n        /* \"#utility.yul\":5860:5869   */\n      dup4\n        /* \"#utility.yul\":5851:5858   */\n      dup6\n        /* \"#utility.yul\":5847:5870   */\n      sub\n        /* \"#utility.yul\":5843:5875   */\n      slt\n        /* \"#utility.yul\":5840:5959   */\n      iszero\n      tag_322\n      jumpi\n        /* \"#utility.yul\":5878:5957   */\n      tag_323\n      tag_207\n      jump\t// in\n    tag_323:\n        /* \"#utility.yul\":5840:5959   */\n    tag_322:\n        /* \"#utility.yul\":5998:5999   */\n      0x00\n        /* \"#utility.yul\":6023:6076   */\n      tag_324\n        /* \"#utility.yul\":6068:6075   */\n      dup6\n        /* \"#utility.yul\":6059:6065   */\n      dup3\n        /* \"#utility.yul\":6048:6057   */\n      dup7\n        /* \"#utility.yul\":6044:6066   */\n      add\n        /* \"#utility.yul\":6023:6076   */\n      tag_211\n      jump\t// in\n    tag_324:\n        /* \"#utility.yul\":6013:6076   */\n      swap3\n      pop\n        /* \"#utility.yul\":5969:6086   */\n      pop\n        /* \"#utility.yul\":6153:6155   */\n      0x20\n        /* \"#utility.yul\":6142:6151   */\n      dup4\n        /* \"#utility.yul\":6138:6156   */\n      add\n        /* \"#utility.yul\":6125:6157   */\n      calldataload\n        /* \"#utility.yul\":6184:6202   */\n      0xffffffffffffffff\n        /* \"#utility.yul\":6176:6182   */\n      dup2\n        /* \"#utility.yul\":6173:6203   */\n      gt\n        /* \"#utility.yul\":6170:6287   */\n      iszero\n      tag_325\n      jumpi\n        /* \"#utility.yul\":6206:6285   */\n      tag_326\n      tag_208\n      jump\t// in\n    tag_326:\n        /* \"#utility.yul\":6170:6287   */\n    tag_325:\n        /* \"#utility.yul\":6311:6374   */\n      tag_327\n        /* \"#utility.yul\":6366:6373   */\n      dup6\n        /* \"#utility.yul\":6357:6363   */\n      dup3\n        /* \"#utility.yul\":6346:6355   */\n      dup7\n        /* \"#utility.yul\":6342:6364   */\n      add\n        /* \"#utility.yul\":6311:6374   */\n      tag_227\n      jump\t// in\n    tag_327:\n        /* \"#utility.yul\":6301:6374   */\n      swap2\n      pop\n        /* \"#utility.yul\":6096:6384   */\n      pop\n        /* \"#utility.yul\":5737:6391   */\n      swap3\n      pop\n      swap3\n      swap1\n      pop\n      jump\t// out\n        /* \"#utility.yul\":6397:6577   */\n    tag_44:\n        /* \"#utility.yul\":6445:6522   */\n      0x4e487b7100000000000000000000000000000000000000000000000000000000\n        /* \"#utility.yul\":6442:6443   */\n      0x00\n        /* \"#utility.yul\":6435:6523   */\n      mstore\n        /* \"#utility.yul\":6542:6546   */\n      0x32\n        /* \"#utility.yul\":6539:6540   */\n      0x04\n        /* \"#utility.yul\":6532:6547   */\n      mstore\n        /* \"#utility.yul\":6566:6570   */\n      0x24\n        /* \"#utility.yul\":6563:6564   */\n      0x00\n        /* \"#utility.yul\":6556:6571   */\n      revert\n        /* \"#utility.yul\":6583:6763   */\n    tag_228:\n        /* \"#utility.yul\":6631:6708   */\n      0x4e487b7100000000000000000000000000000000000000000000000000000000\n        /* \"#utility.yul\":6628:6629   */\n      0x00\n        /* \"#utility.yul\":6621:6709   */\n      mstore\n        /* \"#utility.yul\":6728:6732   */\n      0x11\n        /* \"#utility.yul\":6725:6726   */\n      0x04\n        /* \"#utility.yul\":6718:6733   */\n      mstore\n        /* \"#utility.yul\":6752:6756   */\n      0x24\n        /* \"#utility.yul\":6749:6750   */\n      0x00\n        /* \"#utility.yul\":6742:6757   */\n      revert\n        /* \"#utility.yul\":6769:6963   */\n    tag_53:\n        /* \"#utility.yul\":6809:6813   */\n      0x00\n        /* \"#utility.yul\":6829:6849   */\n      tag_331\n        /* \"#utility.yul\":6847:6848   */\n      dup3\n        /* \"#utility.yul\":6829:6849   */\n      tag_209\n      jump\t// in\n    tag_331:\n        /* \"#utility.yul\":6824:6849   */\n      swap2\n      pop\n        /* \"#utility.yul\":6863:6883   */\n      tag_332\n        /* \"#utility.yul\":6881:6882   */\n      dup4\n        /* \"#utility.yul\":6863:6883   */\n      tag_209\n      jump\t// in\n    tag_332:\n        /* \"#utility.yul\":6858:6883   */\n      swap3\n      pop\n        /* \"#utility.yul\":6907:6908   */\n      dup3\n        /* \"#utility.yul\":6904:6905   */\n      dup3\n        /* \"#utility.yul\":6900:6909   */\n      sub\n        /* \"#utility.yul\":6892:6909   */\n      swap1\n      pop\n        /* \"#utility.yul\":6931:6932   */\n      dup2\n        /* \"#utility.yul\":6925:6929   */\n      dup2\n        /* \"#utility.yul\":6922:6933   */\n      gt\n        /* \"#utility.yul\":6919:6956   */\n      iszero\n      tag_333\n      jumpi\n        /* \"#utility.yul\":6936:6954   */\n      tag_334\n      tag_228\n      jump\t// in\n    tag_334:\n        /* \"#utility.yul\":6919:6956   */\n    tag_333:\n        /* \"#utility.yul\":6769:6963   */\n      swap3\n      swap2\n      pop\n      pop\n      jump\t// out\n        /* \"#utility.yul\":6969:7160   */\n    tag_55:\n        /* \"#utility.yul\":7009:7012   */\n      0x00\n        /* \"#utility.yul\":7028:7048   */\n      tag_336\n        /* \"#utility.yul\":7046:7047   */\n      dup3\n        /* \"#utility.yul\":7028:7048   */\n      tag_209\n      jump\t// in\n    tag_336:\n        /* \"#utility.yul\":7023:7048   */\n      swap2\n      pop\n        /* \"#utility.yul\":7062:7082   */\n      tag_337\n        /* \"#utility.yul\":7080:7081   */\n      dup4\n        /* \"#utility.yul\":7062:7082   */\n      tag_209\n      jump\t// in\n    tag_337:\n        /* \"#utility.yul\":7057:7082   */\n      swap3\n      pop\n        /* \"#utility.yul\":7105:7106   */\n      dup3\n        /* \"#utility.yul\":7102:7103   */\n      dup3\n        /* \"#utility.yul\":7098:7107   */\n      add\n        /* \"#utility.yul\":7091:7107   */\n      swap1\n      pop\n        /* \"#utility.yul\":7126:7129   */\n      dup1\n        /* \"#utility.yul\":7123:7124   */\n      dup3\n        /* \"#utility.yul\":7120:7130   */\n      gt\n        /* \"#utility.yul\":7117:7153   */\n      iszero\n      tag_338\n      jumpi\n        /* \"#utility.yul\":7133:7151   */\n      tag_339\n      tag_228\n      jump\t// in\n    tag_339:\n        /* \"#utility.yul\":7117:7153   */\n    tag_338:\n        /* \"#utility.yul\":6969:7160   */\n      swap3\n      swap2\n      pop\n      pop\n      jump\t// out\n        /* \"#utility.yul\":7166:7399   */\n    tag_63:\n        /* \"#utility.yul\":7205:7208   */\n      0x00\n        /* \"#utility.yul\":7228:7252   */\n      tag_341\n        /* \"#utility.yul\":7246:7251   */\n      dup3\n        /* \"#utility.yul\":7228:7252   */\n      tag_209\n      jump\t// in\n    tag_341:\n        /* \"#utility.yul\":7219:7252   */\n      swap2\n      pop\n        /* \"#utility.yul\":7274:7340   */\n      0xffffffffffffffffffffffffffffffffffffffffffffffffffffffffffffffff\n        /* \"#utility.yul\":7267:7272   */\n      dup3\n        /* \"#utility.yul\":7264:7341   */\n      sub\n        /* \"#utility.yul\":7261:7364   */\n      tag_342\n      jumpi\n        /* \"#utility.yul\":7344:7362   */\n      tag_343\n      tag_228\n      jump\t// in\n    tag_343:\n        /* \"#utility.yul\":7261:7364   */\n    tag_342:\n        /* \"#utility.yul\":7391:7392   */\n      0x01\n        /* \"#utility.yul\":7384:7389   */\n      dup3\n        /* \"#utility.yul\":7380:7393   */\n      add\n        /* \"#utility.yul\":7373:7393   */\n      swap1\n      pop\n        /* \"#utility.yul\":7166:7399   */\n      swap2\n      swap1\n      pop\n      jump\t// out\n        /* \"#utility.yul\":7405:7585   */\n    tag_66:\n        /* \"#utility.yul\":7453:7530   */\n      0x4e487b7100000000000000000000000000000000000000000000000000000000\n        /* \"#utility.yul\":7450:7451   */\n      0x00\n        /* \"#utility.yul\":7443:7531   */\n      mstore\n        /* \"#utility.yul\":7550:7554   */\n      0x31\n        /* \"#utility.yul\":7547:7548   */\n      0x04\n        /* \"#utility.yul\":7540:7555   */\n      mstore\n        /* \"#utility.yul\":7574:7578   */\n      0x24\n        /* \"#utility.yul\":7571:7572   */\n      0x00\n        /* \"#utility.yul\":7564:7579   */\n      revert\n        /* \"#utility.yul\":7591:7677   */\n    tag_229:\n        /* \"#utility.yul\":7626:7633   */\n      0x00\n        /* \"#utility.yul\":7666:7670   */\n      0xff\n        /* \"#utility.yul\":7659:7664   */\n      dup3\n        /* \"#utility.yul\":7655:7671   */\n      and\n        /* \"#utility.yul\":7644:7671   */\n      swap1\n      pop\n        /* \"#utility.yul\":7591:7677   */\n      swap2\n      swap1\n      pop\n      jump\t// out\n        /* \"#utility.yul\":7683:7850   */\n    tag_87:\n        /* \"#utility.yul\":7720:7723   */\n      0x00\n        /* \"#utility.yul\":7743:7765   */\n      tag_347\n        /* \"#utility.yul\":7759:7764   */\n      dup3\n        /* \"#utility.yul\":7743:7765   */\n      tag_229\n      jump\t// in\n    tag_347:\n        /* \"#utility.yul\":7734:7765   */\n      swap2\n      pop\n        /* \"#utility.yul\":7787:7791   */\n      0xff\n        /* \"#utility.yul\":7780:7785   */\n      dup3\n        /* \"#utility.yul\":7777:7792   */\n      sub\n        /* \"#utility.yul\":7774:7815   */\n      tag_348\n      jumpi\n        /* \"#utility.yul\":7795:7813   */\n      tag_349\n      tag_228\n      jump\t// in\n    tag_349:\n        /* \"#utility.yul\":7774:7815   */\n    tag_348:\n        /* \"#utility.yul\":7842:7843   */\n      0x01\n        /* \"#utility.yul\":7835:7840   */\n      dup3\n        /* \"#utility.yul\":7831:7844   */\n      add\n        /* \"#utility.yul\":7824:7844   */\n      swap1\n      pop\n        /* \"#utility.yul\":7683:7850   */\n      swap2\n      swap1\n      pop\n      jump\t// out\n        /* \"#utility.yul\":7856:8025   */\n    tag_230:\n        /* \"#utility.yul\":7940:7951   */\n      0x00\n        /* \"#utility.yul\":7974:7980   */\n      dup3\n        /* \"#utility.yul\":7969:7972   */\n      dup3\n        /* \"#utility.yul\":7962:7981   */\n      mstore\n        /* \"#utility.yul\":8014:8018   */\n      0x20\n        /* \"#utility.yul\":8009:8012   */\n      dup3\n        /* \"#utility.yul\":8005:8019   */\n      add\n        /* \"#utility.yul\":7990:8019   */\n      swap1\n      pop\n        /* \"#utility.yul\":7856:8025   */\n      swap3\n      swap2\n      pop\n      pop\n      jump\t// out\n        /* \"#utility.yul\":8031:8208   */\n    tag_231:\n        /* \"#utility.yul\":8171:8200   */\n      0x766572746578742073686f756c64206e6f74206265207a65726f2e0000000000\n        /* \"#utility.yul\":8167:8168   */\n      0x00\n        /* \"#utility.yul\":8159:8165   */\n      dup3\n        /* \"#utility.yul\":8155:8169   */\n      add\n        /* \"#utility.yul\":8148:8201   */\n      mstore\n        /* \"#utility.yul\":8031:8208   */\n      pop\n      jump\t// out\n        /* \"#utility.yul\":8214:8580   */\n    tag_232:\n        /* \"#utility.yul\":8356:8359   */\n      0x00\n        /* \"#utility.yul\":8377:8444   */\n      tag_353\n        /* \"#utility.yul\":8441:8443   */\n      0x1b\n        /* \"#utility.yul\":8436:8439   */\n      dup4\n        /* \"#utility.yul\":8377:8444   */\n      tag_230\n      jump\t// in\n    tag_353:\n        /* \"#utility.yul\":8370:8444   */\n      swap2\n      pop\n        /* \"#utility.yul\":8453:8546   */\n      tag_354\n        /* \"#utility.yul\":8542:8545   */\n      dup3\n        /* \"#utility.yul\":8453:8546   */\n      tag_231\n      jump\t// in\n    tag_354:\n        /* \"#utility.yul\":8571:8573   */\n      0x20\n        /* \"#utility.yul\":8566:8569   */\n      dup3\n        /* \"#utility.yul\":8562:8574   */\n      add\n        /* \"#utility.yul\":8555:8574   */\n      swap1\n      pop\n        /* \"#utility.yul\":8214:8580   */\n      swap2\n      swap1\n      pop\n      jump\t// out\n        /* \"#utility.yul\":8586:9005   */\n    tag_94:\n        /* \"#utility.yul\":8752:8756   */\n      0x00\n        /* \"#utility.yul\":8790:8792   */\n      0x20\n        /* \"#utility.yul\":8779:8788   */\n      dup3\n        /* \"#utility.yul\":8775:8793   */\n      add\n        /* \"#utility.yul\":8767:8793   */\n      swap1\n      pop\n        /* \"#utility.yul\":8839:8848   */\n      dup2\n        /* \"#utility.yul\":8833:8837   */\n      dup2\n        /* \"#utility.yul\":8829:8849   */\n      sub\n        /* \"#utility.yul\":8825:8826   */\n      0x00\n        /* \"#utility.yul\":8814:8823   */\n      dup4\n        /* \"#utility.yul\":8810:8827   */\n      add\n        /* \"#utility.yul\":8803:8850   */\n      mstore\n        /* \"#utility.yul\":8867:8998   */\n      tag_356\n        /* \"#utility.yul\":8993:8997   */\n      dup2\n        /* \"#utility.yul\":8867:8998   */\n      tag_232\n      jump\t// in\n    tag_356:\n        /* \"#utility.yul\":8859:8998   */\n      swap1\n      pop\n        /* \"#utility.yul\":8586:9005   */\n      swap2\n      swap1\n      pop\n      jump\t// out\n        /* \"#utility.yul\":9011:9181   */\n    tag_233:\n        /* \"#utility.yul\":9151:9173   */\n      0x4e6f646520646f6573206e6f742065786973742e000000000000000000000000\n        /* \"#utility.yul\":9147:9148   */\n      0x00\n        /* \"#utility.yul\":9139:9145   */\n      dup3\n        /* \"#utility.yul\":9135:9149   */\n      add\n        /* \"#utility.yul\":9128:9174   */\n      mstore\n        /* \"#utility.yul\":9011:9181   */\n      pop\n      jump\t// out\n        /* \"#utility.yul\":9187:9553   */\n    tag_234:\n        /* \"#utility.yul\":9329:9332   */\n      0x00\n        /* \"#utility.yul\":9350:9417   */\n      tag_359\n        /* \"#utility.yul\":9414:9416   */\n      0x14\n        /* \"#utility.yul\":9409:9412   */\n      dup4\n        /* \"#utility.yul\":9350:9417   */\n      tag_230\n      jump\t// in\n    tag_359:\n        /* \"#utility.yul\":9343:9417   */\n      swap2\n      pop\n        /* \"#utility.yul\":9426:9519   */\n      tag_360\n        /* \"#utility.yul\":9515:9518   */\n      dup3\n        /* \"#utility.yul\":9426:9519   */\n      tag_233\n      jump\t// in\n    tag_360:\n        /* \"#utility.yul\":9544:9546   */\n      0x20\n        /* \"#utility.yul\":9539:9542   */\n      dup3\n        /* \"#utility.yul\":9535:9547   */\n      add\n        /* \"#utility.yul\":9528:9547   */\n      swap1\n      pop\n        /* \"#utility.yul\":9187:9553   */\n      swap2\n      swap1\n      pop\n      jump\t// out\n        /* \"#utility.yul\":9559:9978   */\n    tag_98:\n        /* \"#utility.yul\":9725:9729   */\n      0x00\n        /* \"#utility.yul\":9763:9765   */\n      0x20\n        /* \"#utility.yul\":9752:9761   */\n      dup3\n        /* \"#utility.yul\":9748:9766   */\n      add\n        /* \"#utility.yul\":9740:9766   */\n      swap1\n      pop\n        /* \"#utility.yul\":9812:9821   */\n      dup2\n        /* \"#utility.yul\":9806:9810   */\n      dup2\n        /* \"#utility.yul\":9802:9822   */\n      sub\n        /* \"#utility.yul\":9798:9799   */\n      0x00\n        /* \"#utility.yul\":9787:9796   */\n      dup4\n        /* \"#utility.yul\":9783:9800   */\n      add\n        /* \"#utility.yul\":9776:9823   */\n      mstore\n        /* \"#utility.yul\":9840:9971   */\n      tag_362\n        /* \"#utility.yul\":9966:9970   */\n      dup2\n        /* \"#utility.yul\":9840:9971   */\n      tag_234\n      jump\t// in\n    tag_362:\n        /* \"#utility.yul\":9832:9971   */\n      swap1\n      pop\n        /* \"#utility.yul\":9559:9978   */\n      swap2\n      swap1\n      pop\n      jump\t// out\n        /* \"#utility.yul\":9984:10161   */\n    tag_235:\n        /* \"#utility.yul\":10124:10153   */\n      0x4e6f64652049442073686f756c64206e6f74206265207a65726f2e0000000000\n        /* \"#utility.yul\":10120:10121   */\n      0x00\n        /* \"#utility.yul\":10112:10118   */\n      dup3\n        /* \"#utility.yul\":10108:10122   */\n      add\n        /* \"#utility.yul\":10101:10154   */\n      mstore\n        /* \"#utility.yul\":9984:10161   */\n      pop\n      jump\t// out\n        /* \"#utility.yul\":10167:10533   */\n    tag_236:\n        /* \"#utility.yul\":10309:10312   */\n      0x00\n        /* \"#utility.yul\":10330:10397   */\n      tag_365\n        /* \"#utility.yul\":10394:10396   */\n      0x1b\n        /* \"#utility.yul\":10389:10392   */\n      dup4\n        /* \"#utility.yul\":10330:10397   */\n      tag_230\n      jump\t// in\n    tag_365:\n        /* \"#utility.yul\":10323:10397   */\n      swap2\n      pop\n        /* \"#utility.yul\":10406:10499   */\n      tag_366\n        /* \"#utility.yul\":10495:10498   */\n      dup3\n        /* \"#utility.yul\":10406:10499   */\n      tag_235\n      jump\t// in\n    tag_366:\n        /* \"#utility.yul\":10524:10526   */\n      0x20\n        /* \"#utility.yul\":10519:10522   */\n      dup3\n        /* \"#utility.yul\":10515:10527   */\n      add\n        /* \"#utility.yul\":10508:10527   */\n      swap1\n      pop\n        /* \"#utility.yul\":10167:10533   */\n      swap2\n      swap1\n      pop\n      jump\t// out\n        /* \"#utility.yul\":10539:10958   */\n    tag_135:\n        /* \"#utility.yul\":10705:10709   */\n      0x00\n        /* \"#utility.yul\":10743:10745   */\n      0x20\n        /* \"#utility.yul\":10732:10741   */\n      dup3\n        /* \"#utility.yul\":10728:10746   */\n      add\n        /* \"#utility.yul\":10720:10746   */\n      swap1\n      pop\n        /* \"#utility.yul\":10792:10801   */\n      dup2\n        /* \"#utility.yul\":10786:10790   */\n      dup2\n        /* \"#utility.yul\":10782:10802   */\n      sub\n        /* \"#utility.yul\":10778:10779   */\n      0x00\n        /* \"#utility.yul\":10767:10776   */\n      dup4\n        /* \"#utility.yul\":10763:10780   */\n      add\n        /* \"#utility.yul\":10756:10803   */\n      mstore\n        /* \"#utility.yul\":10820:10951   */\n      tag_368\n        /* \"#utility.yul\":10946:10950   */\n      dup2\n        /* \"#utility.yul\":10820:10951   */\n      tag_236\n      jump\t// in\n    tag_368:\n        /* \"#utility.yul\":10812:10951   */\n      swap1\n      pop\n        /* \"#utility.yul\":10539:10958   */\n      swap2\n      swap1\n      pop\n      jump\t// out\n        /* \"#utility.yul\":10964:11134   */\n    tag_237:\n        /* \"#utility.yul\":11104:11126   */\n      0x4e6f646520616c7265616479206578697374732e000000000000000000000000\n        /* \"#utility.yul\":11100:11101   */\n      0x00\n        /* \"#utility.yul\":11092:11098   */\n      dup3\n        /* \"#utility.yul\":11088:11102   */\n      add\n        /* \"#utility.yul\":11081:11127   */\n      mstore\n        /* \"#utility.yul\":10964:11134   */\n      pop\n      jump\t// out\n        /* \"#utility.yul\":11140:11506   */\n    tag_238:\n        /* \"#utility.yul\":11282:11285   */\n      0x00\n        /* \"#utility.yul\":11303:11370   */\n      tag_371\n        /* \"#utility.yul\":11367:11369   */\n      0x14\n        /* \"#utility.yul\":11362:11365   */\n      dup4\n        /* \"#utility.yul\":11303:11370   */\n      tag_230\n      jump\t// in\n    tag_371:\n        /* \"#utility.yul\":11296:11370   */\n      swap2\n      pop\n        /* \"#utility.yul\":11379:11472   */\n      tag_372\n        /* \"#utility.yul\":11468:11471   */\n      dup3\n        /* \"#utility.yul\":11379:11472   */\n      tag_237\n      jump\t// in\n    tag_372:\n        /* \"#utility.yul\":11497:11499   */\n      0x20\n        /* \"#utility.yul\":11492:11495   */\n      dup3\n        /* \"#utility.yul\":11488:11500   */\n      add\n        /* \"#utility.yul\":11481:11500   */\n      swap1\n      pop\n        /* \"#utility.yul\":11140:11506   */\n      swap2\n      swap1\n      pop\n      jump\t// out\n        /* \"#utility.yul\":11512:11931   */\n    tag_138:\n        /* \"#utility.yul\":11678:11682   */\n      0x00\n        /* \"#utility.yul\":11716:11718   */\n      0x20\n        /* \"#utility.yul\":11705:11714   */\n      dup3\n        /* \"#utility.yul\":11701:11719   */\n      add\n        /* \"#utility.yul\":11693:11719   */\n      swap1\n      pop\n        /* \"#utility.yul\":11765:11774   */\n      dup2\n        /* \"#utility.yul\":11759:11763   */\n      dup2\n        /* \"#utility.yul\":11755:11775   */\n      sub\n        /* \"#utility.yul\":11751:11752   */\n      0x00\n        /* \"#utility.yul\":11740:11749   */\n      dup4\n        /* \"#utility.yul\":11736:11753   */\n      add\n        /* \"#utility.yul\":11729:11776   */\n      mstore\n        /* \"#utility.yul\":11793:11924   */\n      tag_374\n        /* \"#utility.yul\":11919:11923   */\n      dup2\n        /* \"#utility.yul\":11793:11924   */\n      tag_238\n      jump\t// in\n    tag_374:\n        /* \"#utility.yul\":11785:11924   */\n      swap1\n      pop\n        /* \"#utility.yul\":11512:11931   */\n      swap2\n      swap1\n      pop\n      jump\t// out\n        /* \"#utility.yul\":11937:12036   */\n    tag_239:\n        /* \"#utility.yul\":11989:11995   */\n      0x00\n        /* \"#utility.yul\":12023:12028   */\n      dup2\n        /* \"#utility.yul\":12017:12029   */\n      mload\n        /* \"#utility.yul\":12007:12029   */\n      swap1\n      pop\n        /* \"#utility.yul\":11937:12036   */\n      swap2\n      swap1\n      pop\n      jump\t// out\n        /* \"#utility.yul\":12042:12222   */\n    tag_240:\n        /* \"#utility.yul\":12090:12167   */\n      0x4e487b7100000000000000000000000000000000000000000000000000000000\n        /* \"#utility.yul\":12087:12088   */\n      0x00\n        /* \"#utility.yul\":12080:12168   */\n      mstore\n        /* \"#utility.yul\":12187:12191   */\n      0x22\n        /* \"#utility.yul\":12184:12185   */\n      0x04\n        /* \"#utility.yul\":12177:12192   */\n      mstore\n        /* \"#utility.yul\":12211:12215   */\n      0x24\n        /* \"#utility.yul\":12208:12209   */\n      0x00\n        /* \"#utility.yul\":12201:12216   */\n      revert\n        /* \"#utility.yul\":12228:12548   */\n    tag_241:\n        /* \"#utility.yul\":12272:12278   */\n      0x00\n        /* \"#utility.yul\":12309:12310   */\n      0x02\n        /* \"#utility.yul\":12303:12307   */\n      dup3\n        /* \"#utility.yul\":12299:12311   */\n      div\n        /* \"#utility.yul\":12289:12311   */\n      swap1\n      pop\n        /* \"#utility.yul\":12356:12357   */\n      0x01\n        /* \"#utility.yul\":12350:12354   */\n      dup3\n        /* \"#utility.yul\":12346:12358   */\n      and\n        /* \"#utility.yul\":12377:12395   */\n      dup1\n        /* \"#utility.yul\":12367:12448   */\n      tag_378\n      jumpi\n        /* \"#utility.yul\":12433:12437   */\n      0x7f\n        /* \"#utility.yul\":12425:12431   */\n      dup3\n        /* \"#utility.yul\":12421:12438   */\n      and\n        /* \"#utility.yul\":12411:12438   */\n      swap2\n      pop\n        /* \"#utility.yul\":12367:12448   */\n    tag_378:\n        /* \"#utility.yul\":12495:12497   */\n      0x20\n        /* \"#utility.yul\":12487:12493   */\n      dup3\n        /* \"#utility.yul\":12484:12498   */\n      lt\n        /* \"#utility.yul\":12464:12482   */\n      dup2\n        /* \"#utility.yul\":12461:12499   */\n      sub\n        /* \"#utility.yul\":12458:12542   */\n      tag_379\n      jumpi\n        /* \"#utility.yul\":12514:12532   */\n      tag_380\n      tag_240\n      jump\t// in\n    tag_380:\n        /* \"#utility.yul\":12458:12542   */\n    tag_379:\n        /* \"#utility.yul\":12279:12548   */\n      pop\n        /* \"#utility.yul\":12228:12548   */\n      swap2\n      swap1\n      pop\n      jump\t// out\n        /* \"#utility.yul\":12554:12695   */\n    tag_242:\n        /* \"#utility.yul\":12603:12607   */\n      0x00\n        /* \"#utility.yul\":12626:12629   */\n      dup2\n        /* \"#utility.yul\":12618:12629   */\n      swap1\n      pop\n        /* \"#utility.yul\":12649:12652   */\n      dup2\n        /* \"#utility.yul\":12646:12647   */\n      0x00\n        /* \"#utility.yul\":12639:12653   */\n      mstore\n        /* \"#utility.yul\":12683:12687   */\n      0x20\n        /* \"#utility.yul\":12680:12681   */\n      0x00\n        /* \"#utility.yul\":12670:12688   */\n      keccak256\n        /* \"#utility.yul\":12662:12688   */\n      swap1\n      pop\n        /* \"#utility.yul\":12554:12695   */\n      swap2\n      swap1\n      pop\n      jump\t// out\n        /* \"#utility.yul\":12701:12794   */\n    tag_243:\n        /* \"#utility.yul\":12738:12744   */\n      0x00\n        /* \"#utility.yul\":12785:12787   */\n      0x20\n        /* \"#utility.yul\":12780:12782   */\n      0x1f\n        /* \"#utility.yul\":12773:12778   */\n      dup4\n        /* \"#utility.yul\":12769:12783   */\n      add\n        /* \"#utility.yul\":12765:12788   */\n      div\n        /* \"#utility.yul\":12755:12788   */\n      swap1\n      pop\n        /* \"#utility.yul\":12701:12794   */\n      swap2\n      swap1\n      pop\n      jump\t// out\n        /* \"#utility.yul\":12800:12907   */\n    tag_244:\n        /* \"#utility.yul\":12844:12852   */\n      0x00\n        /* \"#utility.yul\":12894:12899   */\n      dup3\n        /* \"#utility.yul\":12888:12892   */\n      dup3\n        /* \"#utility.yul\":12884:12900   */\n      shl\n        /* \"#utility.yul\":12863:12900   */\n      swap1\n      pop\n        /* \"#utility.yul\":12800:12907   */\n      swap3\n      swap2\n      pop\n      pop\n      jump\t// out\n        /* \"#utility.yul\":12913:13306   */\n    tag_245:\n        /* \"#utility.yul\":12982:12988   */\n      0x00\n        /* \"#utility.yul\":13032:13033   */\n      0x08\n        /* \"#utility.yul\":13020:13030   */\n      dup4\n        /* \"#utility.yul\":13016:13034   */\n      mul\n        /* \"#utility.yul\":13055:13152   */\n      tag_385\n        /* \"#utility.yul\":13085:13151   */\n      0xffffffffffffffffffffffffffffffffffffffffffffffffffffffffffffffff\n        /* \"#utility.yul\":13074:13083   */\n      dup3\n        /* \"#utility.yul\":13055:13152   */\n      tag_244\n      jump\t// in\n    tag_385:\n        /* \"#utility.yul\":13173:13212   */\n      tag_386\n        /* \"#utility.yul\":13203:13211   */\n      dup7\n        /* \"#utility.yul\":13192:13201   */\n      dup4\n        /* \"#utility.yul\":13173:13212   */\n      tag_244\n      jump\t// in\n    tag_386:\n        /* \"#utility.yul\":13161:13212   */\n      swap6\n      pop\n        /* \"#utility.yul\":13245:13249   */\n      dup1\n        /* \"#utility.yul\":13241:13250   */\n      not\n        /* \"#utility.yul\":13234:13239   */\n      dup5\n        /* \"#utility.yul\":13230:13251   */\n      and\n        /* \"#utility.yul\":13221:13251   */\n      swap4\n      pop\n        /* \"#utility.yul\":13294:13298   */\n      dup1\n        /* \"#utility.yul\":13284:13292   */\n      dup7\n        /* \"#utility.yul\":13280:13299   */\n      and\n        /* \"#utility.yul\":13273:13278   */\n      dup5\n        /* \"#utility.yul\":13270:13300   */\n      or\n        /* \"#utility.yul\":13260:13300   */\n      swap3\n      pop\n        /* \"#utility.yul\":12989:13306   */\n      pop\n      pop\n        /* \"#utility.yul\":12913:13306   */\n      swap4\n      swap3\n      pop\n      pop\n      pop\n      jump\t// out\n        /* \"#utility.yul\":13312:13372   */\n    tag_246:\n        /* \"#utility.yul\":13340:13343   */\n      0x00\n        /* \"#utility.yul\":13361:13366   */\n      dup2\n        /* \"#utility.yul\":13354:13366   */\n      swap1\n      pop\n        /* \"#utility.yul\":13312:13372   */\n      swap2\n      swap1\n      pop\n      jump\t// out\n        /* \"#utility.yul\":13378:13520   */\n    tag_247:\n        /* \"#utility.yul\":13428:13437   */\n      0x00\n        /* \"#utility.yul\":13461:13514   */\n      tag_389\n        /* \"#utility.yul\":13479:13513   */\n      tag_390\n        /* \"#utility.yul\":13488:13512   */\n      tag_391\n        /* \"#utility.yul\":13506:13511   */\n      dup5\n        /* \"#utility.yul\":13488:13512   */\n      tag_209\n      jump\t// in\n    tag_391:\n        /* \"#utility.yul\":13479:13513   */\n      tag_246\n      jump\t// in\n    tag_390:\n        /* \"#utility.yul\":13461:13514   */\n      tag_209\n      jump\t// in\n    tag_389:\n        /* \"#utility.yul\":13448:13514   */\n      swap1\n      pop\n        /* \"#utility.yul\":13378:13520   */\n      swap2\n      swap1\n      pop\n      jump\t// out\n        /* \"#utility.yul\":13526:13601   */\n    tag_248:\n        /* \"#utility.yul\":13569:13572   */\n      0x00\n        /* \"#utility.yul\":13590:13595   */\n      dup2\n        /* \"#utility.yul\":13583:13595   */\n      swap1\n      pop\n        /* \"#utility.yul\":13526:13601   */\n      swap2\n      swap1\n      pop\n      jump\t// out\n        /* \"#utility.yul\":13607:13876   */\n    tag_249:\n        /* \"#utility.yul\":13717:13756   */\n      tag_394\n        /* \"#utility.yul\":13748:13755   */\n      dup4\n        /* \"#utility.yul\":13717:13756   */\n      tag_247\n      jump\t// in\n    tag_394:\n        /* \"#utility.yul\":13778:13869   */\n      tag_395\n        /* \"#utility.yul\":13827:13868   */\n      tag_396\n        /* \"#utility.yul\":13851:13867   */\n      dup3\n        /* \"#utility.yul\":13827:13868   */\n      tag_248\n      jump\t// in\n    tag_396:\n        /* \"#utility.yul\":13819:13825   */\n      dup5\n        /* \"#utility.yul\":13812:13816   */\n      dup5\n        /* \"#utility.yul\":13806:13817   */\n      sload\n        /* \"#utility.yul\":13778:13869   */\n      tag_245\n      jump\t// in\n    tag_395:\n        /* \"#utility.yul\":13772:13776   */\n      dup3\n        /* \"#utility.yul\":13765:13870   */\n      sstore\n        /* \"#utility.yul\":13683:13876   */\n      pop\n        /* \"#utility.yul\":13607:13876   */\n      pop\n      pop\n      pop\n      jump\t// out\n        /* \"#utility.yul\":13882:13955   */\n    tag_250:\n        /* \"#utility.yul\":13927:13930   */\n      0x00\n        /* \"#utility.yul\":13882:13955   */\n      swap1\n      jump\t// out\n        /* \"#utility.yul\":13961:14150   */\n    tag_251:\n        /* \"#utility.yul\":14038:14070   */\n      tag_399\n      tag_250\n      jump\t// in\n    tag_399:\n        /* \"#utility.yul\":14079:14144   */\n      tag_400\n        /* \"#utility.yul\":14137:14143   */\n      dup2\n        /* \"#utility.yul\":14129:14135   */\n      dup5\n        /* \"#utility.yul\":14123:14127   */\n      dup5\n        /* \"#utility.yul\":14079:14144   */\n      tag_249\n      jump\t// in\n    tag_400:\n        /* \"#utility.yul\":14014:14150   */\n      pop\n        /* \"#utility.yul\":13961:14150   */\n      pop\n      pop\n      jump\t// out\n        /* \"#utility.yul\":14156:14342   */\n    tag_252:\n        /* \"#utility.yul\":14216:14336   */\n    tag_402:\n        /* \"#utility.yul\":14233:14236   */\n      dup2\n        /* \"#utility.yul\":14226:14231   */\n      dup2\n        /* \"#utility.yul\":14223:14237   */\n      lt\n        /* \"#utility.yul\":14216:14336   */\n      iszero\n      tag_404\n      jumpi\n        /* \"#utility.yul\":14287:14326   */\n      tag_405\n        /* \"#utility.yul\":14324:14325   */\n      0x00\n        /* \"#utility.yul\":14317:14322   */\n      dup3\n        /* \"#utility.yul\":14287:14326   */\n      tag_251\n      jump\t// in\n    tag_405:\n        /* \"#utility.yul\":14260:14261   */\n      0x01\n        /* \"#utility.yul\":14253:14258   */\n      dup2\n        /* \"#utility.yul\":14249:14262   */\n      add\n        /* \"#utility.yul\":14240:14262   */\n      swap1\n      pop\n        /* \"#utility.yul\":14216:14336   */\n      jump(tag_402)\n    tag_404:\n        /* \"#utility.yul\":14156:14342   */\n      pop\n      pop\n      jump\t// out\n        /* \"#utility.yul\":14348:14891   */\n    tag_253:\n        /* \"#utility.yul\":14449:14451   */\n      0x1f\n        /* \"#utility.yul\":14444:14447   */\n      dup3\n        /* \"#utility.yul\":14441:14452   */\n      gt\n        /* \"#utility.yul\":14438:14884   */\n      iszero\n      tag_407\n      jumpi\n        /* \"#utility.yul\":14483:14521   */\n      tag_408\n        /* \"#utility.yul\":14515:14520   */\n      dup2\n        /* \"#utility.yul\":14483:14521   */\n      tag_242\n      jump\t// in\n    tag_408:\n        /* \"#utility.yul\":14567:14596   */\n      tag_409\n        /* \"#utility.yul\":14585:14595   */\n      dup5\n        /* \"#utility.yul\":14567:14596   */\n      tag_243\n      jump\t// in\n    tag_409:\n        /* \"#utility.yul\":14557:14565   */\n      dup2\n        /* \"#utility.yul\":14553:14597   */\n      add\n        /* \"#utility.yul\":14750:14752   */\n      0x20\n        /* \"#utility.yul\":14738:14748   */\n      dup6\n        /* \"#utility.yul\":14735:14753   */\n      lt\n        /* \"#utility.yul\":14732:14781   */\n      iszero\n      tag_410\n      jumpi\n        /* \"#utility.yul\":14771:14779   */\n      dup2\n        /* \"#utility.yul\":14756:14779   */\n      swap1\n      pop\n        /* \"#utility.yul\":14732:14781   */\n    tag_410:\n        /* \"#utility.yul\":14794:14874   */\n      tag_411\n        /* \"#utility.yul\":14850:14872   */\n      tag_412\n        /* \"#utility.yul\":14868:14871   */\n      dup6\n        /* \"#utility.yul\":14850:14872   */\n      tag_243\n      jump\t// in\n    tag_412:\n        /* \"#utility.yul\":14840:14848   */\n      dup4\n        /* \"#utility.yul\":14836:14873   */\n      add\n        /* \"#utility.yul\":14823:14834   */\n      dup3\n        /* \"#utility.yul\":14794:14874   */\n      tag_252\n      jump\t// in\n    tag_411:\n        /* \"#utility.yul\":14453:14884   */\n      pop\n      pop\n        /* \"#utility.yul\":14438:14884   */\n    tag_407:\n        /* \"#utility.yul\":14348:14891   */\n      pop\n      pop\n      pop\n      jump\t// out\n        /* \"#utility.yul\":14897:15014   */\n    tag_254:\n        /* \"#utility.yul\":14951:14959   */\n      0x00\n        /* \"#utility.yul\":15001:15006   */\n      dup3\n        /* \"#utility.yul\":14995:14999   */\n      dup3\n        /* \"#utility.yul\":14991:15007   */\n      shr\n        /* \"#utility.yul\":14970:15007   */\n      swap1\n      pop\n        /* \"#utility.yul\":14897:15014   */\n      swap3\n      swap2\n      pop\n      pop\n      jump\t// out\n        /* \"#utility.yul\":15020:15189   */\n    tag_255:\n        /* \"#utility.yul\":15064:15070   */\n      0x00\n        /* \"#utility.yul\":15097:15148   */\n      tag_415\n        /* \"#utility.yul\":15145:15146   */\n      0x00\n        /* \"#utility.yul\":15141:15147   */\n      not\n        /* \"#utility.yul\":15133:15138   */\n      dup5\n        /* \"#utility.yul\":15130:15131   */\n      0x08\n        /* \"#utility.yul\":15126:15139   */\n      mul\n        /* \"#utility.yul\":15097:15148   */\n      tag_254\n      jump\t// in\n    tag_415:\n        /* \"#utility.yul\":15093:15149   */\n      not\n        /* \"#utility.yul\":15178:15182   */\n      dup1\n        /* \"#utility.yul\":15172:15176   */\n      dup4\n        /* \"#utility.yul\":15168:15183   */\n      and\n        /* \"#utility.yul\":15158:15183   */\n      swap2\n      pop\n        /* \"#utility.yul\":15071:15189   */\n      pop\n        /* \"#utility.yul\":15020:15189   */\n      swap3\n      swap2\n      pop\n      pop\n      jump\t// out\n        /* \"#utility.yul\":15194:15489   */\n    tag_256:\n        /* \"#utility.yul\":15270:15274   */\n      0x00\n        /* \"#utility.yul\":15416:15445   */\n      tag_417\n        /* \"#utility.yul\":15441:15444   */\n      dup4\n        /* \"#utility.yul\":15435:15439   */\n      dup4\n        /* \"#utility.yul\":15416:15445   */\n      tag_255\n      jump\t// in\n    tag_417:\n        /* \"#utility.yul\":15408:15445   */\n      swap2\n      pop\n        /* \"#utility.yul\":15478:15481   */\n      dup3\n        /* \"#utility.yul\":15475:15476   */\n      0x02\n        /* \"#utility.yul\":15471:15482   */\n      mul\n        /* \"#utility.yul\":15465:15469   */\n      dup3\n        /* \"#utility.yul\":15462:15483   */\n      or\n        /* \"#utility.yul\":15454:15483   */\n      swap1\n      pop\n        /* \"#utility.yul\":15194:15489   */\n      swap3\n      swap2\n      pop\n      pop\n      jump\t// out\n        /* \"#utility.yul\":15494:16889   */\n    tag_144:\n        /* \"#utility.yul\":15611:15648   */\n      tag_419\n        /* \"#utility.yul\":15644:15647   */\n      dup3\n        /* \"#utility.yul\":15611:15648   */\n      tag_239\n      jump\t// in\n    tag_419:\n        /* \"#utility.yul\":15713:15731   */\n      0xffffffffffffffff\n        /* \"#utility.yul\":15705:15711   */\n      dup2\n        /* \"#utility.yul\":15702:15732   */\n      gt\n        /* \"#utility.yul\":15699:15755   */\n      iszero\n      tag_420\n      jumpi\n        /* \"#utility.yul\":15735:15753   */\n      tag_421\n      tag_141\n      jump\t// in\n    tag_421:\n        /* \"#utility.yul\":15699:15755   */\n    tag_420:\n        /* \"#utility.yul\":15779:15817   */\n      tag_422\n        /* \"#utility.yul\":15811:15815   */\n      dup3\n        /* \"#utility.yul\":15805:15816   */\n      sload\n        /* \"#utility.yul\":15779:15817   */\n      tag_241\n      jump\t// in\n    tag_422:\n        /* \"#utility.yul\":15864:15931   */\n      tag_423\n        /* \"#utility.yul\":15924:15930   */\n      dup3\n        /* \"#utility.yul\":15916:15922   */\n      dup3\n        /* \"#utility.yul\":15910:15914   */\n      dup6\n        /* \"#utility.yul\":15864:15931   */\n      tag_253\n      jump\t// in\n    tag_423:\n        /* \"#utility.yul\":15958:15959   */\n      0x00\n        /* \"#utility.yul\":15982:15986   */\n      0x20\n        /* \"#utility.yul\":15969:15986   */\n      swap1\n      pop\n        /* \"#utility.yul\":16014:16016   */\n      0x1f\n        /* \"#utility.yul\":16006:16012   */\n      dup4\n        /* \"#utility.yul\":16003:16017   */\n      gt\n        /* \"#utility.yul\":16031:16032   */\n      0x01\n        /* \"#utility.yul\":16026:16644   */\n      dup2\n      eq\n      tag_425\n      jumpi\n        /* \"#utility.yul\":16688:16689   */\n      0x00\n        /* \"#utility.yul\":16705:16711   */\n      dup5\n        /* \"#utility.yul\":16702:16779   */\n      iszero\n      tag_426\n      jumpi\n        /* \"#utility.yul\":16754:16763   */\n      dup3\n        /* \"#utility.yul\":16749:16752   */\n      dup8\n        /* \"#utility.yul\":16745:16764   */\n      add\n        /* \"#utility.yul\":16739:16765   */\n      mload\n        /* \"#utility.yul\":16730:16765   */\n      swap1\n      pop\n        /* \"#utility.yul\":16702:16779   */\n    tag_426:\n        /* \"#utility.yul\":16805:16872   */\n      tag_427\n        /* \"#utility.yul\":16865:16871   */\n      dup6\n        /* \"#utility.yul\":16858:16863   */\n      dup3\n        /* \"#utility.yul\":16805:16872   */\n      tag_256\n      jump\t// in\n    tag_427:\n        /* \"#utility.yul\":16799:16803   */\n      dup7\n        /* \"#utility.yul\":16792:16873   */\n      sstore\n        /* \"#utility.yul\":16661:16883   */\n      pop\n        /* \"#utility.yul\":15996:16883   */\n      jump(tag_424)\n        /* \"#utility.yul\":16026:16644   */\n    tag_425:\n        /* \"#utility.yul\":16078:16082   */\n      0x1f\n        /* \"#utility.yul\":16074:16083   */\n      not\n        /* \"#utility.yul\":16066:16072   */\n      dup5\n        /* \"#utility.yul\":16062:16084   */\n      and\n        /* \"#utility.yul\":16112:16149   */\n      tag_428\n        /* \"#utility.yul\":16144:16148   */\n      dup7\n        /* \"#utility.yul\":16112:16149   */\n      tag_242\n      jump\t// in\n    tag_428:\n        /* \"#utility.yul\":16171:16172   */\n      0x00\n        /* \"#utility.yul\":16185:16393   */\n    tag_429:\n        /* \"#utility.yul\":16199:16206   */\n      dup3\n        /* \"#utility.yul\":16196:16197   */\n      dup2\n        /* \"#utility.yul\":16193:16207   */\n      lt\n        /* \"#utility.yul\":16185:16393   */\n      iszero\n      tag_431\n      jumpi\n        /* \"#utility.yul\":16278:16287   */\n      dup5\n        /* \"#utility.yul\":16273:16276   */\n      dup10\n        /* \"#utility.yul\":16269:16288   */\n      add\n        /* \"#utility.yul\":16263:16289   */\n      mload\n        /* \"#utility.yul\":16255:16261   */\n      dup3\n        /* \"#utility.yul\":16248:16290   */\n      sstore\n        /* \"#utility.yul\":16329:16330   */\n      0x01\n        /* \"#utility.yul\":16321:16327   */\n      dup3\n        /* \"#utility.yul\":16317:16331   */\n      add\n        /* \"#utility.yul\":16307:16331   */\n      swap2\n      pop\n        /* \"#utility.yul\":16376:16378   */\n      0x20\n        /* \"#utility.yul\":16365:16374   */\n      dup6\n        /* \"#utility.yul\":16361:16379   */\n      add\n        /* \"#utility.yul\":16348:16379   */\n      swap5\n      pop\n        /* \"#utility.yul\":16222:16226   */\n      0x20\n        /* \"#utility.yul\":16219:16220   */\n      dup2\n        /* \"#utility.yul\":16215:16227   */\n      add\n        /* \"#utility.yul\":16210:16227   */\n      swap1\n      pop\n        /* \"#utility.yul\":16185:16393   */\n      jump(tag_429)\n    tag_431:\n        /* \"#utility.yul\":16421:16427   */\n      dup7\n        /* \"#utility.yul\":16412:16419   */\n      dup4\n        /* \"#utility.yul\":16409:16428   */\n      lt\n        /* \"#utility.yul\":16406:16585   */\n      iszero\n      tag_432\n      jumpi\n        /* \"#utility.yul\":16479:16488   */\n      dup5\n        /* \"#utility.yul\":16474:16477   */\n      dup10\n        /* \"#utility.yul\":16470:16489   */\n      add\n        /* \"#utility.yul\":16464:16490   */\n      mload\n        /* \"#utility.yul\":16522:16570   */\n      tag_433\n        /* \"#utility.yul\":16564:16568   */\n      0x1f\n        /* \"#utility.yul\":16556:16562   */\n      dup10\n        /* \"#utility.yul\":16552:16569   */\n      and\n        /* \"#utility.yul\":16541:16550   */\n      dup3\n        /* \"#utility.yul\":16522:16570   */\n      tag_255\n      jump\t// in\n    tag_433:\n        /* \"#utility.yul\":16514:16520   */\n      dup4\n        /* \"#utility.yul\":16507:16571   */\n      sstore\n        /* \"#utility.yul\":16429:16585   */\n      pop\n        /* \"#utility.yul\":16406:16585   */\n    tag_432:\n        /* \"#utility.yul\":16631:16632   */\n      0x01\n        /* \"#utility.yul\":16627:16628   */\n      0x02\n        /* \"#utility.yul\":16619:16625   */\n      dup9\n        /* \"#utility.yul\":16615:16629   */\n      mul\n        /* \"#utility.yul\":16611:16633   */\n      add\n        /* \"#utility.yul\":16605:16609   */\n      dup9\n        /* \"#utility.yul\":16598:16634   */\n      sstore\n        /* \"#utility.yul\":16033:16644   */\n      pop\n      pop\n      pop\n        /* \"#utility.yul\":15996:16883   */\n    tag_424:\n      pop\n        /* \"#utility.yul\":15586:16889   */\n      pop\n      pop\n      pop\n        /* \"#utility.yul\":15494:16889   */\n      pop\n      pop\n      jump\t// out\n\n    auxdata: 0xa2646970667358221220004fd5a01f39021cba82afe93e3e9b0a526c479a64ab7aba72c417a5a5aa48c464736f6c63430008120033\n}\n",
				"bytecode": {
					"linkReferences": {},
					"object": "608060405234801561001057600080fd5b50611783806100206000396000f3fe608060405234801561001057600080fd5b50600436106100575760003560e01c806344a0c76a1461005c57806344c8c9541461008c578063b096ac03146100a8578063b79c72f5146100d8578063f6b5d030146100f4575b600080fd5b61007660048036038101906100719190610e41565b610124565b6040516100839190610f2c565b60405180910390f35b6100a660048036038101906100a19190610f4e565b610441565b005b6100c260048036038101906100bd9190610e41565b610599565b6040516100cf9190610f2c565b60405180910390f35b6100f260048036038101906100ed91906110d4565b61078f565b005b61010e60048036038101906101099190610e41565b61095b565b60405161011b9190610f2c565b60405180910390f35b606061012e610abf565b6000600a81905550600760006101449190610d6c565b600660006101529190610d6c565b600960006101609190610d6c565b60028290806001815401808255809150506001900390600052602060002001600090919091909150556007829080600181540180825580915050600190039060005260206000200160009091909190915055600160008084815260200190815260200160002060006101000a81548160ff0219169083151502179055506006600a5490806001815401808255809150506001900390600052602060002001600090919091909150555b60006002805490501461032b576000600260008154811061022d5761022c611130565b5b90600052602060002001549050600260008154811061024f5761024e611130565b5b906000526020600020016000905560005b6001600280549050610272919061118e565b8110156102d957600260018261028891906111c2565b8154811061029957610298611130565b5b9060005260206000200154600282815481106102b8576102b7611130565b5b906000526020600020018190555080806102d1906111f6565b915050610260565b5060028054806102ec576102eb61123e565b5b600190038181906000526020600020016000905590556001600a600082825461031591906111c2565b9250508190555061032581610b34565b50610209565b6000600190505b6007805490508160ff16116103e85760005b6007805490508110156103d4578160ff166007828154811061036957610368611130565b5b9060005260206000200154036103c15760096006828154811061038f5761038e611130565b5b906000526020600020015490806001815401808255809150506001900390600052602060002001600090919091909150555b80806103cc906111f6565b915050610344565b5080806103e09061127a565b915050610332565b50600980548060200260200160405190810160405280929190818152602001828054801561043557602002820191906000526020600020905b815481526020019060010190808311610421575b50505050509050919050565b60008214158015610453575060008114155b610492576040517f08c379a000000000000000000000000000000000000000000000000000000000815260040161048990611300565b60405180910390fd5b6000600b600001600084815260200190815260200160002060000154141580156104d657506000600b60000160008381526020019081526020016000206000015414155b610515576040517f08c379a000000000000000000000000000000000000000000000000000000000815260040161050c9061136c565b60405180910390fd5b600b6000016000838152602001908152602001600020600201819080600181540180825580915050600190039060005260206000200160009091909190915055600b60000160008281526020019081526020016000206002018290806001815401808255809150506001900390600052602060002001600090919091909150555050565b60606105a3610abf565b600560006105b19190610d6c565b6002829080600181540180825580915050600190039060005260206000200160009091909190915055600160008084815260200190815260200160002060006101000a81548160ff0219169083151502179055505b600060028054905014610737576000600260008154811061062a57610629611130565b5b90600052602060002001549050600260008154811061064c5761064b611130565b5b906000526020600020016000905560005b600160028054905061066f919061118e565b8110156106d657600260018261068591906111c2565b8154811061069657610695611130565b5b9060005260206000200154600282815481106106b5576106b4611130565b5b906000526020600020018190555080806106ce906111f6565b91505061065d565b5060028054806106e9576106e861123e565b5b60019003818190600052602060002001600090559055600581908060018154018082558091505060019003906000526020600020016000909190919091505561073181610b34565b50610606565b600580548060200260200160405190810160405280929190818152602001828054801561078357602002820191906000526020600020905b81548152602001906001019080831161076f575b50505050509050919050565b600082036107d2576040517f08c379a00000000000000000000000000000000000000000000000000000000081526004016107c9906113d8565b60405180910390fd5b6000600b6000016000848152602001908152602001600020600001541461082e576040517f08c379a000000000000000000000000000000000000000000000000000000000815260040161082590611444565b60405180910390fd5b6040518060600160405280838152602001828152602001600067ffffffffffffffff8111156108605761085f610fa9565b5b60405190808252806020026020018201604052801561088e5781602001602082028036833780820191505090505b50815250600b60000160008481526020019081526020016000206000820151816000015560208201518160010190816108c7919061167b565b5060408201518160020190805190602001906108e4929190610d8d565b50905050600b60010160008154809291906108fe906111f6565b9190505550600080600084815260200190815260200160002060006101000a81548160ff02191690831515021790555060048290806001815401808255809150506001900390600052602060002001600090919091909150555050565b6060610965610abf565b600360006109739190610d6c565b6001829080600181540180825580915050600190039060005260206000200160009091909190915055600160008084815260200190815260200160002060006101000a81548160ff0219169083151502179055505b600060018054905014610a6757600060018080805490506109e9919061118e565b815481106109fa576109f9611130565b5b906000526020600020015490506001805480610a1957610a1861123e565b5b600190038181906000526020600020016000905590556003819080600181540180825580915050600190039060005260206000200160009091909190915055610a6181610c7a565b506109c8565b6003805480602002602001604051908101604052809291908181526020018280548015610ab357602002820191906000526020600020905b815481526020019060010190808311610a9f575b50505050509050919050565b60005b600b60010154811015610b3157600060048281548110610ae557610ae4611130565b5b90600052602060002001549050600080600083815260200190815260200160002060006101000a81548160ff021916908315150217905550508080610b29906111f6565b915050610ac2565b50565b60005b600b600001600083815260200190815260200160002060020180549050811015610c76576000600b60000160008481526020019081526020016000206002018281548110610b8857610b87611130565b5b9060005260206000200154905060008082815260200190815260200160002060009054906101000a900460ff16610c625760028190806001815401808255809150506001900390600052602060002001600090919091909150556007819080600181540180825580915050600190039060005260206000200160009091909190915055600160008083815260200190815260200160002060006101000a81548160ff0219169083151502179055506006600a5490806001815401808255809150506001900390600052602060002001600090919091909150555b508080610c6e906111f6565b915050610b37565b5050565b60005b600b600001600083815260200190815260200160002060020180549050811015610d68576000600b60000160008481526020019081526020016000206002018281548110610cce57610ccd611130565b5b9060005260206000200154905060008082815260200190815260200160002060009054906101000a900460ff16610d54576001819080600181540180825580915050600190039060005260206000200160009091909190915055600160008083815260200190815260200160002060006101000a81548160ff0219169083151502179055505b508080610d60906111f6565b915050610c7d565b5050565b5080546000825590600052602060002090810190610d8a9190610dda565b50565b828054828255906000526020600020908101928215610dc9579160200282015b82811115610dc8578251825591602001919060010190610dad565b5b509050610dd69190610dda565b5090565b5b80821115610df3576000816000905550600101610ddb565b5090565b6000604051905090565b600080fd5b600080fd5b6000819050919050565b610e1e81610e0b565b8114610e2957600080fd5b50565b600081359050610e3b81610e15565b92915050565b600060208284031215610e5757610e56610e01565b5b6000610e6584828501610e2c565b91505092915050565b600081519050919050565b600082825260208201905092915050565b6000819050602082019050919050565b610ea381610e0b565b82525050565b6000610eb58383610e9a565b60208301905092915050565b6000602082019050919050565b6000610ed982610e6e565b610ee38185610e79565b9350610eee83610e8a565b8060005b83811015610f1f578151610f068882610ea9565b9750610f1183610ec1565b925050600181019050610ef2565b5085935050505092915050565b60006020820190508181036000830152610f468184610ece565b905092915050565b60008060408385031215610f6557610f64610e01565b5b6000610f7385828601610e2c565b9250506020610f8485828601610e2c565b9150509250929050565b600080fd5b600080fd5b6000601f19601f8301169050919050565b7f4e487b7100000000000000000000000000000000000000000000000000000000600052604160045260246000fd5b610fe182610f98565b810181811067ffffffffffffffff8211171561100057610fff610fa9565b5b80604052505050565b6000611013610df7565b905061101f8282610fd8565b919050565b600067ffffffffffffffff82111561103f5761103e610fa9565b5b61104882610f98565b9050602081019050919050565b82818337600083830152505050565b600061107761107284611024565b611009565b90508281526020810184848401111561109357611092610f93565b5b61109e848285611055565b509392505050565b600082601f8301126110bb576110ba610f8e565b5b81356110cb848260208601611064565b91505092915050565b600080604083850312156110eb576110ea610e01565b5b60006110f985828601610e2c565b925050602083013567ffffffffffffffff81111561111a57611119610e06565b5b611126858286016110a6565b9150509250929050565b7f4e487b7100000000000000000000000000000000000000000000000000000000600052603260045260246000fd5b7f4e487b7100000000000000000000000000000000000000000000000000000000600052601160045260246000fd5b600061119982610e0b565b91506111a483610e0b565b92508282039050818111156111bc576111bb61115f565b5b92915050565b60006111cd82610e0b565b91506111d883610e0b565b92508282019050808211156111f0576111ef61115f565b5b92915050565b600061120182610e0b565b91507fffffffffffffffffffffffffffffffffffffffffffffffffffffffffffffffff82036112335761123261115f565b5b600182019050919050565b7f4e487b7100000000000000000000000000000000000000000000000000000000600052603160045260246000fd5b600060ff82169050919050565b60006112858261126d565b915060ff82036112985761129761115f565b5b600182019050919050565b600082825260208201905092915050565b7f766572746578742073686f756c64206e6f74206265207a65726f2e0000000000600082015250565b60006112ea601b836112a3565b91506112f5826112b4565b602082019050919050565b60006020820190508181036000830152611319816112dd565b9050919050565b7f4e6f646520646f6573206e6f742065786973742e000000000000000000000000600082015250565b60006113566014836112a3565b915061136182611320565b602082019050919050565b6000602082019050818103600083015261138581611349565b9050919050565b7f4e6f64652049442073686f756c64206e6f74206265207a65726f2e0000000000600082015250565b60006113c2601b836112a3565b91506113cd8261138c565b602082019050919050565b600060208201905081810360008301526113f1816113b5565b9050919050565b7f4e6f646520616c7265616479206578697374732e000000000000000000000000600082015250565b600061142e6014836112a3565b9150611439826113f8565b602082019050919050565b6000602082019050818103600083015261145d81611421565b9050919050565b600081519050919050565b7f4e487b7100000000000000000000000000000000000000000000000000000000600052602260045260246000fd5b600060028204905060018216806114b657607f821691505b6020821081036114c9576114c861146f565b5b50919050565b60008190508160005260206000209050919050565b60006020601f8301049050919050565b600082821b905092915050565b6000600883026115317fffffffffffffffffffffffffffffffffffffffffffffffffffffffffffffffff826114f4565b61153b86836114f4565b95508019841693508086168417925050509392505050565b6000819050919050565b600061157861157361156e84610e0b565b611553565b610e0b565b9050919050565b6000819050919050565b6115928361155d565b6115a661159e8261157f565b848454611501565b825550505050565b600090565b6115bb6115ae565b6115c6818484611589565b505050565b5b818110156115ea576115df6000826115b3565b6001810190506115cc565b5050565b601f82111561162f57611600816114cf565b611609846114e4565b81016020851015611618578190505b61162c611624856114e4565b8301826115cb565b50505b505050565b600082821c905092915050565b600061165260001984600802611634565b1980831691505092915050565b600061166b8383611641565b9150826002028217905092915050565b61168482611464565b67ffffffffffffffff81111561169d5761169c610fa9565b5b6116a7825461149e565b6116b28282856115ee565b600060209050601f8311600181146116e557600084156116d3578287015190505b6116dd858261165f565b865550611745565b601f1984166116f3866114cf565b60005b8281101561171b578489015182556001820191506020850194506020810190506116f6565b868310156117385784890151611734601f891682611641565b8355505b6001600288020188555050505b50505050505056fea2646970667358221220004fd5a01f39021cba82afe93e3e9b0a526c479a64ab7aba72c417a5a5aa48c464736f6c63430008120033",
					"opcodes": "PUSH1 0x80 PUSH1 0x40 MSTORE CALLVALUE DUP1 ISZERO PUSH2 0x10 JUMPI PUSH1 0x0 DUP1 REVERT JUMPDEST POP PUSH2 0x1783 DUP1 PUSH2 0x20 PUSH1 0x0 CODECOPY PUSH1 0x0 RETURN INVALID PUSH1 0x80 PUSH1 0x40 MSTORE CALLVALUE DUP1 ISZERO PUSH2 0x10 JUMPI PUSH1 0x0 DUP1 REVERT JUMPDEST POP PUSH1 0x4 CALLDATASIZE LT PUSH2 0x57 JUMPI PUSH1 0x0 CALLDATALOAD PUSH1 0xE0 SHR DUP1 PUSH4 0x44A0C76A EQ PUSH2 0x5C JUMPI DUP1 PUSH4 0x44C8C954 EQ PUSH2 0x8C JUMPI DUP1 PUSH4 0xB096AC03 EQ PUSH2 0xA8 JUMPI DUP1 PUSH4 0xB79C72F5 EQ PUSH2 0xD8 JUMPI DUP1 PUSH4 0xF6B5D030 EQ PUSH2 0xF4 JUMPI JUMPDEST PUSH1 0x0 DUP1 REVERT JUMPDEST PUSH2 0x76 PUSH1 0x4 DUP1 CALLDATASIZE SUB DUP2 ADD SWAP1 PUSH2 0x71 SWAP2 SWAP1 PUSH2 0xE41 JUMP JUMPDEST PUSH2 0x124 JUMP JUMPDEST PUSH1 0x40 MLOAD PUSH2 0x83 SWAP2 SWAP1 PUSH2 0xF2C JUMP JUMPDEST PUSH1 0x40 MLOAD DUP1 SWAP2 SUB SWAP1 RETURN JUMPDEST PUSH2 0xA6 PUSH1 0x4 DUP1 CALLDATASIZE SUB DUP2 ADD SWAP1 PUSH2 0xA1 SWAP2 SWAP1 PUSH2 0xF4E JUMP JUMPDEST PUSH2 0x441 JUMP JUMPDEST STOP JUMPDEST PUSH2 0xC2 PUSH1 0x4 DUP1 CALLDATASIZE SUB DUP2 ADD SWAP1 PUSH2 0xBD SWAP2 SWAP1 PUSH2 0xE41 JUMP JUMPDEST PUSH2 0x599 JUMP JUMPDEST PUSH1 0x40 MLOAD PUSH2 0xCF SWAP2 SWAP1 PUSH2 0xF2C JUMP JUMPDEST PUSH1 0x40 MLOAD DUP1 SWAP2 SUB SWAP1 RETURN JUMPDEST PUSH2 0xF2 PUSH1 0x4 DUP1 CALLDATASIZE SUB DUP2 ADD SWAP1 PUSH2 0xED SWAP2 SWAP1 PUSH2 0x10D4 JUMP JUMPDEST PUSH2 0x78F JUMP JUMPDEST STOP JUMPDEST PUSH2 0x10E PUSH1 0x4 DUP1 CALLDATASIZE SUB DUP2 ADD SWAP1 PUSH2 0x109 SWAP2 SWAP1 PUSH2 0xE41 JUMP JUMPDEST PUSH2 0x95B JUMP JUMPDEST PUSH1 0x40 MLOAD PUSH2 0x11B SWAP2 SWAP1 PUSH2 0xF2C JUMP JUMPDEST PUSH1 0x40 MLOAD DUP1 SWAP2 SUB SWAP1 RETURN JUMPDEST PUSH1 0x60 PUSH2 0x12E PUSH2 0xABF JUMP JUMPDEST PUSH1 0x0 PUSH1 0xA DUP2 SWAP1 SSTORE POP PUSH1 0x7 PUSH1 0x0 PUSH2 0x144 SWAP2 SWAP1 PUSH2 0xD6C JUMP JUMPDEST PUSH1 0x6 PUSH1 0x0 PUSH2 0x152 SWAP2 SWAP1 PUSH2 0xD6C JUMP JUMPDEST PUSH1 0x9 PUSH1 0x0 PUSH2 0x160 SWAP2 SWAP1 PUSH2 0xD6C JUMP JUMPDEST PUSH1 0x2 DUP3 SWAP1 DUP1 PUSH1 0x1 DUP2 SLOAD ADD DUP1 DUP3 SSTORE DUP1 SWAP2 POP POP PUSH1 0x1 SWAP1 SUB SWAP1 PUSH1 0x0 MSTORE PUSH1 0x20 PUSH1 0x0 KECCAK256 ADD PUSH1 0x0 SWAP1 SWAP2 SWAP1 SWAP2 SWAP1 SWAP2 POP SSTORE PUSH1 0x7 DUP3 SWAP1 DUP1 PUSH1 0x1 DUP2 SLOAD ADD DUP1 DUP3 SSTORE DUP1 SWAP2 POP POP PUSH1 0x1 SWAP1 SUB SWAP1 PUSH1 0x0 MSTORE PUSH1 0x20 PUSH1 0x0 KECCAK256 ADD PUSH1 0x0 SWAP1 SWAP2 SWAP1 SWAP2 SWAP1 SWAP2 POP SSTORE PUSH1 0x1 PUSH1 0x0 DUP1 DUP5 DUP2 MSTORE PUSH1 0x20 ADD SWAP1 DUP2 MSTORE PUSH1 0x20 ADD PUSH1 0x0 KECCAK256 PUSH1 0x0 PUSH2 0x100 EXP DUP2 SLOAD DUP2 PUSH1 0xFF MUL NOT AND SWAP1 DUP4 ISZERO ISZERO MUL OR SWAP1 SSTORE POP PUSH1 0x6 PUSH1 0xA SLOAD SWAP1 DUP1 PUSH1 0x1 DUP2 SLOAD ADD DUP1 DUP3 SSTORE DUP1 SWAP2 POP POP PUSH1 0x1 SWAP1 SUB SWAP1 PUSH1 0x0 MSTORE PUSH1 0x20 PUSH1 0x0 KECCAK256 ADD PUSH1 0x0 SWAP1 SWAP2 SWAP1 SWAP2 SWAP1 SWAP2 POP SSTORE JUMPDEST PUSH1 0x0 PUSH1 0x2 DUP1 SLOAD SWAP1 POP EQ PUSH2 0x32B JUMPI PUSH1 0x0 PUSH1 0x2 PUSH1 0x0 DUP2 SLOAD DUP2 LT PUSH2 0x22D JUMPI PUSH2 0x22C PUSH2 0x1130 JUMP JUMPDEST JUMPDEST SWAP1 PUSH1 0x0 MSTORE PUSH1 0x20 PUSH1 0x0 KECCAK256 ADD SLOAD SWAP1 POP PUSH1 0x2 PUSH1 0x0 DUP2 SLOAD DUP2 LT PUSH2 0x24F JUMPI PUSH2 0x24E PUSH2 0x1130 JUMP JUMPDEST JUMPDEST SWAP1 PUSH1 0x0 MSTORE PUSH1 0x20 PUSH1 0x0 KECCAK256 ADD PUSH1 0x0 SWAP1 SSTORE PUSH1 0x0 JUMPDEST PUSH1 0x1 PUSH1 0x2 DUP1 SLOAD SWAP1 POP PUSH2 0x272 SWAP2 SWAP1 PUSH2 0x118E JUMP JUMPDEST DUP2 LT ISZERO PUSH2 0x2D9 JUMPI PUSH1 0x2 PUSH1 0x1 DUP3 PUSH2 0x288 SWAP2 SWAP1 PUSH2 0x11C2 JUMP JUMPDEST DUP2 SLOAD DUP2 LT PUSH2 0x299 JUMPI PUSH2 0x298 PUSH2 0x1130 JUMP JUMPDEST JUMPDEST SWAP1 PUSH1 0x0 MSTORE PUSH1 0x20 PUSH1 0x0 KECCAK256 ADD SLOAD PUSH1 0x2 DUP3 DUP2 SLOAD DUP2 LT PUSH2 0x2B8 JUMPI PUSH2 0x2B7 PUSH2 0x1130 JUMP JUMPDEST JUMPDEST SWAP1 PUSH1 0x0 MSTORE PUSH1 0x20 PUSH1 0x0 KECCAK256 ADD DUP2 SWAP1 SSTORE POP DUP1 DUP1 PUSH2 0x2D1 SWAP1 PUSH2 0x11F6 JUMP JUMPDEST SWAP2 POP POP PUSH2 0x260 JUMP JUMPDEST POP PUSH1 0x2 DUP1 SLOAD DUP1 PUSH2 0x2EC JUMPI PUSH2 0x2EB PUSH2 0x123E JUMP JUMPDEST JUMPDEST PUSH1 0x1 SWAP1 SUB DUP2 DUP2 SWAP1 PUSH1 0x0 MSTORE PUSH1 0x20 PUSH1 0x0 KECCAK256 ADD PUSH1 0x0 SWAP1 SSTORE SWAP1 SSTORE PUSH1 0x1 PUSH1 0xA PUSH1 0x0 DUP3 DUP3 SLOAD PUSH2 0x315 SWAP2 SWAP1 PUSH2 0x11C2 JUMP JUMPDEST SWAP3 POP POP DUP2 SWAP1 SSTORE POP PUSH2 0x325 DUP2 PUSH2 0xB34 JUMP JUMPDEST POP PUSH2 0x209 JUMP JUMPDEST PUSH1 0x0 PUSH1 0x1 SWAP1 POP JUMPDEST PUSH1 0x7 DUP1 SLOAD SWAP1 POP DUP2 PUSH1 0xFF AND GT PUSH2 0x3E8 JUMPI PUSH1 0x0 JUMPDEST PUSH1 0x7 DUP1 SLOAD SWAP1 POP DUP2 LT ISZERO PUSH2 0x3D4 JUMPI DUP2 PUSH1 0xFF AND PUSH1 0x7 DUP3 DUP2 SLOAD DUP2 LT PUSH2 0x369 JUMPI PUSH2 0x368 PUSH2 0x1130 JUMP JUMPDEST JUMPDEST SWAP1 PUSH1 0x0 MSTORE PUSH1 0x20 PUSH1 0x0 KECCAK256 ADD SLOAD SUB PUSH2 0x3C1 JUMPI PUSH1 0x9 PUSH1 0x6 DUP3 DUP2 SLOAD DUP2 LT PUSH2 0x38F JUMPI PUSH2 0x38E PUSH2 0x1130 JUMP JUMPDEST JUMPDEST SWAP1 PUSH1 0x0 MSTORE PUSH1 0x20 PUSH1 0x0 KECCAK256 ADD SLOAD SWAP1 DUP1 PUSH1 0x1 DUP2 SLOAD ADD DUP1 DUP3 SSTORE DUP1 SWAP2 POP POP PUSH1 0x1 SWAP1 SUB SWAP1 PUSH1 0x0 MSTORE PUSH1 0x20 PUSH1 0x0 KECCAK256 ADD PUSH1 0x0 SWAP1 SWAP2 SWAP1 SWAP2 SWAP1 SWAP2 POP SSTORE JUMPDEST DUP1 DUP1 PUSH2 0x3CC SWAP1 PUSH2 0x11F6 JUMP JUMPDEST SWAP2 POP POP PUSH2 0x344 JUMP JUMPDEST POP DUP1 DUP1 PUSH2 0x3E0 SWAP1 PUSH2 0x127A JUMP JUMPDEST SWAP2 POP POP PUSH2 0x332 JUMP JUMPDEST POP PUSH1 0x9 DUP1 SLOAD DUP1 PUSH1 0x20 MUL PUSH1 0x20 ADD PUSH1 0x40 MLOAD SWAP1 DUP2 ADD PUSH1 0x40 MSTORE DUP1 SWAP3 SWAP2 SWAP1 DUP2 DUP2 MSTORE PUSH1 0x20 ADD DUP3 DUP1 SLOAD DUP1 ISZERO PUSH2 0x435 JUMPI PUSH1 0x20 MUL DUP3 ADD SWAP2 SWAP1 PUSH1 0x0 MSTORE PUSH1 0x20 PUSH1 0x0 KECCAK256 SWAP1 JUMPDEST DUP2 SLOAD DUP2 MSTORE PUSH1 0x20 ADD SWAP1 PUSH1 0x1 ADD SWAP1 DUP1 DUP4 GT PUSH2 0x421 JUMPI JUMPDEST POP POP POP POP POP SWAP1 POP SWAP2 SWAP1 POP JUMP JUMPDEST PUSH1 0x0 DUP3 EQ ISZERO DUP1 ISZERO PUSH2 0x453 JUMPI POP PUSH1 0x0 DUP2 EQ ISZERO JUMPDEST PUSH2 0x492 JUMPI PUSH1 0x40 MLOAD PUSH32 0x8C379A000000000000000000000000000000000000000000000000000000000 DUP2 MSTORE PUSH1 0x4 ADD PUSH2 0x489 SWAP1 PUSH2 0x1300 JUMP JUMPDEST PUSH1 0x40 MLOAD DUP1 SWAP2 SUB SWAP1 REVERT JUMPDEST PUSH1 0x0 PUSH1 0xB PUSH1 0x0 ADD PUSH1 0x0 DUP5 DUP2 MSTORE PUSH1 0x20 ADD SWAP1 DUP2 MSTORE PUSH1 0x20 ADD PUSH1 0x0 KECCAK256 PUSH1 0x0 ADD SLOAD EQ ISZERO DUP1 ISZERO PUSH2 0x4D6 JUMPI POP PUSH1 0x0 PUSH1 0xB PUSH1 0x0 ADD PUSH1 0x0 DUP4 DUP2 MSTORE PUSH1 0x20 ADD SWAP1 DUP2 MSTORE PUSH1 0x20 ADD PUSH1 0x0 KECCAK256 PUSH1 0x0 ADD SLOAD EQ ISZERO JUMPDEST PUSH2 0x515 JUMPI PUSH1 0x40 MLOAD PUSH32 0x8C379A000000000000000000000000000000000000000000000000000000000 DUP2 MSTORE PUSH1 0x4 ADD PUSH2 0x50C SWAP1 PUSH2 0x136C JUMP JUMPDEST PUSH1 0x40 MLOAD DUP1 SWAP2 SUB SWAP1 REVERT JUMPDEST PUSH1 0xB PUSH1 0x0 ADD PUSH1 0x0 DUP4 DUP2 MSTORE PUSH1 0x20 ADD SWAP1 DUP2 MSTORE PUSH1 0x20 ADD PUSH1 0x0 KECCAK256 PUSH1 0x2 ADD DUP2 SWAP1 DUP1 PUSH1 0x1 DUP2 SLOAD ADD DUP1 DUP3 SSTORE DUP1 SWAP2 POP POP PUSH1 0x1 SWAP1 SUB SWAP1 PUSH1 0x0 MSTORE PUSH1 0x20 PUSH1 0x0 KECCAK256 ADD PUSH1 0x0 SWAP1 SWAP2 SWAP1 SWAP2 SWAP1 SWAP2 POP SSTORE PUSH1 0xB PUSH1 0x0 ADD PUSH1 0x0 DUP3 DUP2 MSTORE PUSH1 0x20 ADD SWAP1 DUP2 MSTORE PUSH1 0x20 ADD PUSH1 0x0 KECCAK256 PUSH1 0x2 ADD DUP3 SWAP1 DUP1 PUSH1 0x1 DUP2 SLOAD ADD DUP1 DUP3 SSTORE DUP1 SWAP2 POP POP PUSH1 0x1 SWAP1 SUB SWAP1 PUSH1 0x0 MSTORE PUSH1 0x20 PUSH1 0x0 KECCAK256 ADD PUSH1 0x0 SWAP1 SWAP2 SWAP1 SWAP2 SWAP1 SWAP2 POP SSTORE POP POP JUMP JUMPDEST PUSH1 0x60 PUSH2 0x5A3 PUSH2 0xABF JUMP JUMPDEST PUSH1 0x5 PUSH1 0x0 PUSH2 0x5B1 SWAP2 SWAP1 PUSH2 0xD6C JUMP JUMPDEST PUSH1 0x2 DUP3 SWAP1 DUP1 PUSH1 0x1 DUP2 SLOAD ADD DUP1 DUP3 SSTORE DUP1 SWAP2 POP POP PUSH1 0x1 SWAP1 SUB SWAP1 PUSH1 0x0 MSTORE PUSH1 0x20 PUSH1 0x0 KECCAK256 ADD PUSH1 0x0 SWAP1 SWAP2 SWAP1 SWAP2 SWAP1 SWAP2 POP SSTORE PUSH1 0x1 PUSH1 0x0 DUP1 DUP5 DUP2 MSTORE PUSH1 0x20 ADD SWAP1 DUP2 MSTORE PUSH1 0x20 ADD PUSH1 0x0 KECCAK256 PUSH1 0x0 PUSH2 0x100 EXP DUP2 SLOAD DUP2 PUSH1 0xFF MUL NOT AND SWAP1 DUP4 ISZERO ISZERO MUL OR SWAP1 SSTORE POP JUMPDEST PUSH1 0x0 PUSH1 0x2 DUP1 SLOAD SWAP1 POP EQ PUSH2 0x737 JUMPI PUSH1 0x0 PUSH1 0x2 PUSH1 0x0 DUP2 SLOAD DUP2 LT PUSH2 0x62A JUMPI PUSH2 0x629 PUSH2 0x1130 JUMP JUMPDEST JUMPDEST SWAP1 PUSH1 0x0 MSTORE PUSH1 0x20 PUSH1 0x0 KECCAK256 ADD SLOAD SWAP1 POP PUSH1 0x2 PUSH1 0x0 DUP2 SLOAD DUP2 LT PUSH2 0x64C JUMPI PUSH2 0x64B PUSH2 0x1130 JUMP JUMPDEST JUMPDEST SWAP1 PUSH1 0x0 MSTORE PUSH1 0x20 PUSH1 0x0 KECCAK256 ADD PUSH1 0x0 SWAP1 SSTORE PUSH1 0x0 JUMPDEST PUSH1 0x1 PUSH1 0x2 DUP1 SLOAD SWAP1 POP PUSH2 0x66F SWAP2 SWAP1 PUSH2 0x118E JUMP JUMPDEST DUP2 LT ISZERO PUSH2 0x6D6 JUMPI PUSH1 0x2 PUSH1 0x1 DUP3 PUSH2 0x685 SWAP2 SWAP1 PUSH2 0x11C2 JUMP JUMPDEST DUP2 SLOAD DUP2 LT PUSH2 0x696 JUMPI PUSH2 0x695 PUSH2 0x1130 JUMP JUMPDEST JUMPDEST SWAP1 PUSH1 0x0 MSTORE PUSH1 0x20 PUSH1 0x0 KECCAK256 ADD SLOAD PUSH1 0x2 DUP3 DUP2 SLOAD DUP2 LT PUSH2 0x6B5 JUMPI PUSH2 0x6B4 PUSH2 0x1130 JUMP JUMPDEST JUMPDEST SWAP1 PUSH1 0x0 MSTORE PUSH1 0x20 PUSH1 0x0 KECCAK256 ADD DUP2 SWAP1 SSTORE POP DUP1 DUP1 PUSH2 0x6CE SWAP1 PUSH2 0x11F6 JUMP JUMPDEST SWAP2 POP POP PUSH2 0x65D JUMP JUMPDEST POP PUSH1 0x2 DUP1 SLOAD DUP1 PUSH2 0x6E9 JUMPI PUSH2 0x6E8 PUSH2 0x123E JUMP JUMPDEST JUMPDEST PUSH1 0x1 SWAP1 SUB DUP2 DUP2 SWAP1 PUSH1 0x0 MSTORE PUSH1 0x20 PUSH1 0x0 KECCAK256 ADD PUSH1 0x0 SWAP1 SSTORE SWAP1 SSTORE PUSH1 0x5 DUP2 SWAP1 DUP1 PUSH1 0x1 DUP2 SLOAD ADD DUP1 DUP3 SSTORE DUP1 SWAP2 POP POP PUSH1 0x1 SWAP1 SUB SWAP1 PUSH1 0x0 MSTORE PUSH1 0x20 PUSH1 0x0 KECCAK256 ADD PUSH1 0x0 SWAP1 SWAP2 SWAP1 SWAP2 SWAP1 SWAP2 POP SSTORE PUSH2 0x731 DUP2 PUSH2 0xB34 JUMP JUMPDEST POP PUSH2 0x606 JUMP JUMPDEST PUSH1 0x5 DUP1 SLOAD DUP1 PUSH1 0x20 MUL PUSH1 0x20 ADD PUSH1 0x40 MLOAD SWAP1 DUP2 ADD PUSH1 0x40 MSTORE DUP1 SWAP3 SWAP2 SWAP1 DUP2 DUP2 MSTORE PUSH1 0x20 ADD DUP3 DUP1 SLOAD DUP1 ISZERO PUSH2 0x783 JUMPI PUSH1 0x20 MUL DUP3 ADD SWAP2 SWAP1 PUSH1 0x0 MSTORE PUSH1 0x20 PUSH1 0x0 KECCAK256 SWAP1 JUMPDEST DUP2 SLOAD DUP2 MSTORE PUSH1 0x20 ADD SWAP1 PUSH1 0x1 ADD SWAP1 DUP1 DUP4 GT PUSH2 0x76F JUMPI JUMPDEST POP POP POP POP POP SWAP1 POP SWAP2 SWAP1 POP JUMP JUMPDEST PUSH1 0x0 DUP3 SUB PUSH2 0x7D2 JUMPI PUSH1 0x40 MLOAD PUSH32 0x8C379A000000000000000000000000000000000000000000000000000000000 DUP2 MSTORE PUSH1 0x4 ADD PUSH2 0x7C9 SWAP1 PUSH2 0x13D8 JUMP JUMPDEST PUSH1 0x40 MLOAD DUP1 SWAP2 SUB SWAP1 REVERT JUMPDEST PUSH1 0x0 PUSH1 0xB PUSH1 0x0 ADD PUSH1 0x0 DUP5 DUP2 MSTORE PUSH1 0x20 ADD SWAP1 DUP2 MSTORE PUSH1 0x20 ADD PUSH1 0x0 KECCAK256 PUSH1 0x0 ADD SLOAD EQ PUSH2 0x82E JUMPI PUSH1 0x40 MLOAD PUSH32 0x8C379A000000000000000000000000000000000000000000000000000000000 DUP2 MSTORE PUSH1 0x4 ADD PUSH2 0x825 SWAP1 PUSH2 0x1444 JUMP JUMPDEST PUSH1 0x40 MLOAD DUP1 SWAP2 SUB SWAP1 REVERT JUMPDEST PUSH1 0x40 MLOAD DUP1 PUSH1 0x60 ADD PUSH1 0x40 MSTORE DUP1 DUP4 DUP2 MSTORE PUSH1 0x20 ADD DUP3 DUP2 MSTORE PUSH1 0x20 ADD PUSH1 0x0 PUSH8 0xFFFFFFFFFFFFFFFF DUP2 GT ISZERO PUSH2 0x860 JUMPI PUSH2 0x85F PUSH2 0xFA9 JUMP JUMPDEST JUMPDEST PUSH1 0x40 MLOAD SWAP1 DUP1 DUP3 MSTORE DUP1 PUSH1 0x20 MUL PUSH1 0x20 ADD DUP3 ADD PUSH1 0x40 MSTORE DUP1 ISZERO PUSH2 0x88E JUMPI DUP2 PUSH1 0x20 ADD PUSH1 0x20 DUP3 MUL DUP1 CALLDATASIZE DUP4 CALLDATACOPY DUP1 DUP3 ADD SWAP2 POP POP SWAP1 POP JUMPDEST POP DUP2 MSTORE POP PUSH1 0xB PUSH1 0x0 ADD PUSH1 0x0 DUP5 DUP2 MSTORE PUSH1 0x20 ADD SWAP1 DUP2 MSTORE PUSH1 0x20 ADD PUSH1 0x0 KECCAK256 PUSH1 0x0 DUP3 ADD MLOAD DUP2 PUSH1 0x0 ADD SSTORE PUSH1 0x20 DUP3 ADD MLOAD DUP2 PUSH1 0x1 ADD SWAP1 DUP2 PUSH2 0x8C7 SWAP2 SWAP1 PUSH2 0x167B JUMP JUMPDEST POP PUSH1 0x40 DUP3 ADD MLOAD DUP2 PUSH1 0x2 ADD SWAP1 DUP1 MLOAD SWAP1 PUSH1 0x20 ADD SWAP1 PUSH2 0x8E4 SWAP3 SWAP2 SWAP1 PUSH2 0xD8D JUMP JUMPDEST POP SWAP1 POP POP PUSH1 0xB PUSH1 0x1 ADD PUSH1 0x0 DUP2 SLOAD DUP1 SWAP3 SWAP2 SWAP1 PUSH2 0x8FE SWAP1 PUSH2 0x11F6 JUMP JUMPDEST SWAP2 SWAP1 POP SSTORE POP PUSH1 0x0 DUP1 PUSH1 0x0 DUP5 DUP2 MSTORE PUSH1 0x20 ADD SWAP1 DUP2 MSTORE PUSH1 0x20 ADD PUSH1 0x0 KECCAK256 PUSH1 0x0 PUSH2 0x100 EXP DUP2 SLOAD DUP2 PUSH1 0xFF MUL NOT AND SWAP1 DUP4 ISZERO ISZERO MUL OR SWAP1 SSTORE POP PUSH1 0x4 DUP3 SWAP1 DUP1 PUSH1 0x1 DUP2 SLOAD ADD DUP1 DUP3 SSTORE DUP1 SWAP2 POP POP PUSH1 0x1 SWAP1 SUB SWAP1 PUSH1 0x0 MSTORE PUSH1 0x20 PUSH1 0x0 KECCAK256 ADD PUSH1 0x0 SWAP1 SWAP2 SWAP1 SWAP2 SWAP1 SWAP2 POP SSTORE POP POP JUMP JUMPDEST PUSH1 0x60 PUSH2 0x965 PUSH2 0xABF JUMP JUMPDEST PUSH1 0x3 PUSH1 0x0 PUSH2 0x973 SWAP2 SWAP1 PUSH2 0xD6C JUMP JUMPDEST PUSH1 0x1 DUP3 SWAP1 DUP1 PUSH1 0x1 DUP2 SLOAD ADD DUP1 DUP3 SSTORE DUP1 SWAP2 POP POP PUSH1 0x1 SWAP1 SUB SWAP1 PUSH1 0x0 MSTORE PUSH1 0x20 PUSH1 0x0 KECCAK256 ADD PUSH1 0x0 SWAP1 SWAP2 SWAP1 SWAP2 SWAP1 SWAP2 POP SSTORE PUSH1 0x1 PUSH1 0x0 DUP1 DUP5 DUP2 MSTORE PUSH1 0x20 ADD SWAP1 DUP2 MSTORE PUSH1 0x20 ADD PUSH1 0x0 KECCAK256 PUSH1 0x0 PUSH2 0x100 EXP DUP2 SLOAD DUP2 PUSH1 0xFF MUL NOT AND SWAP1 DUP4 ISZERO ISZERO MUL OR SWAP1 SSTORE POP JUMPDEST PUSH1 0x0 PUSH1 0x1 DUP1 SLOAD SWAP1 POP EQ PUSH2 0xA67 JUMPI PUSH1 0x0 PUSH1 0x1 DUP1 DUP1 DUP1 SLOAD SWAP1 POP PUSH2 0x9E9 SWAP2 SWAP1 PUSH2 0x118E JUMP JUMPDEST DUP2 SLOAD DUP2 LT PUSH2 0x9FA JUMPI PUSH2 0x9F9 PUSH2 0x1130 JUMP JUMPDEST JUMPDEST SWAP1 PUSH1 0x0 MSTORE PUSH1 0x20 PUSH1 0x0 KECCAK256 ADD SLOAD SWAP1 POP PUSH1 0x1 DUP1 SLOAD DUP1 PUSH2 0xA19 JUMPI PUSH2 0xA18 PUSH2 0x123E JUMP JUMPDEST JUMPDEST PUSH1 0x1 SWAP1 SUB DUP2 DUP2 SWAP1 PUSH1 0x0 MSTORE PUSH1 0x20 PUSH1 0x0 KECCAK256 ADD PUSH1 0x0 SWAP1 SSTORE SWAP1 SSTORE PUSH1 0x3 DUP2 SWAP1 DUP1 PUSH1 0x1 DUP2 SLOAD ADD DUP1 DUP3 SSTORE DUP1 SWAP2 POP POP PUSH1 0x1 SWAP1 SUB SWAP1 PUSH1 0x0 MSTORE PUSH1 0x20 PUSH1 0x0 KECCAK256 ADD PUSH1 0x0 SWAP1 SWAP2 SWAP1 SWAP2 SWAP1 SWAP2 POP SSTORE PUSH2 0xA61 DUP2 PUSH2 0xC7A JUMP JUMPDEST POP PUSH2 0x9C8 JUMP JUMPDEST PUSH1 0x3 DUP1 SLOAD DUP1 PUSH1 0x20 MUL PUSH1 0x20 ADD PUSH1 0x40 MLOAD SWAP1 DUP2 ADD PUSH1 0x40 MSTORE DUP1 SWAP3 SWAP2 SWAP1 DUP2 DUP2 MSTORE PUSH1 0x20 ADD DUP3 DUP1 SLOAD DUP1 ISZERO PUSH2 0xAB3 JUMPI PUSH1 0x20 MUL DUP3 ADD SWAP2 SWAP1 PUSH1 0x0 MSTORE PUSH1 0x20 PUSH1 0x0 KECCAK256 SWAP1 JUMPDEST DUP2 SLOAD DUP2 MSTORE PUSH1 0x20 ADD SWAP1 PUSH1 0x1 ADD SWAP1 DUP1 DUP4 GT PUSH2 0xA9F JUMPI JUMPDEST POP POP POP POP POP SWAP1 POP SWAP2 SWAP1 POP JUMP JUMPDEST PUSH1 0x0 JUMPDEST PUSH1 0xB PUSH1 0x1 ADD SLOAD DUP2 LT ISZERO PUSH2 0xB31 JUMPI PUSH1 0x0 PUSH1 0x4 DUP3 DUP2 SLOAD DUP2 LT PUSH2 0xAE5 JUMPI PUSH2 0xAE4 PUSH2 0x1130 JUMP JUMPDEST JUMPDEST SWAP1 PUSH1 0x0 MSTORE PUSH1 0x20 PUSH1 0x0 KECCAK256 ADD SLOAD SWAP1 POP PUSH1 0x0 DUP1 PUSH1 0x0 DUP4 DUP2 MSTORE PUSH1 0x20 ADD SWAP1 DUP2 MSTORE PUSH1 0x20 ADD PUSH1 0x0 KECCAK256 PUSH1 0x0 PUSH2 0x100 EXP DUP2 SLOAD DUP2 PUSH1 0xFF MUL NOT AND SWAP1 DUP4 ISZERO ISZERO MUL OR SWAP1 SSTORE POP POP DUP1 DUP1 PUSH2 0xB29 SWAP1 PUSH2 0x11F6 JUMP JUMPDEST SWAP2 POP POP PUSH2 0xAC2 JUMP JUMPDEST POP JUMP JUMPDEST PUSH1 0x0 JUMPDEST PUSH1 0xB PUSH1 0x0 ADD PUSH1 0x0 DUP4 DUP2 MSTORE PUSH1 0x20 ADD SWAP1 DUP2 MSTORE PUSH1 0x20 ADD PUSH1 0x0 KECCAK256 PUSH1 0x2 ADD DUP1 SLOAD SWAP1 POP DUP2 LT ISZERO PUSH2 0xC76 JUMPI PUSH1 0x0 PUSH1 0xB PUSH1 0x0 ADD PUSH1 0x0 DUP5 DUP2 MSTORE PUSH1 0x20 ADD SWAP1 DUP2 MSTORE PUSH1 0x20 ADD PUSH1 0x0 KECCAK256 PUSH1 0x2 ADD DUP3 DUP2 SLOAD DUP2 LT PUSH2 0xB88 JUMPI PUSH2 0xB87 PUSH2 0x1130 JUMP JUMPDEST JUMPDEST SWAP1 PUSH1 0x0 MSTORE PUSH1 0x20 PUSH1 0x0 KECCAK256 ADD SLOAD SWAP1 POP PUSH1 0x0 DUP1 DUP3 DUP2 MSTORE PUSH1 0x20 ADD SWAP1 DUP2 MSTORE PUSH1 0x20 ADD PUSH1 0x0 KECCAK256 PUSH1 0x0 SWAP1 SLOAD SWAP1 PUSH2 0x100 EXP SWAP1 DIV PUSH1 0xFF AND PUSH2 0xC62 JUMPI PUSH1 0x2 DUP2 SWAP1 DUP1 PUSH1 0x1 DUP2 SLOAD ADD DUP1 DUP3 SSTORE DUP1 SWAP2 POP POP PUSH1 0x1 SWAP1 SUB SWAP1 PUSH1 0x0 MSTORE PUSH1 0x20 PUSH1 0x0 KECCAK256 ADD PUSH1 0x0 SWAP1 SWAP2 SWAP1 SWAP2 SWAP1 SWAP2 POP SSTORE PUSH1 0x7 DUP2 SWAP1 DUP1 PUSH1 0x1 DUP2 SLOAD ADD DUP1 DUP3 SSTORE DUP1 SWAP2 POP POP PUSH1 0x1 SWAP1 SUB SWAP1 PUSH1 0x0 MSTORE PUSH1 0x20 PUSH1 0x0 KECCAK256 ADD PUSH1 0x0 SWAP1 SWAP2 SWAP1 SWAP2 SWAP1 SWAP2 POP SSTORE PUSH1 0x1 PUSH1 0x0 DUP1 DUP4 DUP2 MSTORE PUSH1 0x20 ADD SWAP1 DUP2 MSTORE PUSH1 0x20 ADD PUSH1 0x0 KECCAK256 PUSH1 0x0 PUSH2 0x100 EXP DUP2 SLOAD DUP2 PUSH1 0xFF MUL NOT AND SWAP1 DUP4 ISZERO ISZERO MUL OR SWAP1 SSTORE POP PUSH1 0x6 PUSH1 0xA SLOAD SWAP1 DUP1 PUSH1 0x1 DUP2 SLOAD ADD DUP1 DUP3 SSTORE DUP1 SWAP2 POP POP PUSH1 0x1 SWAP1 SUB SWAP1 PUSH1 0x0 MSTORE PUSH1 0x20 PUSH1 0x0 KECCAK256 ADD PUSH1 0x0 SWAP1 SWAP2 SWAP1 SWAP2 SWAP1 SWAP2 POP SSTORE JUMPDEST POP DUP1 DUP1 PUSH2 0xC6E SWAP1 PUSH2 0x11F6 JUMP JUMPDEST SWAP2 POP POP PUSH2 0xB37 JUMP JUMPDEST POP POP JUMP JUMPDEST PUSH1 0x0 JUMPDEST PUSH1 0xB PUSH1 0x0 ADD PUSH1 0x0 DUP4 DUP2 MSTORE PUSH1 0x20 ADD SWAP1 DUP2 MSTORE PUSH1 0x20 ADD PUSH1 0x0 KECCAK256 PUSH1 0x2 ADD DUP1 SLOAD SWAP1 POP DUP2 LT ISZERO PUSH2 0xD68 JUMPI PUSH1 0x0 PUSH1 0xB PUSH1 0x0 ADD PUSH1 0x0 DUP5 DUP2 MSTORE PUSH1 0x20 ADD SWAP1 DUP2 MSTORE PUSH1 0x20 ADD PUSH1 0x0 KECCAK256 PUSH1 0x2 ADD DUP3 DUP2 SLOAD DUP2 LT PUSH2 0xCCE JUMPI PUSH2 0xCCD PUSH2 0x1130 JUMP JUMPDEST JUMPDEST SWAP1 PUSH1 0x0 MSTORE PUSH1 0x20 PUSH1 0x0 KECCAK256 ADD SLOAD SWAP1 POP PUSH1 0x0 DUP1 DUP3 DUP2 MSTORE PUSH1 0x20 ADD SWAP1 DUP2 MSTORE PUSH1 0x20 ADD PUSH1 0x0 KECCAK256 PUSH1 0x0 SWAP1 SLOAD SWAP1 PUSH2 0x100 EXP SWAP1 DIV PUSH1 0xFF AND PUSH2 0xD54 JUMPI PUSH1 0x1 DUP2 SWAP1 DUP1 PUSH1 0x1 DUP2 SLOAD ADD DUP1 DUP3 SSTORE DUP1 SWAP2 POP POP PUSH1 0x1 SWAP1 SUB SWAP1 PUSH1 0x0 MSTORE PUSH1 0x20 PUSH1 0x0 KECCAK256 ADD PUSH1 0x0 SWAP1 SWAP2 SWAP1 SWAP2 SWAP1 SWAP2 POP SSTORE PUSH1 0x1 PUSH1 0x0 DUP1 DUP4 DUP2 MSTORE PUSH1 0x20 ADD SWAP1 DUP2 MSTORE PUSH1 0x20 ADD PUSH1 0x0 KECCAK256 PUSH1 0x0 PUSH2 0x100 EXP DUP2 SLOAD DUP2 PUSH1 0xFF MUL NOT AND SWAP1 DUP4 ISZERO ISZERO MUL OR SWAP1 SSTORE POP JUMPDEST POP DUP1 DUP1 PUSH2 0xD60 SWAP1 PUSH2 0x11F6 JUMP JUMPDEST SWAP2 POP POP PUSH2 0xC7D JUMP JUMPDEST POP POP JUMP JUMPDEST POP DUP1 SLOAD PUSH1 0x0 DUP3 SSTORE SWAP1 PUSH1 0x0 MSTORE PUSH1 0x20 PUSH1 0x0 KECCAK256 SWAP1 DUP2 ADD SWAP1 PUSH2 0xD8A SWAP2 SWAP1 PUSH2 0xDDA JUMP JUMPDEST POP JUMP JUMPDEST DUP3 DUP1 SLOAD DUP3 DUP3 SSTORE SWAP1 PUSH1 0x0 MSTORE PUSH1 0x20 PUSH1 0x0 KECCAK256 SWAP1 DUP2 ADD SWAP3 DUP3 ISZERO PUSH2 0xDC9 JUMPI SWAP2 PUSH1 0x20 MUL DUP3 ADD JUMPDEST DUP3 DUP2 GT ISZERO PUSH2 0xDC8 JUMPI DUP3 MLOAD DUP3 SSTORE SWAP2 PUSH1 0x20 ADD SWAP2 SWAP1 PUSH1 0x1 ADD SWAP1 PUSH2 0xDAD JUMP JUMPDEST JUMPDEST POP SWAP1 POP PUSH2 0xDD6 SWAP2 SWAP1 PUSH2 0xDDA JUMP JUMPDEST POP SWAP1 JUMP JUMPDEST JUMPDEST DUP1 DUP3 GT ISZERO PUSH2 0xDF3 JUMPI PUSH1 0x0 DUP2 PUSH1 0x0 SWAP1 SSTORE POP PUSH1 0x1 ADD PUSH2 0xDDB JUMP JUMPDEST POP SWAP1 JUMP JUMPDEST PUSH1 0x0 PUSH1 0x40 MLOAD SWAP1 POP SWAP1 JUMP JUMPDEST PUSH1 0x0 DUP1 REVERT JUMPDEST PUSH1 0x0 DUP1 REVERT JUMPDEST PUSH1 0x0 DUP2 SWAP1 POP SWAP2 SWAP1 POP JUMP JUMPDEST PUSH2 0xE1E DUP2 PUSH2 0xE0B JUMP JUMPDEST DUP2 EQ PUSH2 0xE29 JUMPI PUSH1 0x0 DUP1 REVERT JUMPDEST POP JUMP JUMPDEST PUSH1 0x0 DUP2 CALLDATALOAD SWAP1 POP PUSH2 0xE3B DUP2 PUSH2 0xE15 JUMP JUMPDEST SWAP3 SWAP2 POP POP JUMP JUMPDEST PUSH1 0x0 PUSH1 0x20 DUP3 DUP5 SUB SLT ISZERO PUSH2 0xE57 JUMPI PUSH2 0xE56 PUSH2 0xE01 JUMP JUMPDEST JUMPDEST PUSH1 0x0 PUSH2 0xE65 DUP5 DUP3 DUP6 ADD PUSH2 0xE2C JUMP JUMPDEST SWAP2 POP POP SWAP3 SWAP2 POP POP JUMP JUMPDEST PUSH1 0x0 DUP2 MLOAD SWAP1 POP SWAP2 SWAP1 POP JUMP JUMPDEST PUSH1 0x0 DUP3 DUP3 MSTORE PUSH1 0x20 DUP3 ADD SWAP1 POP SWAP3 SWAP2 POP POP JUMP JUMPDEST PUSH1 0x0 DUP2 SWAP1 POP PUSH1 0x20 DUP3 ADD SWAP1 POP SWAP2 SWAP1 POP JUMP JUMPDEST PUSH2 0xEA3 DUP2 PUSH2 0xE0B JUMP JUMPDEST DUP3 MSTORE POP POP JUMP JUMPDEST PUSH1 0x0 PUSH2 0xEB5 DUP4 DUP4 PUSH2 0xE9A JUMP JUMPDEST PUSH1 0x20 DUP4 ADD SWAP1 POP SWAP3 SWAP2 POP POP JUMP JUMPDEST PUSH1 0x0 PUSH1 0x20 DUP3 ADD SWAP1 POP SWAP2 SWAP1 POP JUMP JUMPDEST PUSH1 0x0 PUSH2 0xED9 DUP3 PUSH2 0xE6E JUMP JUMPDEST PUSH2 0xEE3 DUP2 DUP6 PUSH2 0xE79 JUMP JUMPDEST SWAP4 POP PUSH2 0xEEE DUP4 PUSH2 0xE8A JUMP JUMPDEST DUP1 PUSH1 0x0 JUMPDEST DUP4 DUP2 LT ISZERO PUSH2 0xF1F JUMPI DUP2 MLOAD PUSH2 0xF06 DUP9 DUP3 PUSH2 0xEA9 JUMP JUMPDEST SWAP8 POP PUSH2 0xF11 DUP4 PUSH2 0xEC1 JUMP JUMPDEST SWAP3 POP POP PUSH1 0x1 DUP2 ADD SWAP1 POP PUSH2 0xEF2 JUMP JUMPDEST POP DUP6 SWAP4 POP POP POP POP SWAP3 SWAP2 POP POP JUMP JUMPDEST PUSH1 0x0 PUSH1 0x20 DUP3 ADD SWAP1 POP DUP2 DUP2 SUB PUSH1 0x0 DUP4 ADD MSTORE PUSH2 0xF46 DUP2 DUP5 PUSH2 0xECE JUMP JUMPDEST SWAP1 POP SWAP3 SWAP2 POP POP JUMP JUMPDEST PUSH1 0x0 DUP1 PUSH1 0x40 DUP4 DUP6 SUB SLT ISZERO PUSH2 0xF65 JUMPI PUSH2 0xF64 PUSH2 0xE01 JUMP JUMPDEST JUMPDEST PUSH1 0x0 PUSH2 0xF73 DUP6 DUP3 DUP7 ADD PUSH2 0xE2C JUMP JUMPDEST SWAP3 POP POP PUSH1 0x20 PUSH2 0xF84 DUP6 DUP3 DUP7 ADD PUSH2 0xE2C JUMP JUMPDEST SWAP2 POP POP SWAP3 POP SWAP3 SWAP1 POP JUMP JUMPDEST PUSH1 0x0 DUP1 REVERT JUMPDEST PUSH1 0x0 DUP1 REVERT JUMPDEST PUSH1 0x0 PUSH1 0x1F NOT PUSH1 0x1F DUP4 ADD AND SWAP1 POP SWAP2 SWAP1 POP JUMP JUMPDEST PUSH32 0x4E487B7100000000000000000000000000000000000000000000000000000000 PUSH1 0x0 MSTORE PUSH1 0x41 PUSH1 0x4 MSTORE PUSH1 0x24 PUSH1 0x0 REVERT JUMPDEST PUSH2 0xFE1 DUP3 PUSH2 0xF98 JUMP JUMPDEST DUP2 ADD DUP2 DUP2 LT PUSH8 0xFFFFFFFFFFFFFFFF DUP3 GT OR ISZERO PUSH2 0x1000 JUMPI PUSH2 0xFFF PUSH2 0xFA9 JUMP JUMPDEST JUMPDEST DUP1 PUSH1 0x40 MSTORE POP POP POP JUMP JUMPDEST PUSH1 0x0 PUSH2 0x1013 PUSH2 0xDF7 JUMP JUMPDEST SWAP1 POP PUSH2 0x101F DUP3 DUP3 PUSH2 0xFD8 JUMP JUMPDEST SWAP2 SWAP1 POP JUMP JUMPDEST PUSH1 0x0 PUSH8 0xFFFFFFFFFFFFFFFF DUP3 GT ISZERO PUSH2 0x103F JUMPI PUSH2 0x103E PUSH2 0xFA9 JUMP JUMPDEST JUMPDEST PUSH2 0x1048 DUP3 PUSH2 0xF98 JUMP JUMPDEST SWAP1 POP PUSH1 0x20 DUP2 ADD SWAP1 POP SWAP2 SWAP1 POP JUMP JUMPDEST DUP3 DUP2 DUP4 CALLDATACOPY PUSH1 0x0 DUP4 DUP4 ADD MSTORE POP POP POP JUMP JUMPDEST PUSH1 0x0 PUSH2 0x1077 PUSH2 0x1072 DUP5 PUSH2 0x1024 JUMP JUMPDEST PUSH2 0x1009 JUMP JUMPDEST SWAP1 POP DUP3 DUP2 MSTORE PUSH1 0x20 DUP2 ADD DUP5 DUP5 DUP5 ADD GT ISZERO PUSH2 0x1093 JUMPI PUSH2 0x1092 PUSH2 0xF93 JUMP JUMPDEST JUMPDEST PUSH2 0x109E DUP5 DUP3 DUP6 PUSH2 0x1055 JUMP JUMPDEST POP SWAP4 SWAP3 POP POP POP JUMP JUMPDEST PUSH1 0x0 DUP3 PUSH1 0x1F DUP4 ADD SLT PUSH2 0x10BB JUMPI PUSH2 0x10BA PUSH2 0xF8E JUMP JUMPDEST JUMPDEST DUP2 CALLDATALOAD PUSH2 0x10CB DUP5 DUP3 PUSH1 0x20 DUP7 ADD PUSH2 0x1064 JUMP JUMPDEST SWAP2 POP POP SWAP3 SWAP2 POP POP JUMP JUMPDEST PUSH1 0x0 DUP1 PUSH1 0x40 DUP4 DUP6 SUB SLT ISZERO PUSH2 0x10EB JUMPI PUSH2 0x10EA PUSH2 0xE01 JUMP JUMPDEST JUMPDEST PUSH1 0x0 PUSH2 0x10F9 DUP6 DUP3 DUP7 ADD PUSH2 0xE2C JUMP JUMPDEST SWAP3 POP POP PUSH1 0x20 DUP4 ADD CALLDATALOAD PUSH8 0xFFFFFFFFFFFFFFFF DUP2 GT ISZERO PUSH2 0x111A JUMPI PUSH2 0x1119 PUSH2 0xE06 JUMP JUMPDEST JUMPDEST PUSH2 0x1126 DUP6 DUP3 DUP7 ADD PUSH2 0x10A6 JUMP JUMPDEST SWAP2 POP POP SWAP3 POP SWAP3 SWAP1 POP JUMP JUMPDEST PUSH32 0x4E487B7100000000000000000000000000000000000000000000000000000000 PUSH1 0x0 MSTORE PUSH1 0x32 PUSH1 0x4 MSTORE PUSH1 0x24 PUSH1 0x0 REVERT JUMPDEST PUSH32 0x4E487B7100000000000000000000000000000000000000000000000000000000 PUSH1 0x0 MSTORE PUSH1 0x11 PUSH1 0x4 MSTORE PUSH1 0x24 PUSH1 0x0 REVERT JUMPDEST PUSH1 0x0 PUSH2 0x1199 DUP3 PUSH2 0xE0B JUMP JUMPDEST SWAP2 POP PUSH2 0x11A4 DUP4 PUSH2 0xE0B JUMP JUMPDEST SWAP3 POP DUP3 DUP3 SUB SWAP1 POP DUP2 DUP2 GT ISZERO PUSH2 0x11BC JUMPI PUSH2 0x11BB PUSH2 0x115F JUMP JUMPDEST JUMPDEST SWAP3 SWAP2 POP POP JUMP JUMPDEST PUSH1 0x0 PUSH2 0x11CD DUP3 PUSH2 0xE0B JUMP JUMPDEST SWAP2 POP PUSH2 0x11D8 DUP4 PUSH2 0xE0B JUMP JUMPDEST SWAP3 POP DUP3 DUP3 ADD SWAP1 POP DUP1 DUP3 GT ISZERO PUSH2 0x11F0 JUMPI PUSH2 0x11EF PUSH2 0x115F JUMP JUMPDEST JUMPDEST SWAP3 SWAP2 POP POP JUMP JUMPDEST PUSH1 0x0 PUSH2 0x1201 DUP3 PUSH2 0xE0B JUMP JUMPDEST SWAP2 POP PUSH32 0xFFFFFFFFFFFFFFFFFFFFFFFFFFFFFFFFFFFFFFFFFFFFFFFFFFFFFFFFFFFFFFFF DUP3 SUB PUSH2 0x1233 JUMPI PUSH2 0x1232 PUSH2 0x115F JUMP JUMPDEST JUMPDEST PUSH1 0x1 DUP3 ADD SWAP1 POP SWAP2 SWAP1 POP JUMP JUMPDEST PUSH32 0x4E487B7100000000000000000000000000000000000000000000000000000000 PUSH1 0x0 MSTORE PUSH1 0x31 PUSH1 0x4 MSTORE PUSH1 0x24 PUSH1 0x0 REVERT JUMPDEST PUSH1 0x0 PUSH1 0xFF DUP3 AND SWAP1 POP SWAP2 SWAP1 POP JUMP JUMPDEST PUSH1 0x0 PUSH2 0x1285 DUP3 PUSH2 0x126D JUMP JUMPDEST SWAP2 POP PUSH1 0xFF DUP3 SUB PUSH2 0x1298 JUMPI PUSH2 0x1297 PUSH2 0x115F JUMP JUMPDEST JUMPDEST PUSH1 0x1 DUP3 ADD SWAP1 POP SWAP2 SWAP1 POP JUMP JUMPDEST PUSH1 0x0 DUP3 DUP3 MSTORE PUSH1 0x20 DUP3 ADD SWAP1 POP SWAP3 SWAP2 POP POP JUMP JUMPDEST PUSH32 0x766572746578742073686F756C64206E6F74206265207A65726F2E0000000000 PUSH1 0x0 DUP3 ADD MSTORE POP JUMP JUMPDEST PUSH1 0x0 PUSH2 0x12EA PUSH1 0x1B DUP4 PUSH2 0x12A3 JUMP JUMPDEST SWAP2 POP PUSH2 0x12F5 DUP3 PUSH2 0x12B4 JUMP JUMPDEST PUSH1 0x20 DUP3 ADD SWAP1 POP SWAP2 SWAP1 POP JUMP JUMPDEST PUSH1 0x0 PUSH1 0x20 DUP3 ADD SWAP1 POP DUP2 DUP2 SUB PUSH1 0x0 DUP4 ADD MSTORE PUSH2 0x1319 DUP2 PUSH2 0x12DD JUMP JUMPDEST SWAP1 POP SWAP2 SWAP1 POP JUMP JUMPDEST PUSH32 0x4E6F646520646F6573206E6F742065786973742E000000000000000000000000 PUSH1 0x0 DUP3 ADD MSTORE POP JUMP JUMPDEST PUSH1 0x0 PUSH2 0x1356 PUSH1 0x14 DUP4 PUSH2 0x12A3 JUMP JUMPDEST SWAP2 POP PUSH2 0x1361 DUP3 PUSH2 0x1320 JUMP JUMPDEST PUSH1 0x20 DUP3 ADD SWAP1 POP SWAP2 SWAP1 POP JUMP JUMPDEST PUSH1 0x0 PUSH1 0x20 DUP3 ADD SWAP1 POP DUP2 DUP2 SUB PUSH1 0x0 DUP4 ADD MSTORE PUSH2 0x1385 DUP2 PUSH2 0x1349 JUMP JUMPDEST SWAP1 POP SWAP2 SWAP1 POP JUMP JUMPDEST PUSH32 0x4E6F64652049442073686F756C64206E6F74206265207A65726F2E0000000000 PUSH1 0x0 DUP3 ADD MSTORE POP JUMP JUMPDEST PUSH1 0x0 PUSH2 0x13C2 PUSH1 0x1B DUP4 PUSH2 0x12A3 JUMP JUMPDEST SWAP2 POP PUSH2 0x13CD DUP3 PUSH2 0x138C JUMP JUMPDEST PUSH1 0x20 DUP3 ADD SWAP1 POP SWAP2 SWAP1 POP JUMP JUMPDEST PUSH1 0x0 PUSH1 0x20 DUP3 ADD SWAP1 POP DUP2 DUP2 SUB PUSH1 0x0 DUP4 ADD MSTORE PUSH2 0x13F1 DUP2 PUSH2 0x13B5 JUMP JUMPDEST SWAP1 POP SWAP2 SWAP1 POP JUMP JUMPDEST PUSH32 0x4E6F646520616C7265616479206578697374732E000000000000000000000000 PUSH1 0x0 DUP3 ADD MSTORE POP JUMP JUMPDEST PUSH1 0x0 PUSH2 0x142E PUSH1 0x14 DUP4 PUSH2 0x12A3 JUMP JUMPDEST SWAP2 POP PUSH2 0x1439 DUP3 PUSH2 0x13F8 JUMP JUMPDEST PUSH1 0x20 DUP3 ADD SWAP1 POP SWAP2 SWAP1 POP JUMP JUMPDEST PUSH1 0x0 PUSH1 0x20 DUP3 ADD SWAP1 POP DUP2 DUP2 SUB PUSH1 0x0 DUP4 ADD MSTORE PUSH2 0x145D DUP2 PUSH2 0x1421 JUMP JUMPDEST SWAP1 POP SWAP2 SWAP1 POP JUMP JUMPDEST PUSH1 0x0 DUP2 MLOAD SWAP1 POP SWAP2 SWAP1 POP JUMP JUMPDEST PUSH32 0x4E487B7100000000000000000000000000000000000000000000000000000000 PUSH1 0x0 MSTORE PUSH1 0x22 PUSH1 0x4 MSTORE PUSH1 0x24 PUSH1 0x0 REVERT JUMPDEST PUSH1 0x0 PUSH1 0x2 DUP3 DIV SWAP1 POP PUSH1 0x1 DUP3 AND DUP1 PUSH2 0x14B6 JUMPI PUSH1 0x7F DUP3 AND SWAP2 POP JUMPDEST PUSH1 0x20 DUP3 LT DUP2 SUB PUSH2 0x14C9 JUMPI PUSH2 0x14C8 PUSH2 0x146F JUMP JUMPDEST JUMPDEST POP SWAP2 SWAP1 POP JUMP JUMPDEST PUSH1 0x0 DUP2 SWAP1 POP DUP2 PUSH1 0x0 MSTORE PUSH1 0x20 PUSH1 0x0 KECCAK256 SWAP1 POP SWAP2 SWAP1 POP JUMP JUMPDEST PUSH1 0x0 PUSH1 0x20 PUSH1 0x1F DUP4 ADD DIV SWAP1 POP SWAP2 SWAP1 POP JUMP JUMPDEST PUSH1 0x0 DUP3 DUP3 SHL SWAP1 POP SWAP3 SWAP2 POP POP JUMP JUMPDEST PUSH1 0x0 PUSH1 0x8 DUP4 MUL PUSH2 0x1531 PUSH32 0xFFFFFFFFFFFFFFFFFFFFFFFFFFFFFFFFFFFFFFFFFFFFFFFFFFFFFFFFFFFFFFFF DUP3 PUSH2 0x14F4 JUMP JUMPDEST PUSH2 0x153B DUP7 DUP4 PUSH2 0x14F4 JUMP JUMPDEST SWAP6 POP DUP1 NOT DUP5 AND SWAP4 POP DUP1 DUP7 AND DUP5 OR SWAP3 POP POP POP SWAP4 SWAP3 POP POP POP JUMP JUMPDEST PUSH1 0x0 DUP2 SWAP1 POP SWAP2 SWAP1 POP JUMP JUMPDEST PUSH1 0x0 PUSH2 0x1578 PUSH2 0x1573 PUSH2 0x156E DUP5 PUSH2 0xE0B JUMP JUMPDEST PUSH2 0x1553 JUMP JUMPDEST PUSH2 0xE0B JUMP JUMPDEST SWAP1 POP SWAP2 SWAP1 POP JUMP JUMPDEST PUSH1 0x0 DUP2 SWAP1 POP SWAP2 SWAP1 POP JUMP JUMPDEST PUSH2 0x1592 DUP4 PUSH2 0x155D JUMP JUMPDEST PUSH2 0x15A6 PUSH2 0x159E DUP3 PUSH2 0x157F JUMP JUMPDEST DUP5 DUP5 SLOAD PUSH2 0x1501 JUMP JUMPDEST DUP3 SSTORE POP POP POP POP JUMP JUMPDEST PUSH1 0x0 SWAP1 JUMP JUMPDEST PUSH2 0x15BB PUSH2 0x15AE JUMP JUMPDEST PUSH2 0x15C6 DUP2 DUP5 DUP5 PUSH2 0x1589 JUMP JUMPDEST POP POP POP JUMP JUMPDEST JUMPDEST DUP2 DUP2 LT ISZERO PUSH2 0x15EA JUMPI PUSH2 0x15DF PUSH1 0x0 DUP3 PUSH2 0x15B3 JUMP JUMPDEST PUSH1 0x1 DUP2 ADD SWAP1 POP PUSH2 0x15CC JUMP JUMPDEST POP POP JUMP JUMPDEST PUSH1 0x1F DUP3 GT ISZERO PUSH2 0x162F JUMPI PUSH2 0x1600 DUP2 PUSH2 0x14CF JUMP JUMPDEST PUSH2 0x1609 DUP5 PUSH2 0x14E4 JUMP JUMPDEST DUP2 ADD PUSH1 0x20 DUP6 LT ISZERO PUSH2 0x1618 JUMPI DUP2 SWAP1 POP JUMPDEST PUSH2 0x162C PUSH2 0x1624 DUP6 PUSH2 0x14E4 JUMP JUMPDEST DUP4 ADD DUP3 PUSH2 0x15CB JUMP JUMPDEST POP POP JUMPDEST POP POP POP JUMP JUMPDEST PUSH1 0x0 DUP3 DUP3 SHR SWAP1 POP SWAP3 SWAP2 POP POP JUMP JUMPDEST PUSH1 0x0 PUSH2 0x1652 PUSH1 0x0 NOT DUP5 PUSH1 0x8 MUL PUSH2 0x1634 JUMP JUMPDEST NOT DUP1 DUP4 AND SWAP2 POP POP SWAP3 SWAP2 POP POP JUMP JUMPDEST PUSH1 0x0 PUSH2 0x166B DUP4 DUP4 PUSH2 0x1641 JUMP JUMPDEST SWAP2 POP DUP3 PUSH1 0x2 MUL DUP3 OR SWAP1 POP SWAP3 SWAP2 POP POP JUMP JUMPDEST PUSH2 0x1684 DUP3 PUSH2 0x1464 JUMP JUMPDEST PUSH8 0xFFFFFFFFFFFFFFFF DUP2 GT ISZERO PUSH2 0x169D JUMPI PUSH2 0x169C PUSH2 0xFA9 JUMP JUMPDEST JUMPDEST PUSH2 0x16A7 DUP3 SLOAD PUSH2 0x149E JUMP JUMPDEST PUSH2 0x16B2 DUP3 DUP3 DUP6 PUSH2 0x15EE JUMP JUMPDEST PUSH1 0x0 PUSH1 0x20 SWAP1 POP PUSH1 0x1F DUP4 GT PUSH1 0x1 DUP2 EQ PUSH2 0x16E5 JUMPI PUSH1 0x0 DUP5 ISZERO PUSH2 0x16D3 JUMPI DUP3 DUP8 ADD MLOAD SWAP1 POP JUMPDEST PUSH2 0x16DD DUP6 DUP3 PUSH2 0x165F JUMP JUMPDEST DUP7 SSTORE POP PUSH2 0x1745 JUMP JUMPDEST PUSH1 0x1F NOT DUP5 AND PUSH2 0x16F3 DUP7 PUSH2 0x14CF JUMP JUMPDEST PUSH1 0x0 JUMPDEST DUP3 DUP2 LT ISZERO PUSH2 0x171B JUMPI DUP5 DUP10 ADD MLOAD DUP3 SSTORE PUSH1 0x1 DUP3 ADD SWAP2 POP PUSH1 0x20 DUP6 ADD SWAP5 POP PUSH1 0x20 DUP2 ADD SWAP1 POP PUSH2 0x16F6 JUMP JUMPDEST DUP7 DUP4 LT ISZERO PUSH2 0x1738 JUMPI DUP5 DUP10 ADD MLOAD PUSH2 0x1734 PUSH1 0x1F DUP10 AND DUP3 PUSH2 0x1641 JUMP JUMPDEST DUP4 SSTORE POP JUMPDEST PUSH1 0x1 PUSH1 0x2 DUP9 MUL ADD DUP9 SSTORE POP POP POP JUMPDEST POP POP POP POP POP POP JUMP INVALID LOG2 PUSH5 0x6970667358 0x22 SLT KECCAK256 STOP 0x4F 0xD5 LOG0 0x1F CODECOPY MUL SHR 0xBA DUP3 0xAF 0xE9 RETURNDATACOPY RETURNDATACOPY SWAP12 EXP MSTORE PUSH13 0x479A64AB7ABA72C417A5A5AA48 0xC4 PUSH5 0x736F6C6343 STOP ADDMOD SLT STOP CALLER "
				},
				"gasEstimates": {
					"creation": {
						"codeDepositCost": "1203800",
						"executionCost": "1254",
						"totalCost": "1205054"
					},
					"external": {
						"BFS(uint256)": "infinite",
						"DFS(uint256)": "infinite",
						"ShortestPath(uint256)": "infinite",
						"addEdge(uint256,uint256)": "infinite",
						"addVertext(uint256,string)": "infinite"
					},
					"internal": {
						"BFSserch(uint256)": "infinite",
						"DFSSerch(uint256)": "infinite",
						"setFaulse()": "infinite"
					}
				},
				"methodIdentifiers": {
					"BFS(uint256)": "b096ac03",
					"DFS(uint256)": "f6b5d030",
					"ShortestPath(uint256)": "44a0c76a",
					"addEdge(uint256,uint256)": "44c8c954",
					"addVertext(uint256,string)": "b79c72f5"
				}
			},
			"storageLayout": {
				"storage": [
					{
						"astId": 5,
						"contract": "Desktop/solidity/Graph.sol:Undigraph",
						"label": "visited",
						"offset": 0,
						"slot": "0",
						"type": "t_mapping(t_uint256,t_bool)"
					},
					{
						"astId": 8,
						"contract": "Desktop/solidity/Graph.sol:Undigraph",
						"label": "stack",
						"offset": 0,
						"slot": "1",
						"type": "t_array(t_uint256)dyn_storage"
					},
					{
						"astId": 11,
						"contract": "Desktop/solidity/Graph.sol:Undigraph",
						"label": "queue",
						"offset": 0,
						"slot": "2",
						"type": "t_array(t_uint256)dyn_storage"
					},
					{
						"astId": 14,
						"contract": "Desktop/solidity/Graph.sol:Undigraph",
						"label": "DFSresult",
						"offset": 0,
						"slot": "3",
						"type": "t_array(t_uint256)dyn_storage"
					},
					{
						"astId": 17,
						"contract": "Desktop/solidity/Graph.sol:Undigraph",
						"label": "allNodeId",
						"offset": 0,
						"slot": "4",
						"type": "t_array(t_uint256)dyn_storage"
					},
					{
						"astId": 20,
						"contract": "Desktop/solidity/Graph.sol:Undigraph",
						"label": "BFSResult",
						"offset": 0,
						"slot": "5",
						"type": "t_array(t_uint256)dyn_storage"
					},
					{
						"astId": 23,
						"contract": "Desktop/solidity/Graph.sol:Undigraph",
						"label": "path",
						"offset": 0,
						"slot": "6",
						"type": "t_array(t_uint256)dyn_storage"
					},
					{
						"astId": 26,
						"contract": "Desktop/solidity/Graph.sol:Undigraph",
						"label": "pathID",
						"offset": 0,
						"slot": "7",
						"type": "t_array(t_uint256)dyn_storage"
					},
					{
						"astId": 29,
						"contract": "Desktop/solidity/Graph.sol:Undigraph",
						"label": "shortPath",
						"offset": 0,
						"slot": "8",
						"type": "t_array(t_uint256)dyn_storage"
					},
					{
						"astId": 32,
						"contract": "Desktop/solidity/Graph.sol:Undigraph",
						"label": "pathResult",
						"offset": 0,
						"slot": "9",
						"type": "t_array(t_uint256)dyn_storage"
					},
					{
						"astId": 34,
						"contract": "Desktop/solidity/Graph.sol:Undigraph",
						"label": "route",
						"offset": 0,
						"slot": "10",
						"type": "t_uint256"
					},
					{
						"astId": 53,
						"contract": "Desktop/solidity/Graph.sol:Undigraph",
						"label": "graph",
						"offset": 0,
						"slot": "11",
						"type": "t_struct(Graph)50_storage"
					}
				],
				"types": {
					"t_array(t_uint256)dyn_storage": {
						"base": "t_uint256",
						"encoding": "dynamic_array",
						"label": "uint256[]",
						"numberOfBytes": "32"
					},
					"t_bool": {
						"encoding": "inplace",
						"label": "bool",
						"numberOfBytes": "1"
					},
					"t_mapping(t_uint256,t_bool)": {
						"encoding": "mapping",
						"key": "t_uint256",
						"label": "mapping(uint256 => bool)",
						"numberOfBytes": "32",
						"value": "t_bool"
					},
					"t_mapping(t_uint256,t_struct(Node)42_storage)": {
						"encoding": "mapping",
						"key": "t_uint256",
						"label": "mapping(uint256 => struct Undigraph.Node)",
						"numberOfBytes": "32",
						"value": "t_struct(Node)42_storage"
					},
					"t_string_storage": {
						"encoding": "bytes",
						"label": "string",
						"numberOfBytes": "32"
					},
					"t_struct(Graph)50_storage": {
						"encoding": "inplace",
						"label": "struct Undigraph.Graph",
						"members": [
							{
								"astId": 47,
								"contract": "Desktop/solidity/Graph.sol:Undigraph",
								"label": "nodes",
								"offset": 0,
								"slot": "0",
								"type": "t_mapping(t_uint256,t_struct(Node)42_storage)"
							},
							{
								"astId": 49,
								"contract": "Desktop/solidity/Graph.sol:Undigraph",
								"label": "nodeCount",
								"offset": 0,
								"slot": "1",
								"type": "t_uint256"
							}
						],
						"numberOfBytes": "64"
					},
					"t_struct(Node)42_storage": {
						"encoding": "inplace",
						"label": "struct Undigraph.Node",
						"members": [
							{
								"astId": 36,
								"contract": "Desktop/solidity/Graph.sol:Undigraph",
								"label": "nodeId",
								"offset": 0,
								"slot": "0",
								"type": "t_uint256"
							},
							{
								"astId": 38,
								"contract": "Desktop/solidity/Graph.sol:Undigraph",
								"label": "name",
								"offset": 0,
								"slot": "1",
								"type": "t_string_storage"
							},
							{
								"astId": 41,
								"contract": "Desktop/solidity/Graph.sol:Undigraph",
								"label": "neighbors",
								"offset": 0,
								"slot": "2",
								"type": "t_array(t_uint256)dyn_storage"
							}
						],
						"numberOfBytes": "96"
					},
					"t_uint256": {
						"encoding": "inplace",
						"label": "uint256",
						"numberOfBytes": "32"
					}
				}
			},
			"userdoc": {
				"kind": "user",
				"methods": {},
				"version": 1
			}
		}
	}
}